{
  "contractName": "AuctionFactory",
  "abi": [
    {
      "anonymous": false,
      "inputs": [
        {
          "indexed": true,
          "internalType": "contract Auction",
          "name": "auction",
          "type": "address"
        },
        {
          "indexed": true,
          "internalType": "address",
          "name": "owner",
          "type": "address"
        }
      ],
      "name": "AuctionCreated",
      "type": "event"
    },
    {
      "inputs": [
        {
          "internalType": "uint256",
          "name": "",
          "type": "uint256"
        }
      ],
      "name": "_auctions",
      "outputs": [
        {
          "internalType": "contract Auction",
          "name": "",
          "type": "address"
        }
      ],
      "stateMutability": "view",
      "type": "function",
      "constant": true
    },
    {
      "inputs": [
        {
          "internalType": "string",
          "name": "_name",
          "type": "string"
        },
        {
          "internalType": "string",
          "name": "_description",
          "type": "string"
        },
        {
          "internalType": "uint256",
          "name": "_loanAmount",
          "type": "uint256"
        },
        {
          "internalType": "uint256",
          "name": "_loanDuration",
          "type": "uint256"
        },
        {
          "internalType": "uint256",
          "name": "_auctionPeriod",
          "type": "uint256"
        }
      ],
      "name": "createAuction",
      "outputs": [],
      "stateMutability": "nonpayable",
      "type": "function"
    }
  ],
  "bytecode": "0x608060405234801561001057600080fd5b50611f0e806100206000396000f3fe608060405234801561001057600080fd5b50600436106100365760003560e01c806317dc6bf61461003b5780635800eafa146100a9575b600080fd5b6100676004803603602081101561005157600080fd5b8101908080359060200190929190505050610219565b604051808273ffffffffffffffffffffffffffffffffffffffff1673ffffffffffffffffffffffffffffffffffffffff16815260200191505060405180910390f35b610217600480360360a08110156100bf57600080fd5b81019080803590602001906401000000008111156100dc57600080fd5b8201836020820111156100ee57600080fd5b8035906020019184600183028401116401000000008311171561011057600080fd5b91908080601f016020809104026020016040519081016040528093929190818152602001838380828437600081840152601f19601f8201169050808301925050505050505091929192908035906020019064010000000081111561017357600080fd5b82018360208201111561018557600080fd5b803590602001918460018302840111640100000000831117156101a757600080fd5b91908080601f016020809104026020016040519081016040528093929190818152602001838380828437600081840152601f19601f820116905080830192505050505050509192919290803590602001909291908035906020019092919080359060200190929190505050610255565b005b6000818154811061022657fe5b906000526020600020016000915054906101000a900473ffffffffffffffffffffffffffffffffffffffff1681565b600085858585853360405161026990610470565b8080602001806020018781526020018681526020018581526020018473ffffffffffffffffffffffffffffffffffffffff1673ffffffffffffffffffffffffffffffffffffffff168152602001838103835289818151815260200191508051906020019080838360005b838110156102ee5780820151818401526020810190506102d3565b50505050905090810190601f16801561031b5780820380516001836020036101000a031916815260200191505b50838103825288818151815260200191508051906020019080838360005b83811015610354578082015181840152602081019050610339565b50505050905090810190601f1680156103815780820380516001836020036101000a031916815260200191505b5098505050505050505050604051809103906000f0801580156103a8573d6000803e3d6000fd5b5090506000819080600181540180825580915050600190039060005260206000200160009091909190916101000a81548173ffffffffffffffffffffffffffffffffffffffff021916908373ffffffffffffffffffffffffffffffffffffffff1602179055503373ffffffffffffffffffffffffffffffffffffffff168173ffffffffffffffffffffffffffffffffffffffff167f0bdb7849ed0b0249d0f995067a2ca77769f68ab4c654931e262676effeb395f260405160405180910390a3505050505050565b611a5b8061047e8339019056fe60806040526001600a60006101000a81548160ff0219169083151502179055503480156200002c57600080fd5b5060405162001a5b38038062001a5b833981810160405260c08110156200005257600080fd5b81019080805160405193929190846401000000008211156200007357600080fd5b838201915060208201858111156200008a57600080fd5b8251866001820283011164010000000082111715620000a857600080fd5b8083526020830192505050908051906020019080838360005b83811015620000de578082015181840152602081019050620000c1565b50505050905090810190601f1680156200010c5780820380516001836020036101000a031916815260200191505b50604052602001805160405193929190846401000000008211156200013057600080fd5b838201915060208201858111156200014757600080fd5b82518660018202830111640100000000821117156200016557600080fd5b8083526020830192505050908051906020019080838360005b838110156200019b5780820151818401526020810190506200017e565b50505050905090810190601f168015620001c95780820380516001836020036101000a031916815260200191505b506040526020018051906020019092919080519060200190929190805190602001909291908051906020019092919050505060006200020d6200037d60201b60201c565b9050806000806101000a81548173ffffffffffffffffffffffffffffffffffffffff021916908373ffffffffffffffffffffffffffffffffffffffff1602179055508073ffffffffffffffffffffffffffffffffffffffff16600073ffffffffffffffffffffffffffffffffffffffff167f8be0079c531659141344cd1fd0a4f28419497f9722a3daafe3b4186f6b6457e060405160405180910390a3508560019080519060200190620002c39291906200059d565b508460029080519060200190620002dc9291906200059d565b50836006819055508260078190555081600481905550600454420160058190555033600360006101000a81548173ffffffffffffffffffffffffffffffffffffffff021916908373ffffffffffffffffffffffffffffffffffffffff16021790555062000371600360009054906101000a900473ffffffffffffffffffffffffffffffffffffffff166200038560201b60201c565b5050505050506200064c565b600033905090565b620003956200037d60201b60201c565b73ffffffffffffffffffffffffffffffffffffffff166000809054906101000a900473ffffffffffffffffffffffffffffffffffffffff1673ffffffffffffffffffffffffffffffffffffffff161462000457576040517f08c379a00000000000000000000000000000000000000000000000000000000081526004018080602001828103825260208152602001807f4f776e61626c653a2063616c6c6572206973206e6f7420746865206f776e657281525060200191505060405180910390fd5b600073ffffffffffffffffffffffffffffffffffffffff168173ffffffffffffffffffffffffffffffffffffffff161415620004df576040517f08c379a000000000000000000000000000000000000000000000000000000000815260040180806020018281038252602681526020018062001a356026913960400191505060405180910390fd5b8073ffffffffffffffffffffffffffffffffffffffff166000809054906101000a900473ffffffffffffffffffffffffffffffffffffffff1673ffffffffffffffffffffffffffffffffffffffff167f8be0079c531659141344cd1fd0a4f28419497f9722a3daafe3b4186f6b6457e060405160405180910390a3806000806101000a81548173ffffffffffffffffffffffffffffffffffffffff021916908373ffffffffffffffffffffffffffffffffffffffff16021790555050565b828054600181600116156101000203166002900490600052602060002090601f016020900481019282601f10620005e057805160ff191683800117855562000611565b8280016001018555821562000611579182015b8281111562000610578251825591602001919060010190620005f3565b5b50905062000620919062000624565b5090565b6200064991905b80821115620006455760008160009055506001016200062b565b5090565b90565b6113d9806200065c6000396000f3fe6080604052600436106101095760003560e01c806370a08231116100955780638890ed09116100645780638890ed09146104385780638da5cb5b1461048f5780639d585f7f146104e6578063f2fde38b14610511578063f5521bf11461056257610109565b806370a0823114610301578063715018a6146103665780637284e4161461037d57806384dd31051461040d57610109565b806328e2f696116100dc57806328e2f696146102375780632a24f46c146102665780633ccfd60b14610291578063454a2ab3146102a85780634c738909146102d657610109565b806306fdde031461010e57806308551a531461019e5780630cccfc58146101f55780632810e1d614610220575b600080fd5b34801561011a57600080fd5b5061012361058d565b6040518080602001828103825283818151815260200191508051906020019080838360005b83811015610163578082015181840152602081019050610148565b50505050905090810190601f1680156101905780820380516001836020036101000a031916815260200191505b509250505060405180910390f35b3480156101aa57600080fd5b506101b361062b565b604051808273ffffffffffffffffffffffffffffffffffffffff1673ffffffffffffffffffffffffffffffffffffffff16815260200191505060405180910390f35b34801561020157600080fd5b5061020a610651565b6040518082815260200191505060405180910390f35b34801561022c57600080fd5b50610235610657565b005b34801561024357600080fd5b5061024c610886565b604051808215151515815260200191505060405180910390f35b34801561027257600080fd5b5061027b610899565b6040518082815260200191505060405180910390f35b34801561029d57600080fd5b506102a661089f565b005b6102d4600480360360208110156102be57600080fd5b8101908080359060200190929190505050610ad5565b005b3480156102e257600080fd5b506102eb610df5565b6040518082815260200191505060405180910390f35b34801561030d57600080fd5b506103506004803603602081101561032457600080fd5b81019080803573ffffffffffffffffffffffffffffffffffffffff169060200190929190505050610e3c565b6040518082815260200191505060405180910390f35b34801561037257600080fd5b5061037b610e54565b005b34801561038957600080fd5b50610392610fdc565b6040518080602001828103825283818151815260200191508051906020019080838360005b838110156103d25780820151818401526020810190506103b7565b50505050905090810190601f1680156103ff5780820380516001836020036101000a031916815260200191505b509250505060405180910390f35b34801561041957600080fd5b5061042261107a565b6040518082815260200191505060405180910390f35b34801561044457600080fd5b5061044d611080565b604051808273ffffffffffffffffffffffffffffffffffffffff1673ffffffffffffffffffffffffffffffffffffffff16815260200191505060405180910390f35b34801561049b57600080fd5b506104a46110a6565b604051808273ffffffffffffffffffffffffffffffffffffffff1673ffffffffffffffffffffffffffffffffffffffff16815260200191505060405180910390f35b3480156104f257600080fd5b506104fb6110cf565b6040518082815260200191505060405180910390f35b34801561051d57600080fd5b506105606004803603602081101561053457600080fd5b81019080803573ffffffffffffffffffffffffffffffffffffffff1690602001909291905050506110d5565b005b34801561056e57600080fd5b506105776112e2565b6040518082815260200191505060405180910390f35b60018054600181600116156101000203166002900480601f0160208091040260200160405190810160405280929190818152602001828054600181600116156101000203166002900480156106235780601f106105f857610100808354040283529160200191610623565b820191906000526020600020905b81548152906001019060200180831161060657829003601f168201915b505050505081565b600360009054906101000a900473ffffffffffffffffffffffffffffffffffffffff1681565b60045481565b6005544210156106b2576040517f08c379a00000000000000000000000000000000000000000000000000000000081526004018080602001828103825260268152602001806113176026913960400191505060405180910390fd5b600a60009054906101000a900460ff166107f557600b6000600860009054906101000a900473ffffffffffffffffffffffffffffffffffffffff1673ffffffffffffffffffffffffffffffffffffffff1673ffffffffffffffffffffffffffffffffffffffff16815260200190815260200160002054600b6000600360009054906101000a900473ffffffffffffffffffffffffffffffffffffffff1673ffffffffffffffffffffffffffffffffffffffff1673ffffffffffffffffffffffffffffffffffffffff168152602001908152602001600020819055506000600b6000600860009054906101000a900473ffffffffffffffffffffffffffffffffffffffff1673ffffffffffffffffffffffffffffffffffffffff1673ffffffffffffffffffffffffffffffffffffffff168152602001908152602001600020819055505b7fdaec4582d5d9595688c8c98545fdd1c696d41c6aeaeb636737e84ed2f5c00eda600860009054906101000a900473ffffffffffffffffffffffffffffffffffffffff16600954604051808373ffffffffffffffffffffffffffffffffffffffff1673ffffffffffffffffffffffffffffffffffffffff1681526020018281526020019250505060405180910390a1565b600a60009054906101000a900460ff1681565b60055481565b600860009054906101000a900473ffffffffffffffffffffffffffffffffffffffff1673ffffffffffffffffffffffffffffffffffffffff163373ffffffffffffffffffffffffffffffffffffffff161415610963576040517f08c379a000000000000000000000000000000000000000000000000000000000815260040180806020018281038252601e8152602001807f77696e6e696e67206269646465722063616e6e6f74207769746864726177000081525060200191505060405180910390fd5b6000600b60003373ffffffffffffffffffffffffffffffffffffffff1673ffffffffffffffffffffffffffffffffffffffff1681526020019081526020016000205490506000600b60003373ffffffffffffffffffffffffffffffffffffffff1673ffffffffffffffffffffffffffffffffffffffff168152602001908152602001600020819055503373ffffffffffffffffffffffffffffffffffffffff166108fc829081150290604051600060405180830381858888f19350505050158015610a32573d6000803e3d6000fd5b507fddf252ad1be2c89b69c2b068fc378daa952ba7f163c4a11628f55a4df523b3ef303383604051808473ffffffffffffffffffffffffffffffffffffffff1673ffffffffffffffffffffffffffffffffffffffff1681526020018373ffffffffffffffffffffffffffffffffffffffff1673ffffffffffffffffffffffffffffffffffffffff168152602001828152602001935050505060405180910390a150565b6006543414610b4c576040517f08c379a00000000000000000000000000000000000000000000000000000000081526004018080602001828103825260188152602001807f6d757374207472616e73666572206c6f616e416d6f756e74000000000000000081525060200191505060405180910390fd5b6005544210610bc3576040517f08c379a000000000000000000000000000000000000000000000000000000000815260040180806020018281038252601f8152602001807f63616e6e6f742062696420616674657220656e64206f662061756374696f6e0081525060200191505060405180910390fd5b6000600b60003373ffffffffffffffffffffffffffffffffffffffff1673ffffffffffffffffffffffffffffffffffffffff1681526020019081526020016000205414610c5b576040517f08c379a000000000000000000000000000000000000000000000000000000000815260040180806020018281038252602c81526020018061133d602c913960400191505060405180910390fd5b600a60009054906101000a900460ff16610cca576009548110610cc9576040517f08c379a000000000000000000000000000000000000000000000000000000000815260040180806020018281038252603b815260200180611369603b913960400191505060405180910390fd5b5b34600b60003373ffffffffffffffffffffffffffffffffffffffff1673ffffffffffffffffffffffffffffffffffffffff1681526020019081526020016000208190555033600860006101000a81548173ffffffffffffffffffffffffffffffffffffffff021916908373ffffffffffffffffffffffffffffffffffffffff16021790555080600981905550600a60009054906101000a900460ff1615610d87576000600a60006101000a81548160ff0219169083151502179055505b7f06bd3fc0a2fbaf697c0ce7dd554e4f4803388d8a216568213eb060552b5989983382604051808373ffffffffffffffffffffffffffffffffffffffff1673ffffffffffffffffffffffffffffffffffffffff1681526020018281526020019250505060405180910390a150565b6000600b60003373ffffffffffffffffffffffffffffffffffffffff1673ffffffffffffffffffffffffffffffffffffffff16815260200190815260200160002054905090565b600b6020528060005260406000206000915090505481565b610e5c6112e8565b73ffffffffffffffffffffffffffffffffffffffff166000809054906101000a900473ffffffffffffffffffffffffffffffffffffffff1673ffffffffffffffffffffffffffffffffffffffff1614610f1d576040517f08c379a00000000000000000000000000000000000000000000000000000000081526004018080602001828103825260208152602001807f4f776e61626c653a2063616c6c6572206973206e6f7420746865206f776e657281525060200191505060405180910390fd5b600073ffffffffffffffffffffffffffffffffffffffff166000809054906101000a900473ffffffffffffffffffffffffffffffffffffffff1673ffffffffffffffffffffffffffffffffffffffff167f8be0079c531659141344cd1fd0a4f28419497f9722a3daafe3b4186f6b6457e060405160405180910390a360008060006101000a81548173ffffffffffffffffffffffffffffffffffffffff021916908373ffffffffffffffffffffffffffffffffffffffff160217905550565b60028054600181600116156101000203166002900480601f0160208091040260200160405190810160405280929190818152602001828054600181600116156101000203166002900480156110725780601f1061104757610100808354040283529160200191611072565b820191906000526020600020905b81548152906001019060200180831161105557829003601f168201915b505050505081565b60095481565b600860009054906101000a900473ffffffffffffffffffffffffffffffffffffffff1681565b60008060009054906101000a900473ffffffffffffffffffffffffffffffffffffffff16905090565b60065481565b6110dd6112e8565b73ffffffffffffffffffffffffffffffffffffffff166000809054906101000a900473ffffffffffffffffffffffffffffffffffffffff1673ffffffffffffffffffffffffffffffffffffffff161461119e576040517f08c379a00000000000000000000000000000000000000000000000000000000081526004018080602001828103825260208152602001807f4f776e61626c653a2063616c6c6572206973206e6f7420746865206f776e657281525060200191505060405180910390fd5b600073ffffffffffffffffffffffffffffffffffffffff168173ffffffffffffffffffffffffffffffffffffffff161415611224576040517f08c379a00000000000000000000000000000000000000000000000000000000081526004018080602001828103825260268152602001806112f16026913960400191505060405180910390fd5b8073ffffffffffffffffffffffffffffffffffffffff166000809054906101000a900473ffffffffffffffffffffffffffffffffffffffff1673ffffffffffffffffffffffffffffffffffffffff167f8be0079c531659141344cd1fd0a4f28419497f9722a3daafe3b4186f6b6457e060405160405180910390a3806000806101000a81548173ffffffffffffffffffffffffffffffffffffffff021916908373ffffffffffffffffffffffffffffffffffffffff16021790555050565b60075481565b60003390509056fe4f776e61626c653a206e6577206f776e657220697320746865207a65726f206164647265737363616e6e6f74207265736f6c766520756e74696c2061756374696f6e2068617320656e646564626964646572206d75737420686176652077697468647261776e20616e792070726576696f75732062696473626964206d757374206f66666572206c6f77657220696e7465726573742072617465207468616e2063757272656e742077696e6e696e6720626964a26469706673582212200b0b3d7e0d21608c6f62429a527163a8d7eed103dd2b4c9965cdd1a6ea1d397164736f6c634300060000334f776e61626c653a206e6577206f776e657220697320746865207a65726f2061646472657373a26469706673582212202ac3d5c3641a7e358adf3eeb6ccfd1c0b4182946f59f2c97210767b85ba5160c64736f6c63430006000033",
  "source": "pragma solidity >0.4.23 <0.7.0;\n\nimport \"./Auction.sol\";\n\ncontract AuctionFactory {\n  Auction[] public _auctions;\n\n  event AuctionCreated(Auction indexed auction, address indexed owner);\n\n  function createAuction(\n    string memory _name,\n    string memory _description,\n    uint256 _loanAmount,\n    uint256 _loanDuration,\n    uint256 _auctionPeriod\n  )\n    public\n  {\n    Auction auction = new Auction(\n      _name,\n      _description,\n      _loanAmount,\n      _loanDuration,\n      _auctionPeriod,\n      msg.sender\n    );\n    _auctions.push(auction);\n    emit AuctionCreated(auction, msg.sender);\n  }\n}\n",
  "sourcePath": "/Users/FinnHarman/Google Drive/Computing Science/Individual Project/Code/LoanCoin/contracts/AuctionFactory.sol",
  "compiler": {
    "name": "solc",
    "version": "0.6.0+commit.26b70077.Emscripten.clang"
  },
  "schemaVersion": "3.2.0",
  "updatedAt": "2020-07-08T16:26:05.871Z",
  "networkType": "ethereum",
  "devdoc": {
    "methods": {}
  },
  "userdoc": {
    "methods": {}
  }
}