{
  "contractName": "ISA",
  "abi": [
    {
      "inputs": [
        {
          "internalType": "address payable",
          "name": "_lenderAddress",
          "type": "address"
        },
        {
          "internalType": "address payable",
          "name": "_borrowerAddress",
          "type": "address"
        },
        {
          "internalType": "uint256",
          "name": "_isaAmount",
          "type": "uint256"
        },
        {
          "internalType": "uint256",
          "name": "_incomePercentage",
          "type": "uint256"
        },
        {
          "internalType": "uint256",
          "name": "_timePeriod",
          "type": "uint256"
        },
        {
          "internalType": "uint256",
          "name": "_minimumIncome",
          "type": "uint256"
        },
        {
          "internalType": "uint256",
          "name": "_paymentCap",
          "type": "uint256"
        },
        {
          "internalType": "string",
          "name": "_symbol",
          "type": "string"
        },
        {
          "internalType": "contract Regulator",
          "name": "_regulator",
          "type": "address"
        }
      ],
      "stateMutability": "nonpayable",
      "type": "constructor"
    },
    {
      "anonymous": false,
      "inputs": [
        {
          "indexed": true,
          "internalType": "address",
          "name": "owner",
          "type": "address"
        },
        {
          "indexed": true,
          "internalType": "address",
          "name": "spender",
          "type": "address"
        },
        {
          "indexed": false,
          "internalType": "uint256",
          "name": "value",
          "type": "uint256"
        }
      ],
      "name": "Approval",
      "type": "event"
    },
    {
      "anonymous": false,
      "inputs": [
        {
          "indexed": false,
          "internalType": "address",
          "name": "lenderAddress",
          "type": "address"
        },
        {
          "indexed": false,
          "internalType": "address",
          "name": "borrowerAddress",
          "type": "address"
        },
        {
          "indexed": false,
          "internalType": "uint256",
          "name": "isaAmount",
          "type": "uint256"
        },
        {
          "indexed": false,
          "internalType": "uint256",
          "name": "incomePercentage",
          "type": "uint256"
        },
        {
          "indexed": false,
          "internalType": "uint256",
          "name": "timePeriod",
          "type": "uint256"
        },
        {
          "indexed": false,
          "internalType": "uint256",
          "name": "minimumIncome",
          "type": "uint256"
        },
        {
          "indexed": false,
          "internalType": "uint256",
          "name": "paymentCap",
          "type": "uint256"
        },
        {
          "indexed": false,
          "internalType": "string",
          "name": "symbol",
          "type": "string"
        }
      ],
      "name": "ISAStarted",
      "type": "event"
    },
    {
      "anonymous": false,
      "inputs": [
        {
          "indexed": true,
          "internalType": "address",
          "name": "previousOwner",
          "type": "address"
        },
        {
          "indexed": true,
          "internalType": "address",
          "name": "newOwner",
          "type": "address"
        }
      ],
      "name": "OwnershipTransferred",
      "type": "event"
    },
    {
      "anonymous": false,
      "inputs": [
        {
          "indexed": true,
          "internalType": "address",
          "name": "from",
          "type": "address"
        },
        {
          "indexed": true,
          "internalType": "address",
          "name": "to",
          "type": "address"
        },
        {
          "indexed": false,
          "internalType": "uint256",
          "name": "value",
          "type": "uint256"
        }
      ],
      "name": "Transfer",
      "type": "event"
    },
    {
      "inputs": [],
      "name": "borrowerAddress",
      "outputs": [
        {
          "internalType": "address payable",
          "name": "",
          "type": "address"
        }
      ],
      "stateMutability": "view",
      "type": "function"
    },
    {
      "inputs": [],
      "name": "endTime",
      "outputs": [
        {
          "internalType": "uint256",
          "name": "",
          "type": "uint256"
        }
      ],
      "stateMutability": "view",
      "type": "function"
    },
    {
      "inputs": [],
      "name": "ended",
      "outputs": [
        {
          "internalType": "bool",
          "name": "",
          "type": "bool"
        }
      ],
      "stateMutability": "view",
      "type": "function"
    },
    {
      "inputs": [],
      "name": "incomePercentage",
      "outputs": [
        {
          "internalType": "uint256",
          "name": "",
          "type": "uint256"
        }
      ],
      "stateMutability": "view",
      "type": "function"
    },
    {
      "inputs": [],
      "name": "initialLenderAddress",
      "outputs": [
        {
          "internalType": "address payable",
          "name": "",
          "type": "address"
        }
      ],
      "stateMutability": "view",
      "type": "function"
    },
    {
      "inputs": [],
      "name": "isaAmount",
      "outputs": [
        {
          "internalType": "uint256",
          "name": "",
          "type": "uint256"
        }
      ],
      "stateMutability": "view",
      "type": "function"
    },
    {
      "inputs": [
        {
          "internalType": "uint256",
          "name": "",
          "type": "uint256"
        }
      ],
      "name": "lenders",
      "outputs": [
        {
          "internalType": "address payable",
          "name": "",
          "type": "address"
        }
      ],
      "stateMutability": "view",
      "type": "function"
    },
    {
      "inputs": [],
      "name": "minimumIncome",
      "outputs": [
        {
          "internalType": "uint256",
          "name": "",
          "type": "uint256"
        }
      ],
      "stateMutability": "view",
      "type": "function"
    },
    {
      "inputs": [],
      "name": "owner",
      "outputs": [
        {
          "internalType": "address",
          "name": "",
          "type": "address"
        }
      ],
      "stateMutability": "view",
      "type": "function"
    },
    {
      "inputs": [],
      "name": "paymentCap",
      "outputs": [
        {
          "internalType": "uint256",
          "name": "",
          "type": "uint256"
        }
      ],
      "stateMutability": "view",
      "type": "function"
    },
    {
      "inputs": [],
      "name": "renounceOwnership",
      "outputs": [],
      "stateMutability": "nonpayable",
      "type": "function"
    },
    {
      "inputs": [
        {
          "internalType": "uint256",
          "name": "",
          "type": "uint256"
        }
      ],
      "name": "requests",
      "outputs": [
        {
          "internalType": "address payable",
          "name": "from",
          "type": "address"
        },
        {
          "internalType": "address",
          "name": "to",
          "type": "address"
        },
        {
          "internalType": "uint256",
          "name": "tokenAmount",
          "type": "uint256"
        },
        {
          "internalType": "uint256",
          "name": "etherAmount",
          "type": "uint256"
        },
        {
          "internalType": "bool",
          "name": "agreed",
          "type": "bool"
        },
        {
          "internalType": "bool",
          "name": "signed",
          "type": "bool"
        },
        {
          "internalType": "bool",
          "name": "completed",
          "type": "bool"
        }
      ],
      "stateMutability": "view",
      "type": "function"
    },
    {
      "inputs": [],
      "name": "signed",
      "outputs": [
        {
          "internalType": "bool",
          "name": "",
          "type": "bool"
        }
      ],
      "stateMutability": "view",
      "type": "function"
    },
    {
      "inputs": [],
      "name": "startTime",
      "outputs": [
        {
          "internalType": "uint256",
          "name": "",
          "type": "uint256"
        }
      ],
      "stateMutability": "view",
      "type": "function"
    },
    {
      "inputs": [],
      "name": "started",
      "outputs": [
        {
          "internalType": "bool",
          "name": "",
          "type": "bool"
        }
      ],
      "stateMutability": "view",
      "type": "function"
    },
    {
      "inputs": [],
      "name": "symbol",
      "outputs": [
        {
          "internalType": "string",
          "name": "",
          "type": "string"
        }
      ],
      "stateMutability": "view",
      "type": "function"
    },
    {
      "inputs": [],
      "name": "timePeriod",
      "outputs": [
        {
          "internalType": "uint256",
          "name": "",
          "type": "uint256"
        }
      ],
      "stateMutability": "view",
      "type": "function"
    },
    {
      "inputs": [],
      "name": "totalPaid",
      "outputs": [
        {
          "internalType": "uint256",
          "name": "",
          "type": "uint256"
        }
      ],
      "stateMutability": "view",
      "type": "function"
    },
    {
      "inputs": [
        {
          "internalType": "address",
          "name": "newOwner",
          "type": "address"
        }
      ],
      "name": "transferOwnership",
      "outputs": [],
      "stateMutability": "nonpayable",
      "type": "function"
    },
    {
      "inputs": [],
      "name": "transferRequested",
      "outputs": [
        {
          "internalType": "bool",
          "name": "",
          "type": "bool"
        }
      ],
      "stateMutability": "view",
      "type": "function"
    },
    {
      "inputs": [
        {
          "internalType": "address payable",
          "name": "account",
          "type": "address"
        }
      ],
      "name": "isLender",
      "outputs": [
        {
          "internalType": "bool",
          "name": "",
          "type": "bool"
        }
      ],
      "stateMutability": "view",
      "type": "function"
    },
    {
      "inputs": [
        {
          "internalType": "address",
          "name": "account",
          "type": "address"
        }
      ],
      "name": "isBorrower",
      "outputs": [
        {
          "internalType": "bool",
          "name": "",
          "type": "bool"
        }
      ],
      "stateMutability": "view",
      "type": "function"
    },
    {
      "inputs": [],
      "name": "startISA",
      "outputs": [],
      "stateMutability": "payable",
      "type": "function"
    },
    {
      "inputs": [],
      "name": "payIncome",
      "outputs": [],
      "stateMutability": "payable",
      "type": "function"
    },
    {
      "inputs": [],
      "name": "buyoutISA",
      "outputs": [],
      "stateMutability": "payable",
      "type": "function"
    },
    {
      "inputs": [],
      "name": "buyoutAmount",
      "outputs": [
        {
          "internalType": "uint256",
          "name": "",
          "type": "uint256"
        }
      ],
      "stateMutability": "view",
      "type": "function"
    },
    {
      "inputs": [],
      "name": "timeLeft",
      "outputs": [
        {
          "internalType": "uint256",
          "name": "",
          "type": "uint256"
        }
      ],
      "stateMutability": "view",
      "type": "function"
    },
    {
      "inputs": [],
      "name": "totalSupply",
      "outputs": [
        {
          "internalType": "uint256",
          "name": "",
          "type": "uint256"
        }
      ],
      "stateMutability": "view",
      "type": "function"
    },
    {
      "inputs": [
        {
          "internalType": "address",
          "name": "account",
          "type": "address"
        }
      ],
      "name": "balanceOf",
      "outputs": [
        {
          "internalType": "uint256",
          "name": "",
          "type": "uint256"
        }
      ],
      "stateMutability": "view",
      "type": "function"
    },
    {
      "inputs": [],
      "name": "getRequestCount",
      "outputs": [
        {
          "internalType": "uint256",
          "name": "",
          "type": "uint256"
        }
      ],
      "stateMutability": "view",
      "type": "function"
    },
    {
      "inputs": [
        {
          "internalType": "uint256",
          "name": "index",
          "type": "uint256"
        }
      ],
      "name": "agree",
      "outputs": [],
      "stateMutability": "nonpayable",
      "type": "function"
    },
    {
      "inputs": [],
      "name": "sign",
      "outputs": [],
      "stateMutability": "nonpayable",
      "type": "function"
    },
    {
      "inputs": [
        {
          "internalType": "uint256",
          "name": "index",
          "type": "uint256"
        }
      ],
      "name": "sign",
      "outputs": [],
      "stateMutability": "nonpayable",
      "type": "function"
    },
    {
      "inputs": [
        {
          "internalType": "uint256",
          "name": "index",
          "type": "uint256"
        }
      ],
      "name": "complete",
      "outputs": [],
      "stateMutability": "nonpayable",
      "type": "function"
    },
    {
      "inputs": [
        {
          "internalType": "address",
          "name": "recipient",
          "type": "address"
        },
        {
          "internalType": "uint256",
          "name": "tokenAmount",
          "type": "uint256"
        },
        {
          "internalType": "uint256",
          "name": "etherAmount",
          "type": "uint256"
        }
      ],
      "name": "requestTransfer",
      "outputs": [],
      "stateMutability": "nonpayable",
      "type": "function"
    },
    {
      "inputs": [
        {
          "internalType": "address",
          "name": "to",
          "type": "address"
        },
        {
          "internalType": "address payable",
          "name": "from",
          "type": "address"
        },
        {
          "internalType": "uint256",
          "name": "tokenAmount",
          "type": "uint256"
        },
        {
          "internalType": "uint256",
          "name": "etherAmount",
          "type": "uint256"
        }
      ],
      "name": "confirmTransfer",
      "outputs": [],
      "stateMutability": "payable",
      "type": "function"
    },
    {
      "inputs": [
        {
          "internalType": "address",
          "name": "recipient",
          "type": "address"
        },
        {
          "internalType": "uint256",
          "name": "amount",
          "type": "uint256"
        }
      ],
      "name": "transfer",
      "outputs": [
        {
          "internalType": "bool",
          "name": "",
          "type": "bool"
        }
      ],
      "stateMutability": "nonpayable",
      "type": "function"
    },
    {
      "inputs": [
        {
          "internalType": "address",
          "name": "owner",
          "type": "address"
        },
        {
          "internalType": "address",
          "name": "spender",
          "type": "address"
        }
      ],
      "name": "allowance",
      "outputs": [
        {
          "internalType": "uint256",
          "name": "",
          "type": "uint256"
        }
      ],
      "stateMutability": "view",
      "type": "function"
    },
    {
      "inputs": [
        {
          "internalType": "address",
          "name": "spender",
          "type": "address"
        },
        {
          "internalType": "uint256",
          "name": "amount",
          "type": "uint256"
        }
      ],
      "name": "approve",
      "outputs": [
        {
          "internalType": "bool",
          "name": "",
          "type": "bool"
        }
      ],
      "stateMutability": "nonpayable",
      "type": "function"
    },
    {
      "inputs": [
        {
          "internalType": "address",
          "name": "sender",
          "type": "address"
        },
        {
          "internalType": "address",
          "name": "recipient",
          "type": "address"
        },
        {
          "internalType": "uint256",
          "name": "amount",
          "type": "uint256"
        }
      ],
      "name": "transferFrom",
      "outputs": [
        {
          "internalType": "bool",
          "name": "",
          "type": "bool"
        }
      ],
      "stateMutability": "nonpayable",
      "type": "function"
    },
    {
      "inputs": [
        {
          "internalType": "address",
          "name": "from",
          "type": "address"
        },
        {
          "internalType": "address",
          "name": "to",
          "type": "address"
        },
        {
          "internalType": "uint256",
          "name": "value",
          "type": "uint256"
        }
      ],
      "name": "detectTransferRestriction",
      "outputs": [
        {
          "internalType": "uint8",
          "name": "",
          "type": "uint8"
        }
      ],
      "stateMutability": "view",
      "type": "function"
    },
    {
      "inputs": [
        {
          "internalType": "uint8",
          "name": "restrictionCode",
          "type": "uint8"
        }
      ],
      "name": "messageForTransferRestriction",
      "outputs": [
        {
          "internalType": "string",
          "name": "",
          "type": "string"
        }
      ],
      "stateMutability": "view",
      "type": "function"
    }
  ],
  "bytecode": "0x60806040523480156200001157600080fd5b50604051620024ac380380620024ac83398181016040526101208110156200003857600080fd5b815160208301516040808501516060860151608087015160a088015160c089015160e08a0180519651989a9799959894979396929591949391820192846401000000008211156200008857600080fd5b9083019060208201858111156200009e57600080fd5b8251640100000000811182820188101715620000b957600080fd5b82525081516020918201929091019080838360005b83811015620000e8578181015183820152602001620000ce565b50505050905090810190601f168015620001165780820380516001836020036101000a031916815260200191505b5060405260200151915060009050620001376001600160e01b03620003db16565b600080546001600160a01b0319166001600160a01b0383169081178255604051929350917f8be0079c531659141344cd1fd0a4f28419497f9722a3daafe3b4186f6b6457e0908290a350806001600160a01b031663876424498a6040518263ffffffff1660e01b815260040180826001600160a01b03166001600160a01b0316815260200191505060206040518083038186803b158015620001d857600080fd5b505afa158015620001ed573d6000803e3d6000fd5b505050506040513d60208110156200020457600080fd5b50516200021057600080fd5b806001600160a01b03166387642449896040518263ffffffff1660e01b815260040180826001600160a01b03166001600160a01b0316815260200191505060206040518083038186803b1580156200026757600080fd5b505afa1580156200027c573d6000803e3d6000fd5b505050506040513d60208110156200029357600080fd5b50516200029f57600080fd5b60008711620002ad57600080fd5b6064861115620002bc57600080fd5b60008511620002ca57600080fd5b60008411620002d857600080fd5b60008311620002e657600080fd5b838311620002f357600080fd5b600380546001600160a01b03808c166001600160a01b03199283161790925560048054928b169290911691909117905560058790556006869055600785905560088490556009839055815162000351906002906020850190620003e0565b50601380546001600160a01b039283166001600160a01b031991821617909155600354601180546001818101835560009283527f31ecc21a745e3968a04e9570e4425bc18fa8019c68028196b546d1669c200c68909101805490941692909416919091179091556064909155600d555050600a805462ffffff191690555062000482945050505050565b335b90565b828054600181600116156101000203166002900490600052602060002090601f016020900481019282601f106200042357805160ff191683800117855562000453565b8280016001018555821562000453579182015b828111156200045357825182559160200191906001019062000436565b506200046192915062000465565b5090565b620003dd91905b808211156200046157600081556001016200046c565b61201a80620004926000396000f3fe6080604052600436106102d15760003560e01c80637f4ab1dd11610179578063ba111079116100d6578063e8463d141161008a578063f1b79e5311610064578063f1b79e53146108dc578063f2fde38b146108f1578063f606841e14610924576102d1565b8063e8463d1414610858578063e9497b5f14610894578063eaf6e483146108a9576102d1565b8063d4ce1415116100bb578063d4ce1415146107af578063dd62ed3e14610808578063e7b0f66614610843576102d1565b8063ba11107914610785578063c256e2241461079a576102d1565b806395d89b411161012d57806399884ccc1161011257806399884ccc1461072f578063a9059cbb14610744578063b83349601461077d576102d1565b806395d89b41146106f0578063971d852f14610705576102d1565b80638da5cb5b1161015e5780638da5cb5b14610672578063929eea211461068757806392a1f7e8146106b1576102d1565b80637f4ab1dd1461055c57806381d12c58146105fe576102d1565b80633197cbb6116102325780635f73c3ff116101e6578063715018a6116101c0578063715018a61461050157806378e97925146105165780637ba61ea51461052b576102d1565b80635f73c3ff14610493578063709b89611461049b57806370a08231146104ce576102d1565b80633e79d1e1116102175780633e79d1e1146104615780633fad1834146104765780634800f8981461048b576102d1565b80633197cbb614610437578063347775b01461044c576102d1565b80631f2698ab1161028957806323b872dd1161026e57806323b872dd146103b35780632ca15122146103f65780632fb1b25f1461040d576102d1565b80631f2698ab14610389578063232a6b9d1461039e576102d1565b80631300a6d1116102ba5780631300a6d11461033857806318160ddd1461035f5780631829b73f14610374576102d1565b8063095ea7b3146102d657806312fa6feb14610323575b600080fd5b3480156102e257600080fd5b5061030f600480360360408110156102f957600080fd5b506001600160a01b03813516906020013561094e565b604080519115158252519081900360200190f35b34801561032f57600080fd5b5061030f610957565b34801561034457600080fd5b5061034d610966565b60408051918252519081900360200190f35b34801561036b57600080fd5b5061034d6109c2565b34801561038057600080fd5b5061034d6109c8565b34801561039557600080fd5b5061030f610a52565b3480156103aa57600080fd5b5061030f610a60565b3480156103bf57600080fd5b5061030f600480360360608110156103d657600080fd5b506001600160a01b03813581169160208101359091169060400135610a69565b34801561040257600080fd5b5061040b610a72565b005b34801561041957600080fd5b5061040b6004803603602081101561043057600080fd5b5035610a81565b34801561044357600080fd5b5061034d610abb565b34801561045857600080fd5b5061034d610ac1565b34801561046d57600080fd5b5061034d610ac7565b34801561048257600080fd5b5061034d610acd565b61040b610ad3565b61040b610cc4565b3480156104a757600080fd5b5061030f600480360360208110156104be57600080fd5b50356001600160a01b0316610f46565b3480156104da57600080fd5b5061034d600480360360208110156104f157600080fd5b50356001600160a01b0316610fa3565b34801561050d57600080fd5b5061040b610fbe565b34801561052257600080fd5b5061034d61107f565b34801561053757600080fd5b50610540611085565b604080516001600160a01b039092168252519081900360200190f35b34801561056857600080fd5b506105896004803603602081101561057f57600080fd5b503560ff16611094565b6040805160208082528351818301528351919283929083019185019080838360005b838110156105c35781810151838201526020016105ab565b50505050905090810190601f1680156105f05780820380516001836020036101000a031916815260200191505b509250505060405180910390f35b34801561060a57600080fd5b506106286004803603602081101561062157600080fd5b503561112b565b604080516001600160a01b03988916815296909716602087015285870194909452606085019290925215156080840152151560a0830152151560c082015290519081900360e00190f35b34801561067e57600080fd5b5061054061118b565b34801561069357600080fd5b50610540600480360360208110156106aa57600080fd5b503561119a565b3480156106bd57600080fd5b5061040b600480360360608110156106d457600080fd5b506001600160a01b0381351690602081013590604001356111c1565b3480156106fc57600080fd5b5061058961143c565b34801561071157600080fd5b5061040b6004803603602081101561072857600080fd5b50356114c7565b34801561073b57600080fd5b5061030f611501565b34801561075057600080fd5b5061030f6004803603604081101561076757600080fd5b506001600160a01b03813516906020013561150a565b61040b6115bf565b34801561079157600080fd5b5061034d611876565b3480156107a657600080fd5b5061054061187c565b3480156107bb57600080fd5b506107f2600480360360608110156107d257600080fd5b506001600160a01b0381358116916020810135909116906040013561188b565b6040805160ff9092168252519081900360200190f35b34801561081457600080fd5b5061034d6004803603604081101561082b57600080fd5b506001600160a01b0381358116916020013516611956565b34801561084f57600080fd5b5061034d611981565b61040b6004803603608081101561086e57600080fd5b506001600160a01b03813581169160208101359091169060408101359060600135611987565b3480156108a057600080fd5b5061034d611b40565b3480156108b557600080fd5b5061030f600480360360208110156108cc57600080fd5b50356001600160a01b0316611b46565b3480156108e857600080fd5b5061034d611b6f565b3480156108fd57600080fd5b5061040b6004803603602081101561091457600080fd5b50356001600160a01b0316611b75565b34801561093057600080fd5b5061040b6004803603602081101561094757600080fd5b5035611c8c565b60015b92915050565b600a5462010000900460ff1681565b600a5460009062010000900460ff16156109b8576040805162461bcd60e51b815260206004820152600e60248201526d4953412068617320656e6465642160901b604482015290519081900360640190fd5b42600c5403905090565b60015490565b600a5460009062010000900460ff1615610a1a576040805162461bcd60e51b815260206004820152600e60248201526d4953412068617320656e6465642160901b604482015290519081900360640190fd5b6000610a486001610a3c62093a80610a30610966565b9063ffffffff611cc016565b9063ffffffff611d0916565b6009540291505090565b600a54610100900460ff1681565b600a5460ff1681565b60019392505050565b600a805460ff19166001179055565b600160128281548110610a9057fe5b906000526020600020906005020160040160016101000a81548160ff02191690831515021790555050565b600c5481565b60095481565b60075481565b60125490565b6003546001600160a01b03163314610b32576040805162461bcd60e51b815260206004820152601960248201527f6f6e6c79206c656e6465722063616e2073746172742049534100000000000000604482015290519081900360640190fd5b6005544714610b88576040805162461bcd60e51b815260206004820152601260248201527f495341206d7573742062652066756e6465640000000000000000000000000000604482015290519081900360640190fd5b6005543414610bde576040805162461bcd60e51b815260206004820152601260248201527f495341206d7573742062652066756e6465640000000000000000000000000000604482015290519081900360640190fd5b600a5460ff161515600114610c3a576040805162461bcd60e51b815260206004820152601d60248201527f6c6567616c20636f6e7472616374206d757374206265207369676e6564000000604482015290519081900360640190fd5b6001546003546001600160a01b03166000908152600f6020526040902055600a805461ff00191661010017905542600b819055600754610c85919062093a800263ffffffff611d0916565b600c556004546040516001600160a01b03909116903480156108fc02916000818181858888f19350505050158015610cc1573d6000803e3d6000fd5b50565b600a5462010000900460ff1615610d13576040805162461bcd60e51b815260206004820152600e60248201526d4953412068617320656e6465642160901b604482015290519081900360640190fd5b6004546001600160a01b03163314610d72576040805162461bcd60e51b815260206004820152601c60248201527f6f6e6c7920626f72726f7765722063616e206275796f75742049534100000000604482015290519081900360640190fd5b610d7a6109c8565b3414610dcd576040805162461bcd60e51b815260206004820152601960248201527f7472616e73666572206d7573742066756e64206275796f757400000000000000604482015290519081900360640190fd5b344714610e21576040805162461bcd60e51b815260206004820152601960248201527f7472616e73666572206d7573742066756e64206275796f757400000000000000604482015290519081900360640190fd5b600d54610e34903463ffffffff611d0916565b600d55600a805462ff000019166201000017905560005b601154811015610cc1576000600f600060118481548110610e6857fe5b60009182526020808320909101546001600160a01b0316835282019290925260400181209190915560015460118054610eed9291610ee191600f91869188908110610eaf57fe5b60009182526020808320909101546001600160a01b03168352820192909252604001902054349063ffffffff611cc016565b9063ffffffff611d6316565b905060118281548110610efc57fe5b60009182526020822001546040516001600160a01b039091169183156108fc02918491818181858888f19350505050158015610f3c573d6000803e3d6000fd5b5050600101610e4b565b6000805b601154811015610f9857826001600160a01b031660118281548110610f6b57fe5b6000918252602090912001546001600160a01b03161415610f90576001915050610f9e565b600101610f4a565b50600090505b919050565b6001600160a01b03166000908152600f602052604090205490565b610fc6611dbc565b6000546001600160a01b03908116911614611028576040805162461bcd60e51b815260206004820181905260248201527f4f776e61626c653a2063616c6c6572206973206e6f7420746865206f776e6572604482015290519081900360640190fd5b600080546040516001600160a01b03909116907f8be0079c531659141344cd1fd0a4f28419497f9722a3daafe3b4186f6b6457e0908390a36000805473ffffffffffffffffffffffffffffffffffffffff19169055565b600b5481565b6004546001600160a01b031681565b60608160ff16600114156110df576040518060400160405280602081526020017f546f6b656e2073656e646572732062616c616e636520697320746f6f206c6f778152509050610f9e565b8160ff166002141561110b57604051806060016040528060338152602001611fb2603391399050610f9e565b604051806080016040528060438152602001611f6f604391399050610f9e565b6012818154811061113857fe5b6000918252602090912060059091020180546001820154600283015460038401546004909401546001600160a01b03938416955091909216929060ff808216916101008104821691620100009091041687565b6000546001600160a01b031690565b601181815481106111a757fe5b6000918252602090912001546001600160a01b0316905081565b600a5462010000900460ff1615611210576040805162461bcd60e51b815260206004820152600e60248201526d4953412068617320656e6465642160901b604482015290519081900360640190fd5b338383600061122084848461188b565b905060ff81161561123082611094565b906112b95760405162461bcd60e51b81526004018080602001828103825283818151815260200191508051906020019080838360005b8381101561127e578181015183820152602001611266565b50505050905090810190601f1680156112ab5780820380516001836020036101000a031916815260200191505b509250505060405180910390fd5b506112c2611ec1565b3381526001600160a01b0397881660208201908152604082019788526060820196875260006080830181815260a0840182815260c08501838152601280546001810182559452945160059093027fbb8a6a4669ba250d26cd7a459eca9d215f8307e33aebe50379bc5a3617ec344481018054948e1673ffffffffffffffffffffffffffffffffffffffff1995861617905593517fbb8a6a4669ba250d26cd7a459eca9d215f8307e33aebe50379bc5a3617ec34458501805491909d16931692909217909a5597517fbb8a6a4669ba250d26cd7a459eca9d215f8307e33aebe50379bc5a3617ec344682015595517fbb8a6a4669ba250d26cd7a459eca9d215f8307e33aebe50379bc5a3617ec344787015596517fbb8a6a4669ba250d26cd7a459eca9d215f8307e33aebe50379bc5a3617ec34489095018054965197511515620100000262ff0000199815156101000261ff001997151560ff19909916989098179690961696909617969096169390931790935550505050565b6002805460408051602060018416156101000260001901909316849004601f810184900484028201840190925281815292918301828280156114bf5780601f10611494576101008083540402835291602001916114bf565b820191906000526020600020905b8154815290600101906020018083116114a257829003601f168201915b505050505081565b6001601282815481106114d657fe5b906000526020600020906005020160040160026101000a81548160ff02191690831515021790555050565b600e5460ff1681565b6001600160a01b0382166000908152600f6020526040812054611533908363ffffffff611d0916565b6001600160a01b0384166000908152600f6020526040808220929092553381522054611565908363ffffffff611dc016565b336000818152600f602090815260409182902093909355805185815290516001600160a01b038716937fddf252ad1be2c89b69c2b068fc378daa952ba7f163c4a11628f55a4df523b3ef928290030190a350600192915050565b600a5462010000900460ff161561160e576040805162461bcd60e51b815260206004820152600e60248201526d4953412068617320656e6465642160901b604482015290519081900360640190fd5b6004546001600160a01b0316331461166d576040805162461bcd60e51b815260206004820152601e60248201527f6f6e6c7920626f72726f7765722063616e2070617920696e746f204953410000604482015290519081900360640190fd5b3447146116c1576040805162461bcd60e51b815260206004820152601660248201527f7472616e73666572206d7573742066756e642049534100000000000000000000604482015290519081900360640190fd5b6116dd6064610a30600654600854611d6390919063ffffffff16565b34101561171b5760405162461bcd60e51b815260040180806020018281038252602a815260200180611f24602a913960400191505060405180910390fd5b600a5460ff61010090910416151560011461177d576040805162461bcd60e51b815260206004820152601560248201527f495341206d757374206861766520737461727465640000000000000000000000604482015290519081900360640190fd5b600654600954349161179c91606491610a30919063ffffffff611d6316565b8111156117a857506009545b600d546117bb903463ffffffff611d0916565b600d5560005b601154811015611872576000611819600154610a30600f6000601187815481106117e757fe5b60009182526020808320909101546001600160a01b03168352820192909252604001902054869063ffffffff611d6316565b90506011828154811061182857fe5b60009182526020822001546040516001600160a01b039091169183156108fc02918491818181858888f19350505050158015611868573d6000803e3d6000fd5b50506001016117c1565b5050565b60055481565b6003546001600160a01b031681565b336000908152600f602052604081205481908311156118a8575060015b600083116118b4575060025b601354604080517f876424490000000000000000000000000000000000000000000000000000000081526001600160a01b038781166004830152915191909216916387642449916024808301926020929190829003018186803b15801561191a57600080fd5b505afa15801561192e573d6000803e3d6000fd5b505050506040513d602081101561194457600080fd5b505161194e575060035b949350505050565b6001600160a01b03918216600090815260106020908152604080832093909416825291909152205490565b600d5481565b600a5462010000900460ff16156119d6576040805162461bcd60e51b815260206004820152600e60248201526d4953412068617320656e6465642160901b604482015290519081900360640190fd5b336001600160a01b038516146119eb57600080fd5b803414611a3f576040805162461bcd60e51b815260206004820152601760248201527f7472616e73666572206d7573742062652066756e646564000000000000000000604482015290519081900360640190fd5b344714611a93576040805162461bcd60e51b815260206004820152601760248201527f7472616e73666572206d7573742062652066756e646564000000000000000000604482015290519081900360640190fd5b6001600160a01b0384166000908152600f6020526040902054611abc908363ffffffff611d0916565b6001600160a01b038086166000908152600f60205260408082209390935590851681522054611af1908363ffffffff611dc016565b6001600160a01b0384166000818152600f602052604080822093909355915190913480156108fc02929091818181858888f19350505050158015611b39573d6000803e3d6000fd5b5050505050565b60065481565b6004546000906001600160a01b0383811691161415611b6757506001610f9e565b506000919050565b60085481565b611b7d611dbc565b6000546001600160a01b03908116911614611bdf576040805162461bcd60e51b815260206004820181905260248201527f4f776e61626c653a2063616c6c6572206973206e6f7420746865206f776e6572604482015290519081900360640190fd5b6001600160a01b038116611c245760405162461bcd60e51b8152600401808060200182810382526026815260200180611efe6026913960400191505060405180910390fd5b600080546040516001600160a01b03808516939216917f8be0079c531659141344cd1fd0a4f28419497f9722a3daafe3b4186f6b6457e091a36000805473ffffffffffffffffffffffffffffffffffffffff19166001600160a01b0392909216919091179055565b600160128281548110611c9b57fe5b60009182526020909120600590910201600401805460ff191691151591909117905550565b6000611d0283836040518060400160405280601a81526020017f536166654d6174683a206469766973696f6e206279207a65726f000000000000815250611e02565b9392505050565b600082820183811015611d02576040805162461bcd60e51b815260206004820152601b60248201527f536166654d6174683a206164646974696f6e206f766572666c6f770000000000604482015290519081900360640190fd5b600082611d7257506000610951565b82820282848281611d7f57fe5b0414611d025760405162461bcd60e51b8152600401808060200182810382526021815260200180611f4e6021913960400191505060405180910390fd5b3390565b6000611d0283836040518060400160405280601e81526020017f536166654d6174683a207375627472616374696f6e206f766572666c6f770000815250611e67565b60008183611e515760405162461bcd60e51b815260206004820181815283516024840152835190928392604490910191908501908083836000831561127e578181015183820152602001611266565b506000838581611e5d57fe5b0495945050505050565b60008184841115611eb95760405162461bcd60e51b815260206004820181815283516024840152835190928392604490910191908501908083836000831561127e578181015183820152602001611266565b505050900390565b6040805160e081018252600080825260208201819052918101829052606081018290526080810182905260a0810182905260c08101919091529056fe4f776e61626c653a206e6577206f776e657220697320746865207a65726f2061646472657373696e636f6d65206d7573742062652067726561746572207468616e206d696e696d756d20696e636f6d65536166654d6174683a206d756c7469706c69636174696f6e206f766572666c6f774164647265737320746f6b656e7320617265207472616e7366657272656420746f206d7573742062652072656769737465726564207769746820526567756c61746f724e756d626572206f6620746f6b656e7320746f207472616e73666572206d7573742062652067726561746572207468616e2030a26469706673582212209bb1842147c4aee43405c24bd8865fec5d32cc2e505e9472d7f1f8bdf3932f2764736f6c63430006010033",
  "source": "pragma solidity >0.4.23 <0.7.0;\n\nimport \"openzeppelin-solidity/contracts/math/SafeMath.sol\";\nimport \"openzeppelin-solidity/contracts/access/Ownable.sol\";\nimport \"openzeppelin-solidity/contracts/token/ERC20/IERC20.sol\";\n\nimport \"./Regulator.sol\";\n\n/// @notice An ERC1404 token representing an Income Sharing Agreement\ncontract ISA is IERC20, Ownable {\n  using SafeMath for uint256;\n\n  uint256 private _totalSupply;\n\n  string public symbol;\n  address payable public initialLenderAddress;\n  address payable public borrowerAddress;\n  uint256 public isaAmount;\n  uint256 public incomePercentage;\n  uint256 public timePeriod;\n  uint256 public minimumIncome;\n  uint256 public paymentCap;\n  bool public signed;\n  bool public started;\n  bool public ended;\n  uint256 public startTime;\n  uint256 public endTime;\n  uint256 public totalPaid;\n  bool public transferRequested;\n\n  mapping (address => uint256) private _balances;\n  mapping (address => mapping (address => uint256)) private _allowances;\n  address payable[] public lenders;\n  Request[] public requests;\n\n  Regulator private regulator;\n\n  event ISAStarted(address lenderAddress, address borrowerAddress,\n    uint256 isaAmount, uint256 incomePercentage, uint256 timePeriod,\n    uint256 minimumIncome, uint256 paymentCap, string symbol);\n\n  /**\n   * @dev Sets the value for {symbol}, initializes {_totalSupply} with\n   * a default value of 100.\n   *\n   * Both of these values are immutable: they can only be set once during\n   * construction.\n   */\n  constructor(\n    address payable _lenderAddress,\n    address payable _borrowerAddress,\n    uint256 _isaAmount,\n    uint256 _incomePercentage,\n    uint256 _timePeriod,\n    uint256 _minimumIncome,\n    uint256 _paymentCap,\n    string memory _symbol,\n    Regulator _regulator\n  )\n    public\n  {\n    require(_regulator.getConfirmedAddress(_lenderAddress));\n    require(_regulator.getConfirmedAddress(_borrowerAddress));\n    require(_isaAmount > 0);\n    require(_incomePercentage >= 0);\n    require(_incomePercentage <= 100);\n    require(_timePeriod > 0);\n    require(_minimumIncome > 0);\n    require(_paymentCap > 0);\n    require(_paymentCap > _minimumIncome);\n\n    initialLenderAddress = _lenderAddress;\n    borrowerAddress = _borrowerAddress;\n    isaAmount = _isaAmount;\n    incomePercentage = _incomePercentage;\n    timePeriod = _timePeriod;\n    minimumIncome = _minimumIncome;\n    paymentCap = _paymentCap;\n    symbol = _symbol;\n    regulator = _regulator;\n\n    lenders.push(initialLenderAddress);\n    _totalSupply = 100;\n    totalPaid = 0;\n    signed = false;\n    started = false;\n    ended = false;\n  }\n\n  function isLender(address payable account) public view returns(bool) {\n    for (uint256 i = 0 ; i < lenders.length ; i++) {\n      if (lenders[i] == account) {\n        return true;\n      }\n    }\n    return false;\n  }\n\n  function isBorrower(address account) public view returns(bool) {\n    if (borrowerAddress == account) {\n      return true;\n    }\n    return false;\n  }\n\n  function startISA() public payable {\n    require(msg.sender == initialLenderAddress, \"only lender can start ISA\");\n    require(address(this).balance == isaAmount, \"ISA must be funded\");\n    require(msg.value == isaAmount, \"ISA must be funded\");\n    require(signed == true, \"legal contract must be signed\");\n\n    _balances[initialLenderAddress] = _totalSupply;\n    started = true;\n    startTime = now;\n    endTime = now.add(timePeriod * 1 weeks);\n\n    borrowerAddress.transfer(msg.value);\n  }\n\n  function payIncome() public payable notEnded {\n    require(msg.sender == borrowerAddress, \"only borrower can pay into ISA\");\n    require(address(this).balance == msg.value, \"transfer must fund ISA\");\n    require(msg.value >= minimumIncome.mul(incomePercentage).div(100), \"income must be greater than minimum income\");\n    require(started == true, \"ISA must have started\");\n\n    uint256 value = msg.value;\n    if (value > paymentCap.mul(incomePercentage).div(100)) {\n      value = paymentCap;\n    }\n\n    totalPaid = totalPaid.add(msg.value);\n\n    for (uint256 i = 0 ; i < lenders.length ; i++) {\n      uint256 amount = value.mul(_balances[lenders[i]]).div(_totalSupply);\n      lenders[i].transfer(amount);\n    }\n  }\n\n  function buyoutISA() public payable notEnded {\n    require(msg.sender == borrowerAddress, \"only borrower can buyout ISA\");\n    require(msg.value == buyoutAmount(), \"transfer must fund buyout\");\n    require(address(this).balance == msg.value, \"transfer must fund buyout\");\n\n\n    totalPaid = totalPaid.add(msg.value);\n    ended = true;\n\n    for (uint256 i = 0 ; i < lenders.length ; i++) {\n      _balances[lenders[i]] = 0;\n      uint256 amount = msg.value.div(_balances[lenders[i]]).mul(_totalSupply);\n      lenders[i].transfer(amount);\n    }\n  }\n\n  function buyoutAmount() public view notEnded returns (uint256)  {\n    uint256 weeksLeft = (timeLeft().div(1 weeks)).add(1);\n    uint256 amount = paymentCap * weeksLeft;\n    return amount;\n  }\n\n  function timeLeft() public view notEnded returns (uint256)  {\n    return endTime - now;\n  }\n\n  function sign() public {\n    signed = true;\n  }\n\n  modifier notEnded {\n    require (!ended, \"ISA has ended!\");\n    _;\n  }\n\n  modifier onlyRegulator {\n    require (msg.sender == regulator.owner(), \"Only Regulator can call this function\");\n    _;\n  }\n\n  /**\n  * @dev Returns total supply of tokens\n  */\n  function totalSupply() public view override returns (uint256) {\n    return _totalSupply;\n  }\n\n\n  /**\n   * @dev Returns the amount of tokens owned by `account`.\n   */\n  function balanceOf(address account) external view override returns (uint256) {\n    return _balances[account];\n  }\n\n  struct Request {\n    address payable from;\n    address to;\n    uint256 tokenAmount;\n    uint256 etherAmount;\n    bool agreed;\n    bool signed;\n    bool completed;\n  }\n\n  function getRequestCount() external view returns (uint256) {\n    return requests.length;\n  }\n\n  function agree(uint256 index) external {\n    requests[index].agreed = true;\n  }\n\n  function sign(uint256 index) external {\n    requests[index].signed = true;\n  }\n\n  function complete(uint256 index) external {\n    requests[index].completed = true;\n  }\n\n  modifier notRestricted(address from, address to, uint256 value) {\n    uint8 restrictionCode = detectTransferRestriction(from, to, value);\n    require(restrictionCode == 0, messageForTransferRestriction(restrictionCode));\n    _;\n  }\n\n  function requestTransfer(address recipient, uint256 tokenAmount, uint256 etherAmount)\n    external\n    notEnded\n    notRestricted(msg.sender, recipient, tokenAmount)\n  {\n    Request memory newRequest;\n    newRequest.from = msg.sender;\n    newRequest.to = recipient;\n    newRequest.tokenAmount = tokenAmount;\n    newRequest.etherAmount = etherAmount;\n    newRequest.agreed = false;\n    newRequest.signed = false;\n    newRequest.completed = false;\n\n    requests.push(newRequest);\n  }\n\n  function confirmTransfer(address to, address payable from, uint256 tokenAmount, uint256 etherAmount) public payable notEnded {\n    require(msg.sender == to);\n    require(msg.value == etherAmount, \"transfer must be funded\");\n    require(address(this).balance == msg.value, \"transfer must be funded\");\n\n    _balances[to] = _balances[to].add(tokenAmount);\n    _balances[from] = _balances[from].sub(tokenAmount);\n\n    from.transfer(msg.value);\n  }\n\n  /**\n   * @dev Moves `amount` tokens from the caller's account to `recipient`.\n   *\n   * Returns a boolean value indicating whether the operation succeeded.\n   *\n   * Emits a {Transfer} event.\n   */\n  function transfer(address recipient, uint256 amount) external override returns (bool) {\n    _balances[recipient] = _balances[recipient].add(amount);\n    _balances[msg.sender] = _balances[msg.sender].sub(amount);\n\n    emit Transfer(msg.sender, recipient, amount);\n\n    return true;\n  }\n\n  /**\n   * @dev Returns the remaining number of tokens that `spender` will be\n   * allowed to spend on behalf of `owner` through {transferFrom}. This is\n   * zero by default.\n   *\n   * This value changes when {approve} or {transferFrom} are called.\n   */\n  function allowance(address owner, address spender) external view override returns (uint256) {\n    return _allowances[owner][spender];\n  }\n\n  /**\n   * @dev Sets `amount` as the allowance of `spender` over the caller's tokens.\n   *\n   * Returns a boolean value indicating whether the operation succeeded.\n   *\n   * IMPORTANT: Beware that changing an allowance with this method brings the risk\n   * that someone may use both the old and the new allowance by unfortunate\n   * transaction ordering. One possible solution to mitigate this race\n   * condition is to first reduce the spender's allowance to 0 and set the\n   * desired value afterwards:\n   * https://github.com/ethereum/EIPs/issues/20#issuecomment-263524729\n   *\n   * Emits an {Approval} event.\n   */\n  function approve(address spender, uint256 amount) external override returns (bool) {\n    return true;\n  }\n\n  /**\n   * @dev Moves `amount` tokens from `sender` to `recipient` using the\n   * allowance mechanism. `amount` is then deducted from the caller's\n   * allowance.\n   *\n   * Returns a boolean value indicating whether the operation succeeded.\n   *\n   * Emits a {Transfer} event.\n   */\n  function transferFrom(address sender, address recipient, uint256 amount) external override returns (bool) {\n    return true;\n  }\n\n  /// @notice Detects if a transfer will be reverted and if so returns an appropriate reference code\n  /// @param from Sending address\n  /// @param to Receiving address\n  /// @param value Amount of tokens being transferred\n  /// @return Code by which to reference message for rejection reasoning\n  /// @dev Overwrite with your custom transfer restriction logic\n  function detectTransferRestriction (address from, address to, uint256 value) public view returns (uint8) {\n    uint8 restrictionCode = 0;\n    if (_balances[msg.sender] < value) {\n      restrictionCode = 1;\n    }\n    if (value <= 0) {\n      restrictionCode = 2;\n    }\n    if (!regulator.getConfirmedAddress(to)) {\n      restrictionCode = 3;\n    }\n    return restrictionCode;\n  }\n\n  /// @notice Returns a human-readable message for a given restriction code\n  /// @param restrictionCode Identifier for looking up a message\n  /// @return Text showing the restriction's reasoning\n  /// @dev Overwrite with your custom message and restrictionCode handling\n  function messageForTransferRestriction (uint8 restrictionCode) public view returns (string memory) {\n    if (restrictionCode == 1) {\n      return \"Token senders balance is too low\";\n    } else if (restrictionCode == 2) {\n      return \"Number of tokens to transfer must be greater than 0\";\n    } else {\n      return \"Address tokens are transferred to must be registered with Regulator\";\n    }\n  }\n}\n",
  "sourcePath": "/Users/FinnHarman/Google Drive/Computing Science/Individual Project/Code/ISA/contracts/ISA.sol",
  "compiler": {
    "name": "solc",
    "version": "0.6.1+commit.e6f7d5a4.Emscripten.clang"
  },
  "schemaVersion": "3.2.3",
  "updatedAt": "2020-09-02T13:30:39.687Z",
  "devdoc": {
    "methods": {
      "allowance(address,address)": {
        "details": "Returns the remaining number of tokens that `spender` will be allowed to spend on behalf of `owner` through {transferFrom}. This is zero by default.   * This value changes when {approve} or {transferFrom} are called."
      },
      "approve(address,uint256)": {
        "details": "Sets `amount` as the allowance of `spender` over the caller's tokens.   * Returns a boolean value indicating whether the operation succeeded.   * IMPORTANT: Beware that changing an allowance with this method brings the risk that someone may use both the old and the new allowance by unfortunate transaction ordering. One possible solution to mitigate this race condition is to first reduce the spender's allowance to 0 and set the desired value afterwards: https://github.com/ethereum/EIPs/issues/20#issuecomment-263524729   * Emits an {Approval} event."
      },
      "balanceOf(address)": {
        "details": "Returns the amount of tokens owned by `account`."
      },
      "constructor": {
        "details": "Sets the value for {symbol}, initializes {_totalSupply} with a default value of 100.   * Both of these values are immutable: they can only be set once during construction."
      },
      "detectTransferRestriction(address,address,uint256)": {
        "details": "Overwrite with your custom transfer restriction logic",
        "params": {
          "from": "Sending address",
          "to": "Receiving address",
          "value": "Amount of tokens being transferred"
        },
        "returns": {
          "_0": "Code by which to reference message for rejection reasoning"
        }
      },
      "messageForTransferRestriction(uint8)": {
        "details": "Overwrite with your custom message and restrictionCode handling",
        "params": {
          "restrictionCode": "Identifier for looking up a message"
        },
        "returns": {
          "_0": "Text showing the restriction's reasoning"
        }
      },
      "owner()": {
        "details": "Returns the address of the current owner."
      },
      "renounceOwnership()": {
        "details": "Leaves the contract without owner. It will not be possible to call `onlyOwner` functions anymore. Can only be called by the current owner.     * NOTE: Renouncing ownership will leave the contract without an owner, thereby removing any functionality that is only available to the owner."
      },
      "totalSupply()": {
        "details": "Returns total supply of tokens"
      },
      "transfer(address,uint256)": {
        "details": "Moves `amount` tokens from the caller's account to `recipient`.   * Returns a boolean value indicating whether the operation succeeded.   * Emits a {Transfer} event."
      },
      "transferFrom(address,address,uint256)": {
        "details": "Moves `amount` tokens from `sender` to `recipient` using the allowance mechanism. `amount` is then deducted from the caller's allowance.   * Returns a boolean value indicating whether the operation succeeded.   * Emits a {Transfer} event."
      },
      "transferOwnership(address)": {
        "details": "Transfers ownership of the contract to a new account (`newOwner`). Can only be called by the current owner."
      }
    }
  },
  "userdoc": {
    "methods": {
      "detectTransferRestriction(address,address,uint256)": {
        "notice": "Detects if a transfer will be reverted and if so returns an appropriate reference code"
      },
      "messageForTransferRestriction(uint8)": {
        "notice": "Returns a human-readable message for a given restriction code"
      }
    },
    "notice": "An ERC1404 token representing an Income Sharing Agreement"
  }
}