{
  "contractName": "ISA",
  "abi": [
    {
      "inputs": [
        {
          "internalType": "string",
          "name": "symbol",
          "type": "string"
        },
        {
          "internalType": "contract Regulator",
          "name": "regulator",
          "type": "address"
        }
      ],
      "stateMutability": "nonpayable",
      "type": "constructor"
    },
    {
      "anonymous": false,
      "inputs": [
        {
          "indexed": true,
          "internalType": "address",
          "name": "owner",
          "type": "address"
        },
        {
          "indexed": true,
          "internalType": "address",
          "name": "spender",
          "type": "address"
        },
        {
          "indexed": false,
          "internalType": "uint256",
          "name": "value",
          "type": "uint256"
        }
      ],
      "name": "Approval",
      "type": "event"
    },
    {
      "anonymous": false,
      "inputs": [
        {
          "indexed": true,
          "internalType": "address",
          "name": "previousOwner",
          "type": "address"
        },
        {
          "indexed": true,
          "internalType": "address",
          "name": "newOwner",
          "type": "address"
        }
      ],
      "name": "OwnershipTransferred",
      "type": "event"
    },
    {
      "anonymous": false,
      "inputs": [
        {
          "indexed": true,
          "internalType": "address",
          "name": "from",
          "type": "address"
        },
        {
          "indexed": true,
          "internalType": "address",
          "name": "to",
          "type": "address"
        },
        {
          "indexed": false,
          "internalType": "uint256",
          "name": "value",
          "type": "uint256"
        }
      ],
      "name": "Transfer",
      "type": "event"
    },
    {
      "inputs": [],
      "name": "owner",
      "outputs": [
        {
          "internalType": "address",
          "name": "",
          "type": "address"
        }
      ],
      "stateMutability": "view",
      "type": "function"
    },
    {
      "inputs": [],
      "name": "renounceOwnership",
      "outputs": [],
      "stateMutability": "nonpayable",
      "type": "function"
    },
    {
      "inputs": [
        {
          "internalType": "address",
          "name": "newOwner",
          "type": "address"
        }
      ],
      "name": "transferOwnership",
      "outputs": [],
      "stateMutability": "nonpayable",
      "type": "function"
    },
    {
      "inputs": [],
      "name": "symbol",
      "outputs": [
        {
          "internalType": "string",
          "name": "",
          "type": "string"
        }
      ],
      "stateMutability": "view",
      "type": "function"
    },
    {
      "inputs": [],
      "name": "totalSupply",
      "outputs": [
        {
          "internalType": "uint256",
          "name": "",
          "type": "uint256"
        }
      ],
      "stateMutability": "view",
      "type": "function"
    },
    {
      "inputs": [
        {
          "internalType": "address",
          "name": "account",
          "type": "address"
        }
      ],
      "name": "balanceOf",
      "outputs": [
        {
          "internalType": "uint256",
          "name": "",
          "type": "uint256"
        }
      ],
      "stateMutability": "view",
      "type": "function"
    },
    {
      "inputs": [
        {
          "internalType": "address",
          "name": "recipient",
          "type": "address"
        },
        {
          "internalType": "uint256",
          "name": "amount",
          "type": "uint256"
        }
      ],
      "name": "transfer",
      "outputs": [
        {
          "internalType": "bool",
          "name": "",
          "type": "bool"
        }
      ],
      "stateMutability": "nonpayable",
      "type": "function"
    },
    {
      "inputs": [
        {
          "internalType": "address",
          "name": "owner",
          "type": "address"
        },
        {
          "internalType": "address",
          "name": "spender",
          "type": "address"
        }
      ],
      "name": "allowance",
      "outputs": [
        {
          "internalType": "uint256",
          "name": "",
          "type": "uint256"
        }
      ],
      "stateMutability": "view",
      "type": "function"
    },
    {
      "inputs": [
        {
          "internalType": "address",
          "name": "spender",
          "type": "address"
        },
        {
          "internalType": "uint256",
          "name": "amount",
          "type": "uint256"
        }
      ],
      "name": "approve",
      "outputs": [
        {
          "internalType": "bool",
          "name": "",
          "type": "bool"
        }
      ],
      "stateMutability": "nonpayable",
      "type": "function"
    },
    {
      "inputs": [
        {
          "internalType": "address",
          "name": "sender",
          "type": "address"
        },
        {
          "internalType": "address",
          "name": "recipient",
          "type": "address"
        },
        {
          "internalType": "uint256",
          "name": "amount",
          "type": "uint256"
        }
      ],
      "name": "transferFrom",
      "outputs": [
        {
          "internalType": "bool",
          "name": "",
          "type": "bool"
        }
      ],
      "stateMutability": "nonpayable",
      "type": "function"
    },
    {
      "inputs": [
        {
          "internalType": "address",
          "name": "from",
          "type": "address"
        },
        {
          "internalType": "address",
          "name": "to",
          "type": "address"
        },
        {
          "internalType": "uint256",
          "name": "value",
          "type": "uint256"
        }
      ],
      "name": "detectTransferRestriction",
      "outputs": [
        {
          "internalType": "uint8",
          "name": "",
          "type": "uint8"
        }
      ],
      "stateMutability": "view",
      "type": "function"
    },
    {
      "inputs": [
        {
          "internalType": "uint8",
          "name": "restrictionCode",
          "type": "uint8"
        }
      ],
      "name": "messageForTransferRestriction",
      "outputs": [
        {
          "internalType": "string",
          "name": "",
          "type": "string"
        }
      ],
      "stateMutability": "view",
      "type": "function"
    }
  ],
  "bytecode": "0x60806040523480156200001157600080fd5b5060405162000e3b38038062000e3b833981810160405260408110156200003757600080fd5b81019080805160405193929190846401000000008211156200005857600080fd5b838201915060208201858111156200006f57600080fd5b82518660018202830111640100000000821117156200008d57600080fd5b8083526020830192505050908051906020019080838360005b83811015620000c3578082015181840152602081019050620000a6565b50505050905090810190601f168015620000f15780820380516001836020036101000a031916815260200191505b50604052602001805190602001909291905050506000620001176200021f60201b60201c565b9050806000806101000a81548173ffffffffffffffffffffffffffffffffffffffff021916908373ffffffffffffffffffffffffffffffffffffffff1602179055508073ffffffffffffffffffffffffffffffffffffffff16600073ffffffffffffffffffffffffffffffffffffffff167f8be0079c531659141344cd1fd0a4f28419497f9722a3daafe3b4186f6b6457e060405160405180910390a3508160029080519060200190620001cd92919062000227565b50606460018190555080600560006101000a81548173ffffffffffffffffffffffffffffffffffffffff021916908373ffffffffffffffffffffffffffffffffffffffff1602179055505050620002d6565b600033905090565b828054600181600116156101000203166002900490600052602060002090601f016020900481019282601f106200026a57805160ff19168380011785556200029b565b828001600101855582156200029b579182015b828111156200029a5782518255916020019190600101906200027d565b5b509050620002aa9190620002ae565b5090565b620002d391905b80821115620002cf576000816000905550600101620002b5565b5090565b90565b610b5580620002e66000396000f3fe608060405234801561001057600080fd5b50600436106100b45760003560e01c80638da5cb5b116100715780638da5cb5b146102cf57806395d89b4114610319578063a9059cbb1461039c578063d4ce141514610402578063dd62ed3e1461048a578063f2fde38b14610502576100b4565b8063095ea7b3146100b957806318160ddd1461011f57806323b872dd1461013d57806370a08231146101c3578063715018a61461021b5780637f4ab1dd14610225575b600080fd5b610105600480360360408110156100cf57600080fd5b81019080803573ffffffffffffffffffffffffffffffffffffffff16906020019092919080359060200190929190505050610546565b604051808215151515815260200191505060405180910390f35b610127610552565b6040518082815260200191505060405180910390f35b6101a96004803603606081101561015357600080fd5b81019080803573ffffffffffffffffffffffffffffffffffffffff169060200190929190803573ffffffffffffffffffffffffffffffffffffffff1690602001909291908035906020019092919050505061055c565b604051808215151515815260200191505060405180910390f35b610205600480360360208110156101d957600080fd5b81019080803573ffffffffffffffffffffffffffffffffffffffff169060200190929190505050610569565b6040518082815260200191505060405180910390f35b6102236105b2565b005b6102546004803603602081101561023b57600080fd5b81019080803560ff16906020019092919050505061073a565b6040518080602001828103825283818151815260200191508051906020019080838360005b83811015610294578082015181840152602081019050610279565b50505050905090810190601f1680156102c15780820380516001836020036101000a031916815260200191505b509250505060405180910390f35b6102d7610779565b604051808273ffffffffffffffffffffffffffffffffffffffff1673ffffffffffffffffffffffffffffffffffffffff16815260200191505060405180910390f35b6103216107a2565b6040518080602001828103825283818151815260200191508051906020019080838360005b83811015610361578082015181840152602081019050610346565b50505050905090810190601f16801561038e5780820380516001836020036101000a031916815260200191505b509250505060405180910390f35b6103e8600480360360408110156103b257600080fd5b81019080803573ffffffffffffffffffffffffffffffffffffffff16906020019092919080359060200190929190505050610844565b604051808215151515815260200191505060405180910390f35b61046e6004803603606081101561041857600080fd5b81019080803573ffffffffffffffffffffffffffffffffffffffff169060200190929190803573ffffffffffffffffffffffffffffffffffffffff16906020019092919080359060200190929190505050610850565b604051808260ff1660ff16815260200191505060405180910390f35b6104ec600480360360408110156104a057600080fd5b81019080803573ffffffffffffffffffffffffffffffffffffffff169060200190929190803573ffffffffffffffffffffffffffffffffffffffff16906020019092919050505061085d565b6040518082815260200191505060405180910390f35b6105446004803603602081101561051857600080fd5b81019080803573ffffffffffffffffffffffffffffffffffffffff1690602001909291905050506108e4565b005b60006001905092915050565b6000600154905090565b6000600190509392505050565b6000600360008373ffffffffffffffffffffffffffffffffffffffff1673ffffffffffffffffffffffffffffffffffffffff168152602001908152602001600020549050919050565b6105ba610af1565b73ffffffffffffffffffffffffffffffffffffffff166000809054906101000a900473ffffffffffffffffffffffffffffffffffffffff1673ffffffffffffffffffffffffffffffffffffffff161461067b576040517f08c379a00000000000000000000000000000000000000000000000000000000081526004018080602001828103825260208152602001807f4f776e61626c653a2063616c6c6572206973206e6f7420746865206f776e657281525060200191505060405180910390fd5b600073ffffffffffffffffffffffffffffffffffffffff166000809054906101000a900473ffffffffffffffffffffffffffffffffffffffff1673ffffffffffffffffffffffffffffffffffffffff167f8be0079c531659141344cd1fd0a4f28419497f9722a3daafe3b4186f6b6457e060405160405180910390a360008060006101000a81548173ffffffffffffffffffffffffffffffffffffffff021916908373ffffffffffffffffffffffffffffffffffffffff160217905550565b60606040518060400160405280600481526020017f74657374000000000000000000000000000000000000000000000000000000008152509050919050565b60008060009054906101000a900473ffffffffffffffffffffffffffffffffffffffff16905090565b606060028054600181600116156101000203166002900480601f01602080910402602001604051908101604052809291908181526020018280546001816001161561010002031660029004801561083a5780601f1061080f5761010080835404028352916020019161083a565b820191906000526020600020905b81548152906001019060200180831161081d57829003601f168201915b5050505050905090565b60006001905092915050565b6000600190509392505050565b6000600460008473ffffffffffffffffffffffffffffffffffffffff1673ffffffffffffffffffffffffffffffffffffffff16815260200190815260200160002060008373ffffffffffffffffffffffffffffffffffffffff1673ffffffffffffffffffffffffffffffffffffffff16815260200190815260200160002054905092915050565b6108ec610af1565b73ffffffffffffffffffffffffffffffffffffffff166000809054906101000a900473ffffffffffffffffffffffffffffffffffffffff1673ffffffffffffffffffffffffffffffffffffffff16146109ad576040517f08c379a00000000000000000000000000000000000000000000000000000000081526004018080602001828103825260208152602001807f4f776e61626c653a2063616c6c6572206973206e6f7420746865206f776e657281525060200191505060405180910390fd5b600073ffffffffffffffffffffffffffffffffffffffff168173ffffffffffffffffffffffffffffffffffffffff161415610a33576040517f08c379a0000000000000000000000000000000000000000000000000000000008152600401808060200182810382526026815260200180610afa6026913960400191505060405180910390fd5b8073ffffffffffffffffffffffffffffffffffffffff166000809054906101000a900473ffffffffffffffffffffffffffffffffffffffff1673ffffffffffffffffffffffffffffffffffffffff167f8be0079c531659141344cd1fd0a4f28419497f9722a3daafe3b4186f6b6457e060405160405180910390a3806000806101000a81548173ffffffffffffffffffffffffffffffffffffffff021916908373ffffffffffffffffffffffffffffffffffffffff16021790555050565b60003390509056fe4f776e61626c653a206e6577206f776e657220697320746865207a65726f2061646472657373a2646970667358221220bdcba6568c18bcc9e0b728a6dad3e8ad48c21f1b8ef815bf13fe5312ef57279a64736f6c63430006010033",
  "source": "pragma solidity >0.4.23 <0.7.0;\n\nimport \"openzeppelin-solidity/contracts/math/SafeMath.sol\";\nimport \"openzeppelin-solidity/contracts/access/Ownable.sol\";\nimport \"openzeppelin-solidity/contracts/token/ERC20/IERC20.sol\";\n\nimport \"./Regulator.sol\";\n\n/// @notice An ERC1404 token representing an Income Sharing Agreement\ncontract ISA is IERC20, Ownable {\n  using SafeMath for uint256;\n\n  uint256 private _totalSupply;\n\n  string private _symbol;\n\n  mapping (address => uint256) private _balances;\n\n  mapping (address => mapping (address => uint256)) private _allowances;\n\n  Regulator private _regulator;\n\n  /**\n   * @dev Sets the value for {symbol}, initializes {_totalSupply} with\n   * a default value of 100.\n   *\n   * Both of these values are immutable: they can only be set once during\n   * construction.\n   */\n  constructor(string memory symbol, Regulator regulator) public {\n    _symbol = symbol;\n    _totalSupply = 100;\n\n    _regulator = regulator;\n  }\n\n  /**\n   * @dev Returns the symbol of the token, usually a shorter version of the\n   * name.\n   */\n  function symbol() public view returns (string memory) {\n      return _symbol;\n  }\n\n  /**\n   * @dev Returns the amount of tokens in existence.\n   */\n  function totalSupply() external view override returns (uint256) {\n    return _totalSupply;\n  }\n\n  /**\n   * @dev Returns the amount of tokens owned by `account`.\n   */\n  function balanceOf(address account) external view override returns (uint256) {\n    return _balances[account];\n  }\n\n  /**\n   * @dev Moves `amount` tokens from the caller's account to `recipient`.\n   *\n   * Returns a boolean value indicating whether the operation succeeded.\n   *\n   * Emits a {Transfer} event.\n   */\n  function transfer(address recipient, uint256 amount) external override returns (bool) {\n    return true;\n  }\n\n  /**\n   * @dev Returns the remaining number of tokens that `spender` will be\n   * allowed to spend on behalf of `owner` through {transferFrom}. This is\n   * zero by default.\n   *\n   * This value changes when {approve} or {transferFrom} are called.\n   */\n  function allowance(address owner, address spender) external view override returns (uint256) {\n    return _allowances[owner][spender];\n  }\n\n  /**\n   * @dev Sets `amount` as the allowance of `spender` over the caller's tokens.\n   *\n   * Returns a boolean value indicating whether the operation succeeded.\n   *\n   * IMPORTANT: Beware that changing an allowance with this method brings the risk\n   * that someone may use both the old and the new allowance by unfortunate\n   * transaction ordering. One possible solution to mitigate this race\n   * condition is to first reduce the spender's allowance to 0 and set the\n   * desired value afterwards:\n   * https://github.com/ethereum/EIPs/issues/20#issuecomment-263524729\n   *\n   * Emits an {Approval} event.\n   */\n  function approve(address spender, uint256 amount) external override returns (bool) {\n    return true;\n  }\n\n  /**\n   * @dev Moves `amount` tokens from `sender` to `recipient` using the\n   * allowance mechanism. `amount` is then deducted from the caller's\n   * allowance.\n   *\n   * Returns a boolean value indicating whether the operation succeeded.\n   *\n   * Emits a {Transfer} event.\n   */\n  function transferFrom(address sender, address recipient, uint256 amount) external override returns (bool) {\n    return true;\n  }\n\n  /// @notice Detects if a transfer will be reverted and if so returns an appropriate reference code\n  /// @param from Sending address\n  /// @param to Receiving address\n  /// @param value Amount of tokens being transferred\n  /// @return Code by which to reference message for rejection reasoning\n  /// @dev Overwrite with your custom transfer restriction logic\n  function detectTransferRestriction (address from, address to, uint256 value) public view returns (uint8) {\n    return 1;\n  }\n\n  /// @notice Returns a human-readable message for a given restriction code\n  /// @param restrictionCode Identifier for looking up a message\n  /// @return Text showing the restriction's reasoning\n  /// @dev Overwrite with your custom message and restrictionCode handling\n  function messageForTransferRestriction (uint8 restrictionCode) public view returns (string memory) {\n    return \"test\";\n  }\n}\n",
  "sourcePath": "/Users/FinnHarman/Google Drive/Computing Science/Individual Project/Code/ISA/contracts/ISA.sol",
  "compiler": {
    "name": "solc",
    "version": "0.6.1+commit.e6f7d5a4.Emscripten.clang"
  },
  "schemaVersion": "3.2.0",
  "updatedAt": "2020-07-27T20:34:32.716Z",
  "devdoc": {
    "methods": {
      "allowance(address,address)": {
        "details": "Returns the remaining number of tokens that `spender` will be allowed to spend on behalf of `owner` through {transferFrom}. This is zero by default.   * This value changes when {approve} or {transferFrom} are called."
      },
      "approve(address,uint256)": {
        "details": "Sets `amount` as the allowance of `spender` over the caller's tokens.   * Returns a boolean value indicating whether the operation succeeded.   * IMPORTANT: Beware that changing an allowance with this method brings the risk that someone may use both the old and the new allowance by unfortunate transaction ordering. One possible solution to mitigate this race condition is to first reduce the spender's allowance to 0 and set the desired value afterwards: https://github.com/ethereum/EIPs/issues/20#issuecomment-263524729   * Emits an {Approval} event."
      },
      "balanceOf(address)": {
        "details": "Returns the amount of tokens owned by `account`."
      },
      "constructor": {
        "details": "Sets the value for {symbol}, initializes {_totalSupply} with a default value of 100.   * Both of these values are immutable: they can only be set once during construction."
      },
      "detectTransferRestriction(address,address,uint256)": {
        "details": "Overwrite with your custom transfer restriction logic",
        "params": {
          "from": "Sending address",
          "to": "Receiving address",
          "value": "Amount of tokens being transferred"
        },
        "returns": {
          "_0": "Code by which to reference message for rejection reasoning"
        }
      },
      "messageForTransferRestriction(uint8)": {
        "details": "Overwrite with your custom message and restrictionCode handling",
        "params": {
          "restrictionCode": "Identifier for looking up a message"
        },
        "returns": {
          "_0": "Text showing the restriction's reasoning"
        }
      },
      "owner()": {
        "details": "Returns the address of the current owner."
      },
      "renounceOwnership()": {
        "details": "Leaves the contract without owner. It will not be possible to call `onlyOwner` functions anymore. Can only be called by the current owner.     * NOTE: Renouncing ownership will leave the contract without an owner, thereby removing any functionality that is only available to the owner."
      },
      "symbol()": {
        "details": "Returns the symbol of the token, usually a shorter version of the name."
      },
      "totalSupply()": {
        "details": "Returns the amount of tokens in existence."
      },
      "transfer(address,uint256)": {
        "details": "Moves `amount` tokens from the caller's account to `recipient`.   * Returns a boolean value indicating whether the operation succeeded.   * Emits a {Transfer} event."
      },
      "transferFrom(address,address,uint256)": {
        "details": "Moves `amount` tokens from `sender` to `recipient` using the allowance mechanism. `amount` is then deducted from the caller's allowance.   * Returns a boolean value indicating whether the operation succeeded.   * Emits a {Transfer} event."
      },
      "transferOwnership(address)": {
        "details": "Transfers ownership of the contract to a new account (`newOwner`). Can only be called by the current owner."
      }
    }
  },
  "userdoc": {
    "methods": {
      "detectTransferRestriction(address,address,uint256)": {
        "notice": "Detects if a transfer will be reverted and if so returns an appropriate reference code"
      },
      "messageForTransferRestriction(uint8)": {
        "notice": "Returns a human-readable message for a given restriction code"
      }
    },
    "notice": "An ERC1404 token representing an Income Sharing Agreement"
  }
}