{
  "contractName": "ISAFactory",
  "abi": [
    {
      "inputs": [
        {
          "internalType": "contract Regulator",
          "name": "_regulator",
          "type": "address"
        }
      ],
      "stateMutability": "nonpayable",
      "type": "constructor"
    },
    {
      "anonymous": false,
      "inputs": [
        {
          "indexed": true,
          "internalType": "address",
          "name": "previousOwner",
          "type": "address"
        },
        {
          "indexed": true,
          "internalType": "address",
          "name": "newOwner",
          "type": "address"
        }
      ],
      "name": "OwnershipTransferred",
      "type": "event"
    },
    {
      "inputs": [],
      "name": "owner",
      "outputs": [
        {
          "internalType": "address",
          "name": "",
          "type": "address"
        }
      ],
      "stateMutability": "view",
      "type": "function",
      "constant": true
    },
    {
      "inputs": [],
      "name": "renounceOwnership",
      "outputs": [],
      "stateMutability": "nonpayable",
      "type": "function"
    },
    {
      "inputs": [
        {
          "internalType": "address",
          "name": "newOwner",
          "type": "address"
        }
      ],
      "name": "transferOwnership",
      "outputs": [],
      "stateMutability": "nonpayable",
      "type": "function"
    },
    {
      "inputs": [
        {
          "internalType": "address",
          "name": "_lenderAddress",
          "type": "address"
        },
        {
          "internalType": "address",
          "name": "_borrowerAddress",
          "type": "address"
        },
        {
          "internalType": "uint256",
          "name": "_isaAmount",
          "type": "uint256"
        },
        {
          "internalType": "uint256",
          "name": "_incomePercentage",
          "type": "uint256"
        },
        {
          "internalType": "uint256",
          "name": "_timePeriod",
          "type": "uint256"
        },
        {
          "internalType": "uint256",
          "name": "_buyoutAmount",
          "type": "uint256"
        },
        {
          "internalType": "uint256",
          "name": "_minimumIncome",
          "type": "uint256"
        },
        {
          "internalType": "uint256",
          "name": "_paymentCap",
          "type": "uint256"
        }
      ],
      "name": "newProposal",
      "outputs": [],
      "stateMutability": "nonpayable",
      "type": "function"
    },
    {
      "inputs": [
        {
          "internalType": "contract Proposal",
          "name": "proposal",
          "type": "address"
        }
      ],
      "name": "requestProposal",
      "outputs": [
        {
          "internalType": "bool",
          "name": "",
          "type": "bool"
        },
        {
          "internalType": "string",
          "name": "",
          "type": "string"
        }
      ],
      "stateMutability": "nonpayable",
      "type": "function"
    },
    {
      "inputs": [],
      "name": "getProposalNumber",
      "outputs": [
        {
          "internalType": "uint256",
          "name": "",
          "type": "uint256"
        }
      ],
      "stateMutability": "view",
      "type": "function",
      "constant": true
    },
    {
      "inputs": [],
      "name": "getAllProposalNumber",
      "outputs": [
        {
          "internalType": "uint256",
          "name": "",
          "type": "uint256"
        }
      ],
      "stateMutability": "view",
      "type": "function",
      "constant": true
    },
    {
      "inputs": [],
      "name": "getProposals",
      "outputs": [
        {
          "internalType": "contract Proposal[]",
          "name": "coll",
          "type": "address[]"
        }
      ],
      "stateMutability": "nonpayable",
      "type": "function"
    },
    {
      "inputs": [],
      "name": "getAllProposals",
      "outputs": [
        {
          "internalType": "contract Proposal[]",
          "name": "coll",
          "type": "address[]"
        }
      ],
      "stateMutability": "nonpayable",
      "type": "function"
    },
    {
      "inputs": [],
      "name": "newISA",
      "outputs": [],
      "stateMutability": "nonpayable",
      "type": "function"
    }
  ],
  "bytecode": "0x608060405234801561001057600080fd5b506040516119663803806119668339818101604052602081101561003357600080fd5b8101908080519060200190929190505050600061005461013960201b60201c565b9050806000806101000a81548173ffffffffffffffffffffffffffffffffffffffff021916908373ffffffffffffffffffffffffffffffffffffffff1602179055508073ffffffffffffffffffffffffffffffffffffffff16600073ffffffffffffffffffffffffffffffffffffffff167f8be0079c531659141344cd1fd0a4f28419497f9722a3daafe3b4186f6b6457e060405160405180910390a35080600160006101000a81548173ffffffffffffffffffffffffffffffffffffffff021916908373ffffffffffffffffffffffffffffffffffffffff16021790555050610141565b600033905090565b611816806101506000396000f3fe608060405234801561001057600080fd5b506004361061009e5760003560e01c8063715018a611610066578063715018a6146101e95780638da5cb5b146101f3578063a7e13ea81461023d578063cceb68f514610305578063f2fde38b146103645761009e565b80630f98486b146100a3578063162d4bff146100ad5780631e25ed25146100cb578063202890771461016c57806362564c481461018a575b600080fd5b6100ab6103a8565b005b6100b5610473565b6040518082815260200191505060405180910390f35b61016a60048036036101008110156100e257600080fd5b81019080803573ffffffffffffffffffffffffffffffffffffffff169060200190929190803573ffffffffffffffffffffffffffffffffffffffff169060200190929190803590602001909291908035906020019092919080359060200190929190803590602001909291908035906020019092919080359060200190929190505050610480565b005b610174610687565b6040518082815260200191505060405180910390f35b610192610897565b6040518080602001828103825283818151815260200191508051906020019060200280838360005b838110156101d55780820151818401526020810190506101ba565b505050509050019250505060405180910390f35b6101f1610b5e565b005b6101fb610ce6565b604051808273ffffffffffffffffffffffffffffffffffffffff1673ffffffffffffffffffffffffffffffffffffffff16815260200191505060405180910390f35b61027f6004803603602081101561025357600080fd5b81019080803573ffffffffffffffffffffffffffffffffffffffff169060200190929190505050610d0f565b604051808315151515815260200180602001828103825283818151815260200191508051906020019080838360005b838110156102c95780820151818401526020810190506102ae565b50505050905090810190601f1680156102f65780820380516001836020036101000a031916815260200191505b50935050505060405180910390f35b61030d610ec0565b6040518080602001828103825283818151815260200191508051906020019060200280838360005b83811015610350578082015181840152602081019050610335565b505050509050019250505060405180910390f35b6103a66004803603602081101561037a57600080fd5b81019080803573ffffffffffffffffffffffffffffffffffffffff169060200190929190505050610f9e565b005b6103b06111ab565b73ffffffffffffffffffffffffffffffffffffffff166000809054906101000a900473ffffffffffffffffffffffffffffffffffffffff1673ffffffffffffffffffffffffffffffffffffffff1614610471576040517f08c379a00000000000000000000000000000000000000000000000000000000081526004018080602001828103825260208152602001807f4f776e61626c653a2063616c6c6572206973206e6f7420746865206f776e657281525060200191505060405180910390fd5b565b6000600280549050905090565b600073ffffffffffffffffffffffffffffffffffffffff168873ffffffffffffffffffffffffffffffffffffffff1614156104ba57600080fd5b600073ffffffffffffffffffffffffffffffffffffffff168773ffffffffffffffffffffffffffffffffffffffff1614156104f457600080fd5b6000861161050157600080fd5b600085101561050f57600080fd5b606485111561051d57600080fd5b6000841161052a57600080fd5b6000831161053757600080fd5b6000821161054457600080fd5b6000811161055157600080fd5b60008888888888888888604051610567906111b3565b808973ffffffffffffffffffffffffffffffffffffffff1673ffffffffffffffffffffffffffffffffffffffff1681526020018873ffffffffffffffffffffffffffffffffffffffff1673ffffffffffffffffffffffffffffffffffffffff16815260200187815260200186815260200185815260200184815260200183815260200182815260200198505050505050505050604051809103906000f080158015610616573d6000803e3d6000fd5b5090506002819080600181540180825580915050600190039060005260206000200160009091909190916101000a81548173ffffffffffffffffffffffffffffffffffffffff021916908373ffffffffffffffffffffffffffffffffffffffff160217905550505050505050505050565b6000806000905060008090505b60028054905081101561088f573373ffffffffffffffffffffffffffffffffffffffff16600282815481106106c557fe5b9060005260206000200160009054906101000a900473ffffffffffffffffffffffffffffffffffffffff1673ffffffffffffffffffffffffffffffffffffffff166369d812556040518163ffffffff1660e01b815260040160206040518083038186803b15801561073557600080fd5b505afa158015610749573d6000803e3d6000fd5b505050506040513d602081101561075f57600080fd5b810190808051906020019092919050505073ffffffffffffffffffffffffffffffffffffffff16148061087457503373ffffffffffffffffffffffffffffffffffffffff16600282815481106107b157fe5b9060005260206000200160009054906101000a900473ffffffffffffffffffffffffffffffffffffffff1673ffffffffffffffffffffffffffffffffffffffff16637ba61ea56040518163ffffffff1660e01b815260040160206040518083038186803b15801561082157600080fd5b505afa158015610835573d6000803e3d6000fd5b505050506040513d602081101561084b57600080fd5b810190808051906020019092919050505073ffffffffffffffffffffffffffffffffffffffff16145b156108825781806001019250505b8080600101915050610694565b508091505090565b60606108a1610687565b6040519080825280602002602001820160405280156108cf5781602001602082028038833980820191505090505b509050600080905060008090505b600280549050811015610b56573373ffffffffffffffffffffffffffffffffffffffff166002828154811061090e57fe5b9060005260206000200160009054906101000a900473ffffffffffffffffffffffffffffffffffffffff1673ffffffffffffffffffffffffffffffffffffffff166369d812556040518163ffffffff1660e01b815260040160206040518083038186803b15801561097e57600080fd5b505afa158015610992573d6000803e3d6000fd5b505050506040513d60208110156109a857600080fd5b810190808051906020019092919050505073ffffffffffffffffffffffffffffffffffffffff161480610abd57503373ffffffffffffffffffffffffffffffffffffffff16600282815481106109fa57fe5b9060005260206000200160009054906101000a900473ffffffffffffffffffffffffffffffffffffffff1673ffffffffffffffffffffffffffffffffffffffff16637ba61ea56040518163ffffffff1660e01b815260040160206040518083038186803b158015610a6a57600080fd5b505afa158015610a7e573d6000803e3d6000fd5b505050506040513d6020811015610a9457600080fd5b810190808051906020019092919050505073ffffffffffffffffffffffffffffffffffffffff16145b15610b495760028181548110610acf57fe5b9060005260206000200160009054906101000a900473ffffffffffffffffffffffffffffffffffffffff16838381518110610b0657fe5b602002602001019073ffffffffffffffffffffffffffffffffffffffff16908173ffffffffffffffffffffffffffffffffffffffff168152505081806001019250505b80806001019150506108dd565b508191505090565b610b666111ab565b73ffffffffffffffffffffffffffffffffffffffff166000809054906101000a900473ffffffffffffffffffffffffffffffffffffffff1673ffffffffffffffffffffffffffffffffffffffff1614610c27576040517f08c379a00000000000000000000000000000000000000000000000000000000081526004018080602001828103825260208152602001807f4f776e61626c653a2063616c6c6572206973206e6f7420746865206f776e657281525060200191505060405180910390fd5b600073ffffffffffffffffffffffffffffffffffffffff166000809054906101000a900473ffffffffffffffffffffffffffffffffffffffff1673ffffffffffffffffffffffffffffffffffffffff167f8be0079c531659141344cd1fd0a4f28419497f9722a3daafe3b4186f6b6457e060405160405180910390a360008060006101000a81548173ffffffffffffffffffffffffffffffffffffffff021916908373ffffffffffffffffffffffffffffffffffffffff160217905550565b60008060009054906101000a900473ffffffffffffffffffffffffffffffffffffffff16905090565b60006060600160009054906101000a900473ffffffffffffffffffffffffffffffffffffffff1673ffffffffffffffffffffffffffffffffffffffff166327c78c42846040518263ffffffff1660e01b8152600401808273ffffffffffffffffffffffffffffffffffffffff1673ffffffffffffffffffffffffffffffffffffffff168152602001915050600060405180830381600087803b158015610db457600080fd5b505af1158015610dc8573d6000803e3d6000fd5b505050506040513d6000823e3d601f19601f820116820180604052506040811015610df257600080fd5b810190808051906020019092919080516040519392919084640100000000821115610e1c57600080fd5b83820191506020820185811115610e3257600080fd5b8251866001820283011164010000000082111715610e4f57600080fd5b8083526020830192505050908051906020019080838360005b83811015610e83578082015181840152602081019050610e68565b50505050905090810190601f168015610eb05780820380516001836020036101000a031916815260200191505b5060405250505091509150915091565b6060600280549050604051908082528060200260200182016040528015610ef65781602001602082028038833980820191505090505b50905060008090505b600280549050811015610f975760028181548110610f1957fe5b9060005260206000200160009054906101000a900473ffffffffffffffffffffffffffffffffffffffff16828281518110610f5057fe5b602002602001019073ffffffffffffffffffffffffffffffffffffffff16908173ffffffffffffffffffffffffffffffffffffffff16815250508080600101915050610eff565b5080905090565b610fa66111ab565b73ffffffffffffffffffffffffffffffffffffffff166000809054906101000a900473ffffffffffffffffffffffffffffffffffffffff1673ffffffffffffffffffffffffffffffffffffffff1614611067576040517f08c379a00000000000000000000000000000000000000000000000000000000081526004018080602001828103825260208152602001807f4f776e61626c653a2063616c6c6572206973206e6f7420746865206f776e657281525060200191505060405180910390fd5b600073ffffffffffffffffffffffffffffffffffffffff168173ffffffffffffffffffffffffffffffffffffffff1614156110ed576040517f08c379a00000000000000000000000000000000000000000000000000000000081526004018080602001828103825260268152602001806117bb6026913960400191505060405180910390fd5b8073ffffffffffffffffffffffffffffffffffffffff166000809054906101000a900473ffffffffffffffffffffffffffffffffffffffff1673ffffffffffffffffffffffffffffffffffffffff167f8be0079c531659141344cd1fd0a4f28419497f9722a3daafe3b4186f6b6457e060405160405180910390a3806000806101000a81548173ffffffffffffffffffffffffffffffffffffffff021916908373ffffffffffffffffffffffffffffffffffffffff16021790555050565b600033905090565b6105fa806111c18339019056fe608060405234801561001057600080fd5b506040516105fa3803806105fa833981810160405261010081101561003457600080fd5b810190808051906020019092919080519060200190929190805190602001909291908051906020019092919080519060200190929190805190602001909291908051906020019092919080519060200190929190505050876000806101000a81548173ffffffffffffffffffffffffffffffffffffffff021916908373ffffffffffffffffffffffffffffffffffffffff16021790555086600160006101000a81548173ffffffffffffffffffffffffffffffffffffffff021916908373ffffffffffffffffffffffffffffffffffffffff1602179055508560028190555084600381905550836004819055508260058190555081600681905550806007819055506000600860006101000a81548160ff0219169083151502179055506000600860016101000a81548160ff0219169083151502179055506000600860026101000a81548160ff021916908315150217905550505050505050505061045c8061019e6000396000f3fe608060405234801561001057600080fd5b506004361061009e5760003560e01c80638a133dc8116100665780638a133dc8146101915780638fae60a5146101b3578063ba111079146101bd578063e9497b5f146101db578063f1b79e53146101f95761009e565b80631829b73f146100a3578063347775b0146100c15780633e79d1e1146100df57806369d81255146100fd5780637ba61ea514610147575b600080fd5b6100ab610217565b6040518082815260200191505060405180910390f35b6100c961021d565b6040518082815260200191505060405180910390f35b6100e7610223565b6040518082815260200191505060405180910390f35b610105610229565b604051808273ffffffffffffffffffffffffffffffffffffffff1673ffffffffffffffffffffffffffffffffffffffff16815260200191505060405180910390f35b61014f61024e565b604051808273ffffffffffffffffffffffffffffffffffffffff1673ffffffffffffffffffffffffffffffffffffffff16815260200191505060405180910390f35b610199610274565b604051808215151515815260200191505060405180910390f35b6101bb610287565b005b6101c5610414565b6040518082815260200191505060405180910390f35b6101e361041a565b6040518082815260200191505060405180910390f35b610201610420565b6040518082815260200191505060405180910390f35b60055481565b60075481565b60045481565b6000809054906101000a900473ffffffffffffffffffffffffffffffffffffffff1681565b600160009054906101000a900473ffffffffffffffffffffffffffffffffffffffff1681565b600860029054906101000a900460ff1681565b6000809054906101000a900473ffffffffffffffffffffffffffffffffffffffff1673ffffffffffffffffffffffffffffffffffffffff163373ffffffffffffffffffffffffffffffffffffffff16148061032f5750600160009054906101000a900473ffffffffffffffffffffffffffffffffffffffff1673ffffffffffffffffffffffffffffffffffffffff163373ffffffffffffffffffffffffffffffffffffffff16145b61033857600080fd5b6000809054906101000a900473ffffffffffffffffffffffffffffffffffffffff1673ffffffffffffffffffffffffffffffffffffffff163373ffffffffffffffffffffffffffffffffffffffff1614156103ad576001600860006101000a81548160ff0219169083151502179055506103c9565b6001600860016101000a81548160ff0219169083151502179055505b600860009054906101000a900460ff1680156103f15750600860019054906101000a900460ff165b15610412576001600860026101000a81548160ff0219169083151502179055505b565b60025481565b60035481565b6006548156fea264697066735822122006e6af869093934b77ac8521f7349b0da7e09ec97085799649f67d89eb77120864736f6c634300060100334f776e61626c653a206e6577206f776e657220697320746865207a65726f2061646472657373a2646970667358221220cbd5882cbc3fc7d9d707fa0fea7c12244f00aeb25a128b33c8dcb26447af8d1e64736f6c63430006010033",
  "source": "pragma solidity >0.4.23 <0.7.0;\n\nimport \"openzeppelin-solidity/contracts/math/SafeMath.sol\";\nimport \"openzeppelin-solidity/contracts/access/Ownable.sol\";\nimport \"openzeppelin-solidity/contracts/token/ERC20/IERC20.sol\";\n\nimport \"./Regulator.sol\";\nimport \"./Proposal.sol\";\n\n/// @notice An ISA factory providing the interface for creation of new ISAs\ncontract ISAFactory is Ownable {\n\n  Regulator private regulator;\n  Proposal[] private proposals;\n\n  constructor(Regulator _regulator) public {\n    regulator = _regulator;\n  }\n\n  /**\n   * @dev Creates new ISA proposal which is given to Regulator for approval\n   *\n   * Returns a boolean value and message indicating whether the operation\n   * succeeded and why.\n   */\n  function newProposal(\n    address _lenderAddress,\n    address _borrowerAddress,\n    uint256 _isaAmount,\n    uint256 _incomePercentage,\n    uint256 _timePeriod,\n    uint256 _buyoutAmount,\n    uint256 _minimumIncome,\n    uint256 _paymentCap\n  )\n    external\n  {\n    require(_lenderAddress != address(0));\n    require(_borrowerAddress != address(0));\n    require(_isaAmount > 0);\n    require(_incomePercentage >= 0);\n    require(_incomePercentage <= 100);\n    require(_timePeriod > 0);\n    require(_buyoutAmount > 0);\n    require(_minimumIncome > 0);\n    require(_paymentCap > 0);\n\n    Proposal proposal = new Proposal(_lenderAddress, _borrowerAddress,\n      _isaAmount, _incomePercentage, _timePeriod, _buyoutAmount, _minimumIncome,\n      _paymentCap);\n\n    proposals.push(proposal);\n  }\n\n  function requestProposal(Proposal proposal) external returns(bool, string memory){\n    return regulator.request(proposal);\n  }\n\n  function getProposalNumber() public view returns (uint256) {\n    uint256 j = 0;\n    for (uint256 i = 0 ; i < proposals.length ; i++) {\n      if (proposals[i].lenderAddress() == msg.sender || proposals[i].borrowerAddress() == msg.sender) {\n        j++;\n      }\n    }\n    return j;\n  }\n\n  function getAllProposalNumber() public view returns (uint256) {\n    return proposals.length;\n  }\n\n  function getProposals() external returns (Proposal[] memory coll)\n  {\n    coll = new Proposal[](getProposalNumber());\n\n    uint256 j = 0;\n    for (uint256 i = 0 ; i < proposals.length ; i++) {\n      if (proposals[i].lenderAddress() == msg.sender || proposals[i].borrowerAddress() == msg.sender) {\n        coll[j] = proposals[i];\n        j++;\n      }\n    }\n\n    return coll;\n  }\n\n  function getAllProposals() external returns (Proposal[] memory coll)\n  {\n    coll = new Proposal[](proposals.length);\n\n    for (uint256 i = 0 ; i < proposals.length ; i++) {\n        coll[i] = proposals[i];\n    }\n\n    return coll;\n  }\n\n  /**\n   * @dev Creates a new ISA\n   */\n  function newISA() public onlyOwner {\n\n  }\n}\n",
  "sourcePath": "/Users/FinnHarman/Google Drive/Computing Science/Individual Project/Code/ISA/contracts/ISAFactory.sol",
  "compiler": {
    "name": "solc",
    "version": "0.6.1+commit.e6f7d5a4.Emscripten.clang"
  },
  "schemaVersion": "3.2.0",
  "updatedAt": "2020-08-01T15:16:43.794Z",
  "networkType": "ethereum",
  "devdoc": {
    "methods": {
      "newISA()": {
        "details": "Creates a new ISA"
      },
      "newProposal(address,address,uint256,uint256,uint256,uint256,uint256,uint256)": {
        "details": "Creates new ISA proposal which is given to Regulator for approval   * Returns a boolean value and message indicating whether the operation succeeded and why."
      },
      "owner()": {
        "details": "Returns the address of the current owner."
      },
      "renounceOwnership()": {
        "details": "Leaves the contract without owner. It will not be possible to call `onlyOwner` functions anymore. Can only be called by the current owner.     * NOTE: Renouncing ownership will leave the contract without an owner, thereby removing any functionality that is only available to the owner."
      },
      "transferOwnership(address)": {
        "details": "Transfers ownership of the contract to a new account (`newOwner`). Can only be called by the current owner."
      }
    }
  },
  "userdoc": {
    "methods": {},
    "notice": "An ISA factory providing the interface for creation of new ISAs"
  }
}