{
  "contractName": "ISAFactory",
  "abi": [
    {
      "inputs": [
        {
          "internalType": "contract Regulator",
          "name": "_regulator",
          "type": "address"
        }
      ],
      "stateMutability": "nonpayable",
      "type": "constructor"
    },
    {
      "anonymous": false,
      "inputs": [
        {
          "indexed": true,
          "internalType": "address",
          "name": "previousOwner",
          "type": "address"
        },
        {
          "indexed": true,
          "internalType": "address",
          "name": "newOwner",
          "type": "address"
        }
      ],
      "name": "OwnershipTransferred",
      "type": "event"
    },
    {
      "inputs": [],
      "name": "owner",
      "outputs": [
        {
          "internalType": "address",
          "name": "",
          "type": "address"
        }
      ],
      "stateMutability": "view",
      "type": "function",
      "constant": true
    },
    {
      "inputs": [],
      "name": "renounceOwnership",
      "outputs": [],
      "stateMutability": "nonpayable",
      "type": "function"
    },
    {
      "inputs": [
        {
          "internalType": "address",
          "name": "newOwner",
          "type": "address"
        }
      ],
      "name": "transferOwnership",
      "outputs": [],
      "stateMutability": "nonpayable",
      "type": "function"
    },
    {
      "inputs": [
        {
          "internalType": "address",
          "name": "_lenderAddress",
          "type": "address"
        },
        {
          "internalType": "address",
          "name": "_borrowerAddress",
          "type": "address"
        },
        {
          "internalType": "uint256",
          "name": "_isaAmount",
          "type": "uint256"
        },
        {
          "internalType": "uint256",
          "name": "_incomePercentage",
          "type": "uint256"
        },
        {
          "internalType": "uint256",
          "name": "_timePeriod",
          "type": "uint256"
        },
        {
          "internalType": "uint256",
          "name": "_minimumIncome",
          "type": "uint256"
        },
        {
          "internalType": "uint256",
          "name": "_paymentCap",
          "type": "uint256"
        },
        {
          "internalType": "string",
          "name": "_symbol",
          "type": "string"
        }
      ],
      "name": "newProposal",
      "outputs": [],
      "stateMutability": "nonpayable",
      "type": "function"
    },
    {
      "inputs": [],
      "name": "getRegulatorAddress",
      "outputs": [
        {
          "internalType": "address",
          "name": "",
          "type": "address"
        }
      ],
      "stateMutability": "view",
      "type": "function",
      "constant": true
    },
    {
      "inputs": [],
      "name": "getUsersProposalNumber",
      "outputs": [
        {
          "internalType": "uint256",
          "name": "",
          "type": "uint256"
        }
      ],
      "stateMutability": "view",
      "type": "function",
      "constant": true
    },
    {
      "inputs": [],
      "name": "getUsersProposals",
      "outputs": [
        {
          "internalType": "contract Proposal[]",
          "name": "coll",
          "type": "address[]"
        }
      ],
      "stateMutability": "view",
      "type": "function",
      "constant": true
    },
    {
      "inputs": [],
      "name": "getUsersISANumber",
      "outputs": [
        {
          "internalType": "uint256",
          "name": "",
          "type": "uint256"
        }
      ],
      "stateMutability": "view",
      "type": "function",
      "constant": true
    },
    {
      "inputs": [],
      "name": "getUsersISAs",
      "outputs": [
        {
          "internalType": "contract ISA[]",
          "name": "coll",
          "type": "address[]"
        }
      ],
      "stateMutability": "view",
      "type": "function",
      "constant": true
    },
    {
      "inputs": [],
      "name": "getAllProposalNumber",
      "outputs": [
        {
          "internalType": "uint256",
          "name": "",
          "type": "uint256"
        }
      ],
      "stateMutability": "view",
      "type": "function",
      "constant": true
    },
    {
      "inputs": [],
      "name": "getAllProposals",
      "outputs": [
        {
          "internalType": "contract Proposal[]",
          "name": "coll",
          "type": "address[]"
        }
      ],
      "stateMutability": "view",
      "type": "function",
      "constant": true
    },
    {
      "inputs": [],
      "name": "getAllISANumber",
      "outputs": [
        {
          "internalType": "uint256",
          "name": "",
          "type": "uint256"
        }
      ],
      "stateMutability": "view",
      "type": "function",
      "constant": true
    },
    {
      "inputs": [],
      "name": "getAllISAs",
      "outputs": [
        {
          "internalType": "contract ISA[]",
          "name": "coll",
          "type": "address[]"
        }
      ],
      "stateMutability": "view",
      "type": "function",
      "constant": true
    },
    {
      "inputs": [],
      "name": "getAllAgreedProposalNumber",
      "outputs": [
        {
          "internalType": "uint256",
          "name": "",
          "type": "uint256"
        }
      ],
      "stateMutability": "view",
      "type": "function",
      "constant": true
    },
    {
      "inputs": [],
      "name": "getAllAgreedProposals",
      "outputs": [
        {
          "internalType": "contract Proposal[]",
          "name": "coll",
          "type": "address[]"
        }
      ],
      "stateMutability": "view",
      "type": "function",
      "constant": true
    },
    {
      "inputs": [
        {
          "internalType": "address payable",
          "name": "_lenderAddress",
          "type": "address"
        },
        {
          "internalType": "address payable",
          "name": "_borrowerAddress",
          "type": "address"
        },
        {
          "internalType": "uint256",
          "name": "_isaAmount",
          "type": "uint256"
        },
        {
          "internalType": "uint256",
          "name": "_incomePercentage",
          "type": "uint256"
        },
        {
          "internalType": "uint256",
          "name": "_timePeriod",
          "type": "uint256"
        },
        {
          "internalType": "uint256",
          "name": "_minimumIncome",
          "type": "uint256"
        },
        {
          "internalType": "uint256",
          "name": "_paymentCap",
          "type": "uint256"
        },
        {
          "internalType": "string",
          "name": "_symbol",
          "type": "string"
        }
      ],
      "name": "newISA",
      "outputs": [],
      "stateMutability": "nonpayable",
      "type": "function"
    }
  ],
  "bytecode": "0x608060405234801561001057600080fd5b506040516145963803806145968339818101604052602081101561003357600080fd5b505160006100486001600160e01b036100b716565b600080546001600160a01b0319166001600160a01b0383169081178255604051929350917f8be0079c531659141344cd1fd0a4f28419497f9722a3daafe3b4186f6b6457e0908290a350600180546001600160a01b0319166001600160a01b03929092169190911790556100bb565b3390565b6144cc806100ca6000396000f3fe60806040523480156200001157600080fd5b5060043610620001185760003560e01c8063890cdc2711620000a5578063b23f97ae116200006f578063b23f97ae1462000399578063c5f22e9014620003a3578063cceb68f514620003ad578063f2fde38b14620003b75762000118565b8063890cdc2714620003715780638b8aa578146200037b5780638da5cb5b1462000385578063a133e891146200038f5762000118565b8063297c8db211620000e7578063297c8db2146200021b5780633942e5c5146200022557806357cedb331462000281578063715018a614620003675762000118565b8063069c6d86146200011d5780630fc77be91462000139578063162d4bff146200015f5780631664c27d1462000169575b600080fd5b62000127620003e0565b60408051918252519081900360200190f35b620001436200052c565b604080516001600160a01b039092168252519081900360200190f35b62000127620005be565b6200021960048036036101008110156200018257600080fd5b6001600160a01b03823581169260208101359091169160408201359160608101359160808201359160a08101359160c08201359190810190610100810160e0820135640100000000811115620001d757600080fd5b820183602082011115620001ea57600080fd5b803590602001918460018302840111640100000000831117156200020d57600080fd5b509092509050620005c4565b005b62000127620006f7565b6200022f620006fd565b60408051602080825283518183015283519192839290830191858101910280838360005b838110156200026d57818101518382015260200162000253565b505050509050019250505060405180910390f35b6200021960048036036101008110156200029a57600080fd5b6001600160a01b03823581169260208101359091169160408201359160608101359160808201359160a08101359160c08201359190810190610100810160e0820135640100000000811115620002ef57600080fd5b8201836020820111156200030257600080fd5b803590602001918460018302840111640100000000831117156200032557600080fd5b91908080601f016020809104026020016040519081016040528093929190818152602001838380828437600092019190915250929550620008d1945050505050565b6200021962000acf565b6200022f62000b93565b6200022f62000d7e565b6200014362000eb3565b6200012762000ec2565b6200022f62001024565b62000127620010c2565b6200022f6200116e565b6200021960048036036020811015620003cf57600080fd5b50356001600160a01b031662001208565b600080805b600354811015620005265760038181548110620003fe57fe5b600091825260209182902001546040805163709b896160e01b815233600482015290516001600160a01b039092169263709b896192602480840193829003018186803b1580156200044e57600080fd5b505afa15801562000463573d6000803e3d6000fd5b505050506040513d60208110156200047a57600080fd5b505180620005105750600381815481106200049157fe5b600091825260209182902001546040805163eaf6e48360e01b815233600482015290516001600160a01b039092169263eaf6e48392602480840193829003018186803b158015620004e157600080fd5b505afa158015620004f6573d6000803e3d6000fd5b505050506040513d60208110156200050d57600080fd5b50515b156200051d576001909101905b600101620003e5565b50905090565b600154604080517f8da5cb5b00000000000000000000000000000000000000000000000000000000815290516000926001600160a01b031691638da5cb5b916004808301926020929190829003018186803b1580156200058b57600080fd5b505afa158015620005a0573d6000803e3d6000fd5b505050506040513d6020811015620005b757600080fd5b5051905090565b60025490565b6000898989898989898989600160009054906101000a90046001600160a01b0316604051620005f39062001328565b6001600160a01b03808c1682528a81166020830152604082018a9052606082018990526080820188905260a0820187905260c08201869052821661010082015261012060e0820181815290820184905261014082018585808284376000838201819052604051601f909201601f19169093018190039e509c50909a5050505050505050505050f0801580156200068d573d6000803e3d6000fd5b50600280546001810182556000919091527f405787fa12a823e0f2b7631cc41b3ba8828b3321ca811111fa75cd3aa3bb5ace01805473ffffffffffffffffffffffffffffffffffffffff19166001600160a01b039290921691909117905550505050505050505050565b60035490565b606062000709620003e0565b60405190808252806020026020018201604052801562000733578160200160208202803883390190505b5090506000805b600354811015620008cc57600381815481106200075357fe5b600091825260209182902001546040805163709b896160e01b815233600482015290516001600160a01b039092169263709b896192602480840193829003018186803b158015620007a357600080fd5b505afa158015620007b8573d6000803e3d6000fd5b505050506040513d6020811015620007cf57600080fd5b50518062000865575060038181548110620007e657fe5b600091825260209182902001546040805163eaf6e48360e01b815233600482015290516001600160a01b039092169263eaf6e48392602480840193829003018186803b1580156200083657600080fd5b505afa1580156200084b573d6000803e3d6000fd5b505050506040513d60208110156200086257600080fd5b50515b15620008c357600381815481106200087957fe5b9060005260206000200160009054906101000a90046001600160a01b0316838381518110620008a457fe5b6001600160a01b03909216602092830291909101909101526001909101905b6001016200073a565b505090565b620008db62001324565b6000546001600160a01b039081169116146200093e576040805162461bcd60e51b815260206004820181905260248201527f4f776e61626c653a2063616c6c6572206973206e6f7420746865206f776e6572604482015290519081900360640190fd5b60008888888888888888600160009054906101000a90046001600160a01b03166040516200096c9062001336565b808a6001600160a01b03166001600160a01b03168152602001896001600160a01b03166001600160a01b0316815260200188815260200187815260200186815260200185815260200184815260200180602001836001600160a01b03166001600160a01b03168152602001828103825284818151815260200191508051906020019080838360005b8381101562000a0e578181015183820152602001620009f4565b50505050905090810190601f16801562000a3c5780820380516001836020036101000a031916815260200191505b509a5050505050505050505050604051809103906000f08015801562000a66573d6000803e3d6000fd5b50600380546001810182556000919091527fc2575a0e9e593c00f959f8c92f12db2869c3395a3b0502d05e2516446f71f85b01805473ffffffffffffffffffffffffffffffffffffffff19166001600160a01b0392909216919091179055505050505050505050565b62000ad962001324565b6000546001600160a01b0390811691161462000b3c576040805162461bcd60e51b815260206004820181905260248201527f4f776e61626c653a2063616c6c6572206973206e6f7420746865206f776e6572604482015290519081900360640190fd5b600080546040516001600160a01b03909116907f8be0079c531659141344cd1fd0a4f28419497f9722a3daafe3b4186f6b6457e0908390a36000805473ffffffffffffffffffffffffffffffffffffffff19169055565b606062000b9f62000ec2565b60405190808252806020026020018201604052801562000bc9578160200160208202803883390190505b5090506000805b600254811015620008cc57336001600160a01b03166002828154811062000bf357fe5b60009182526020918290200154604080516369d8125560e01b815290516001600160a01b03909216926369d8125592600480840193829003018186803b15801562000c3d57600080fd5b505afa15801562000c52573d6000803e3d6000fd5b505050506040513d602081101562000c6957600080fd5b50516001600160a01b0316148062000d175750336001600160a01b03166002828154811062000c9457fe5b6000918252602091829020015460408051637ba61ea560e01b815290516001600160a01b0390921692637ba61ea592600480840193829003018186803b15801562000cde57600080fd5b505afa15801562000cf3573d6000803e3d6000fd5b505050506040513d602081101562000d0a57600080fd5b50516001600160a01b0316145b1562000d75576002818154811062000d2b57fe5b9060005260206000200160009054906101000a90046001600160a01b031683838151811062000d5657fe5b6001600160a01b03909216602092830291909101909101526001909101905b60010162000bd0565b606062000d8a620010c2565b60405190808252806020026020018201604052801562000db4578160200160208202803883390190505b5090506000805b600254811015620008cc576002818154811062000dd457fe5b600091825260209182902001546040805163114267b960e31b815290516001600160a01b0390921692638a133dc892600480840193829003018186803b15801562000e1e57600080fd5b505afa15801562000e33573d6000803e3d6000fd5b505050506040513d602081101562000e4a57600080fd5b50511562000eaa576002818154811062000e6057fe5b9060005260206000200160009054906101000a90046001600160a01b031683838151811062000e8b57fe5b6001600160a01b03909216602092830291909101909101526001909101905b60010162000dbb565b6000546001600160a01b031690565b600080805b6002548110156200052657336001600160a01b03166002828154811062000eea57fe5b60009182526020918290200154604080516369d8125560e01b815290516001600160a01b03909216926369d8125592600480840193829003018186803b15801562000f3457600080fd5b505afa15801562000f49573d6000803e3d6000fd5b505050506040513d602081101562000f6057600080fd5b50516001600160a01b031614806200100e5750336001600160a01b03166002828154811062000f8b57fe5b6000918252602091829020015460408051637ba61ea560e01b815290516001600160a01b0390921692637ba61ea592600480840193829003018186803b15801562000fd557600080fd5b505afa15801562000fea573d6000803e3d6000fd5b505050506040513d60208110156200100157600080fd5b50516001600160a01b0316145b156200101b576001909101905b60010162000ec7565b600354604080518281526020808402820101909152606091801562001053578160200160208202803883390190505b50905060005b600354811015620010be57600381815481106200107257fe5b9060005260206000200160009054906101000a90046001600160a01b03168282815181106200109d57fe5b6001600160a01b039092166020928302919091019091015260010162001059565b5090565b600080805b600254811015620005265760028181548110620010e057fe5b600091825260209182902001546040805163114267b960e31b815290516001600160a01b0390921692638a133dc892600480840193829003018186803b1580156200112a57600080fd5b505afa1580156200113f573d6000803e3d6000fd5b505050506040513d60208110156200115657600080fd5b50511562001165576001909101905b600101620010c7565b60025460408051828152602080840282010190915260609180156200119d578160200160208202803883390190505b50905060005b600254811015620010be5760028181548110620011bc57fe5b9060005260206000200160009054906101000a90046001600160a01b0316828281518110620011e757fe5b6001600160a01b0390921660209283029190910190910152600101620011a3565b6200121262001324565b6000546001600160a01b0390811691161462001275576040805162461bcd60e51b815260206004820181905260248201527f4f776e61626c653a2063616c6c6572206973206e6f7420746865206f776e6572604482015290519081900360640190fd5b6001600160a01b038116620012bc5760405162461bcd60e51b8152600401808060200182810382526026815260200180620044716026913960400191505060405180910390fd5b600080546040516001600160a01b03808516939216917f8be0079c531659141344cd1fd0a4f28419497f9722a3daafe3b4186f6b6457e091a36000805473ffffffffffffffffffffffffffffffffffffffff19166001600160a01b0392909216919091179055565b3390565b610c80806200134583390190565b6124ac8062001fc58339019056fe608060405234801561001057600080fd5b50604051610c80380380610c80833981810160405261012081101561003457600080fd5b815160208301516040808501516060860151608087015160a088015160c089015160e08a0180519651989a97999598949793969295919493918201928464010000000082111561008357600080fd5b90830190602082018581111561009857600080fd5b82516401000000008111828201881017156100b257600080fd5b82525081516020918201929091019080838360005b838110156100df5781810151838201526020016100c7565b50505050905090810190601f16801561010c5780820380516001836020036101000a031916815260200191505b506040526020015191505086610169576040805162461bcd60e51b815260206004820152601360248201527f495341206d75737420686176652076616c756500000000000000000000000000604482015290519081900360640190fd5b600086116101a85760405162461bcd60e51b815260040180806020018281038252602a815260200180610c2b602a913960400191505060405180910390fd5b603286106101e75760405162461bcd60e51b815260040180806020018281038252602a815260200180610c2b602a913960400191505060405180910390fd5b6000851161023c576040805162461bcd60e51b815260206004820152601c60248201527f54696d6520706572696f64206d75737420626520706f73697469766500000000604482015290519081900360640190fd5b673a4965bf58a400008410156102835760405162461bcd60e51b815260040180806020018281038252602b815260200180610c55602b913960400191505060405180910390fd5b600083116102d8576040805162461bcd60e51b815260206004820152601c60248201527f5061796d656e7420636170206d75737420626520706f73697469766500000000604482015290519081900360640190fd5b8383116103165760405162461bcd60e51b815260040180806020018281038252602f815260200180610bfc602f913960400191505060405180910390fd5b806001600160a01b031663876424498a6040518263ffffffff1660e01b815260040180826001600160a01b03166001600160a01b0316815260200191505060206040518083038186803b15801561036c57600080fd5b505afa158015610380573d6000803e3d6000fd5b505050506040513d602081101561039657600080fd5b50516103e9576040805162461bcd60e51b815260206004820152601960248201527f6c656e646572206d757374206265207265676973746572656400000000000000604482015290519081900360640190fd5b806001600160a01b03166387642449896040518263ffffffff1660e01b815260040180826001600160a01b03166001600160a01b0316815260200191505060206040518083038186803b15801561043f57600080fd5b505afa158015610453573d6000803e3d6000fd5b505050506040513d602081101561046957600080fd5b50516104bc576040805162461bcd60e51b815260206004820152601b60248201527f626f72726f776572206d75737420626520726567697374657265640000000000604482015290519081900360640190fd5b600180546001600160a01b03808c166001600160a01b03199283161790925560028054928b1692909116919091179055600387905560048690556005859055600684905560078390558151610518906008906020850190610553565b50600080546001600160a01b0319166001600160a01b039290921691909117905550506009805462ffffff19169055506105ee945050505050565b828054600181600116156101000203166002900490600052602060002090601f016020900481019282601f1061059457805160ff19168380011785556105c1565b828001600101855582156105c1579182015b828111156105c15782518255916020019190600101906105a6565b506105cd9291506105d1565b5090565b6105eb91905b808211156105cd57600081556001016105d7565b90565b6105ff806105fd6000396000f3fe608060405234801561001057600080fd5b50600436106101365760003560e01c80638a133dc8116100b2578063ba11107911610081578063e66a6b2211610066578063e66a6b221461026c578063e9497b5f14610274578063f1b79e531461027c57610136565b8063ba1110791461025c578063d13b0e641461026457610136565b80638a133dc8146101c75780638fae60a5146101cf57806395d89b41146101d75780639c30ad7e1461025457610136565b80634c2067c71161010957806369d81255116100ee57806369d812551461019357806379599f96146101b75780637ba61ea5146101bf57610136565b80634c2067c7146101815780634dc415de1461018957610136565b80631b39c3581461013b578063320164d514610157578063347775b01461015f5780633e79d1e114610179575b600080fd5b610143610284565b604080519115158252519081900360200190f35b610143610292565b61016761029b565b60408051918252519081900360200190f35b6101676102a1565b6101436102a7565b6101916102b8565b005b61019b6102f9565b604080516001600160a01b039092168252519081900360200190f35b610191610308565b61019b6103ac565b6101436103bb565b6101916103ca565b6101df61045d565b6040805160208082528351818301528351919283929083019185019080838360005b83811015610219578181015183820152602001610201565b50505050905090810190601f1680156102465780820380516001836020036101000a031916815260200191505b509250505060405180910390f35b6101436104eb565b61016761054e565b610143610554565b610143610564565b6101676105bd565b6101676105c3565b600954610100900460ff1681565b60095460ff1681565b60075481565b60055481565b600954640100000000900460ff1681565b6001546001600160a01b03163314806102db57506002546001600160a01b031633145b6102e457600080fd5b6009805463ff00000019166301000000179055565b6001546001600160a01b031681565b6000809054906101000a90046001600160a01b03166001600160a01b0316638da5cb5b6040518163ffffffff1660e01b815260040160206040518083038186803b15801561035557600080fd5b505afa158015610369573d6000803e3d6000fd5b505050506040513d602081101561037f57600080fd5b50516001600160a01b0316331461039557600080fd5b6009805464ff000000001916640100000000179055565b6002546001600160a01b031681565b60095462010000900460ff1681565b6001546001600160a01b03163314806103ed57506002546001600160a01b031633145b6103f657600080fd5b6001546001600160a01b031633141561041b576009805460ff1916600117905561042b565b6009805461ff0019166101001790555b60095460ff1680156104445750600954610100900460ff165b1561045b576009805462ff00001916620100001790555b565b6008805460408051602060026001851615610100026000190190941693909304601f810184900484028201840190925281815292918301828280156104e35780601f106104b8576101008083540402835291602001916104e3565b820191906000526020600020905b8154815290600101906020018083116104c657829003601f168201915b505050505081565b6001546000906001600160a01b03163314801561050b575060095460ff16155b156105185750600161054b565b6002546001600160a01b03163314801561053a5750600954610100900460ff16155b156105475750600161054b565b5060005b90565b60035481565b6009546301000000900460ff1681565b6001546000906001600160a01b031633148015610583575060095460ff165b156105905750600161054b565b6002546001600160a01b03163314801561053a5750600954610100900460ff16156105475750600161054b565b60045481565b6006548156fea26469706673582212200e7da44b2c6ba4a92d43818e357c62731c18efb2ad399efd2e01b5443789cf8064736f6c634300060100335061796d656e7420636170206d7573742062652067726561746572207468616e206d696e696d756d20696e636f6d65496e636f6d652070657263656e74616765206d757374206265206265747765656e203020616e642035304d696e696d756d20696e636f6d65206d7573742062652067726561746572207468616e20342e322065746860806040523480156200001157600080fd5b50604051620024ac380380620024ac83398181016040526101208110156200003857600080fd5b815160208301516040808501516060860151608087015160a088015160c089015160e08a0180519651989a9799959894979396929591949391820192846401000000008211156200008857600080fd5b9083019060208201858111156200009e57600080fd5b8251640100000000811182820188101715620000b957600080fd5b82525081516020918201929091019080838360005b83811015620000e8578181015183820152602001620000ce565b50505050905090810190601f168015620001165780820380516001836020036101000a031916815260200191505b5060405260200151915060009050620001376001600160e01b03620003db16565b600080546001600160a01b0319166001600160a01b0383169081178255604051929350917f8be0079c531659141344cd1fd0a4f28419497f9722a3daafe3b4186f6b6457e0908290a350806001600160a01b031663876424498a6040518263ffffffff1660e01b815260040180826001600160a01b03166001600160a01b0316815260200191505060206040518083038186803b158015620001d857600080fd5b505afa158015620001ed573d6000803e3d6000fd5b505050506040513d60208110156200020457600080fd5b50516200021057600080fd5b806001600160a01b03166387642449896040518263ffffffff1660e01b815260040180826001600160a01b03166001600160a01b0316815260200191505060206040518083038186803b1580156200026757600080fd5b505afa1580156200027c573d6000803e3d6000fd5b505050506040513d60208110156200029357600080fd5b50516200029f57600080fd5b60008711620002ad57600080fd5b6064861115620002bc57600080fd5b60008511620002ca57600080fd5b60008411620002d857600080fd5b60008311620002e657600080fd5b838311620002f357600080fd5b600380546001600160a01b03808c166001600160a01b03199283161790925560048054928b169290911691909117905560058790556006869055600785905560088490556009839055815162000351906002906020850190620003e0565b50601380546001600160a01b039283166001600160a01b031991821617909155600354601180546001818101835560009283527f31ecc21a745e3968a04e9570e4425bc18fa8019c68028196b546d1669c200c68909101805490941692909416919091179091556064909155600d555050600a805462ffffff191690555062000482945050505050565b335b90565b828054600181600116156101000203166002900490600052602060002090601f016020900481019282601f106200042357805160ff191683800117855562000453565b8280016001018555821562000453579182015b828111156200045357825182559160200191906001019062000436565b506200046192915062000465565b5090565b620003dd91905b808211156200046157600081556001016200046c565b61201a80620004926000396000f3fe6080604052600436106102d15760003560e01c80637f4ab1dd11610179578063ba111079116100d6578063e8463d141161008a578063f1b79e5311610064578063f1b79e53146108dc578063f2fde38b146108f1578063f606841e14610924576102d1565b8063e8463d1414610858578063e9497b5f14610894578063eaf6e483146108a9576102d1565b8063d4ce1415116100bb578063d4ce1415146107af578063dd62ed3e14610808578063e7b0f66614610843576102d1565b8063ba11107914610785578063c256e2241461079a576102d1565b806395d89b411161012d57806399884ccc1161011257806399884ccc1461072f578063a9059cbb14610744578063b83349601461077d576102d1565b806395d89b41146106f0578063971d852f14610705576102d1565b80638da5cb5b1161015e5780638da5cb5b14610672578063929eea211461068757806392a1f7e8146106b1576102d1565b80637f4ab1dd1461055c57806381d12c58146105fe576102d1565b80633197cbb6116102325780635f73c3ff116101e6578063715018a6116101c0578063715018a61461050157806378e97925146105165780637ba61ea51461052b576102d1565b80635f73c3ff14610493578063709b89611461049b57806370a08231146104ce576102d1565b80633e79d1e1116102175780633e79d1e1146104615780633fad1834146104765780634800f8981461048b576102d1565b80633197cbb614610437578063347775b01461044c576102d1565b80631f2698ab1161028957806323b872dd1161026e57806323b872dd146103b35780632ca15122146103f65780632fb1b25f1461040d576102d1565b80631f2698ab14610389578063232a6b9d1461039e576102d1565b80631300a6d1116102ba5780631300a6d11461033857806318160ddd1461035f5780631829b73f14610374576102d1565b8063095ea7b3146102d657806312fa6feb14610323575b600080fd5b3480156102e257600080fd5b5061030f600480360360408110156102f957600080fd5b506001600160a01b03813516906020013561094e565b604080519115158252519081900360200190f35b34801561032f57600080fd5b5061030f610957565b34801561034457600080fd5b5061034d610966565b60408051918252519081900360200190f35b34801561036b57600080fd5b5061034d6109c2565b34801561038057600080fd5b5061034d6109c8565b34801561039557600080fd5b5061030f610a52565b3480156103aa57600080fd5b5061030f610a60565b3480156103bf57600080fd5b5061030f600480360360608110156103d657600080fd5b506001600160a01b03813581169160208101359091169060400135610a69565b34801561040257600080fd5b5061040b610a72565b005b34801561041957600080fd5b5061040b6004803603602081101561043057600080fd5b5035610a81565b34801561044357600080fd5b5061034d610abb565b34801561045857600080fd5b5061034d610ac1565b34801561046d57600080fd5b5061034d610ac7565b34801561048257600080fd5b5061034d610acd565b61040b610ad3565b61040b610cc4565b3480156104a757600080fd5b5061030f600480360360208110156104be57600080fd5b50356001600160a01b0316610f46565b3480156104da57600080fd5b5061034d600480360360208110156104f157600080fd5b50356001600160a01b0316610fa3565b34801561050d57600080fd5b5061040b610fbe565b34801561052257600080fd5b5061034d61107f565b34801561053757600080fd5b50610540611085565b604080516001600160a01b039092168252519081900360200190f35b34801561056857600080fd5b506105896004803603602081101561057f57600080fd5b503560ff16611094565b6040805160208082528351818301528351919283929083019185019080838360005b838110156105c35781810151838201526020016105ab565b50505050905090810190601f1680156105f05780820380516001836020036101000a031916815260200191505b509250505060405180910390f35b34801561060a57600080fd5b506106286004803603602081101561062157600080fd5b503561112b565b604080516001600160a01b03988916815296909716602087015285870194909452606085019290925215156080840152151560a0830152151560c082015290519081900360e00190f35b34801561067e57600080fd5b5061054061118b565b34801561069357600080fd5b50610540600480360360208110156106aa57600080fd5b503561119a565b3480156106bd57600080fd5b5061040b600480360360608110156106d457600080fd5b506001600160a01b0381351690602081013590604001356111c1565b3480156106fc57600080fd5b5061058961143c565b34801561071157600080fd5b5061040b6004803603602081101561072857600080fd5b50356114c7565b34801561073b57600080fd5b5061030f611501565b34801561075057600080fd5b5061030f6004803603604081101561076757600080fd5b506001600160a01b03813516906020013561150a565b61040b6115bf565b34801561079157600080fd5b5061034d611876565b3480156107a657600080fd5b5061054061187c565b3480156107bb57600080fd5b506107f2600480360360608110156107d257600080fd5b506001600160a01b0381358116916020810135909116906040013561188b565b6040805160ff9092168252519081900360200190f35b34801561081457600080fd5b5061034d6004803603604081101561082b57600080fd5b506001600160a01b0381358116916020013516611956565b34801561084f57600080fd5b5061034d611981565b61040b6004803603608081101561086e57600080fd5b506001600160a01b03813581169160208101359091169060408101359060600135611987565b3480156108a057600080fd5b5061034d611b40565b3480156108b557600080fd5b5061030f600480360360208110156108cc57600080fd5b50356001600160a01b0316611b46565b3480156108e857600080fd5b5061034d611b6f565b3480156108fd57600080fd5b5061040b6004803603602081101561091457600080fd5b50356001600160a01b0316611b75565b34801561093057600080fd5b5061040b6004803603602081101561094757600080fd5b5035611c8c565b60015b92915050565b600a5462010000900460ff1681565b600a5460009062010000900460ff16156109b8576040805162461bcd60e51b815260206004820152600e60248201526d4953412068617320656e6465642160901b604482015290519081900360640190fd5b42600c5403905090565b60015490565b600a5460009062010000900460ff1615610a1a576040805162461bcd60e51b815260206004820152600e60248201526d4953412068617320656e6465642160901b604482015290519081900360640190fd5b6000610a486001610a3c62093a80610a30610966565b9063ffffffff611cc016565b9063ffffffff611d0916565b6009540291505090565b600a54610100900460ff1681565b600a5460ff1681565b60019392505050565b600a805460ff19166001179055565b600160128281548110610a9057fe5b906000526020600020906005020160040160016101000a81548160ff02191690831515021790555050565b600c5481565b60095481565b60075481565b60125490565b6003546001600160a01b03163314610b32576040805162461bcd60e51b815260206004820152601960248201527f6f6e6c79206c656e6465722063616e2073746172742049534100000000000000604482015290519081900360640190fd5b6005544714610b88576040805162461bcd60e51b815260206004820152601260248201527f495341206d7573742062652066756e6465640000000000000000000000000000604482015290519081900360640190fd5b6005543414610bde576040805162461bcd60e51b815260206004820152601260248201527f495341206d7573742062652066756e6465640000000000000000000000000000604482015290519081900360640190fd5b600a5460ff161515600114610c3a576040805162461bcd60e51b815260206004820152601d60248201527f6c6567616c20636f6e7472616374206d757374206265207369676e6564000000604482015290519081900360640190fd5b6001546003546001600160a01b03166000908152600f6020526040902055600a805461ff00191661010017905542600b819055600754610c85919062093a800263ffffffff611d0916565b600c556004546040516001600160a01b03909116903480156108fc02916000818181858888f19350505050158015610cc1573d6000803e3d6000fd5b50565b600a5462010000900460ff1615610d13576040805162461bcd60e51b815260206004820152600e60248201526d4953412068617320656e6465642160901b604482015290519081900360640190fd5b6004546001600160a01b03163314610d72576040805162461bcd60e51b815260206004820152601c60248201527f6f6e6c7920626f72726f7765722063616e206275796f75742049534100000000604482015290519081900360640190fd5b610d7a6109c8565b3414610dcd576040805162461bcd60e51b815260206004820152601960248201527f7472616e73666572206d7573742066756e64206275796f757400000000000000604482015290519081900360640190fd5b344714610e21576040805162461bcd60e51b815260206004820152601960248201527f7472616e73666572206d7573742066756e64206275796f757400000000000000604482015290519081900360640190fd5b600d54610e34903463ffffffff611d0916565b600d55600a805462ff000019166201000017905560005b601154811015610cc1576000600f600060118481548110610e6857fe5b60009182526020808320909101546001600160a01b0316835282019290925260400181209190915560015460118054610eed9291610ee191600f91869188908110610eaf57fe5b60009182526020808320909101546001600160a01b03168352820192909252604001902054349063ffffffff611cc016565b9063ffffffff611d6316565b905060118281548110610efc57fe5b60009182526020822001546040516001600160a01b039091169183156108fc02918491818181858888f19350505050158015610f3c573d6000803e3d6000fd5b5050600101610e4b565b6000805b601154811015610f9857826001600160a01b031660118281548110610f6b57fe5b6000918252602090912001546001600160a01b03161415610f90576001915050610f9e565b600101610f4a565b50600090505b919050565b6001600160a01b03166000908152600f602052604090205490565b610fc6611dbc565b6000546001600160a01b03908116911614611028576040805162461bcd60e51b815260206004820181905260248201527f4f776e61626c653a2063616c6c6572206973206e6f7420746865206f776e6572604482015290519081900360640190fd5b600080546040516001600160a01b03909116907f8be0079c531659141344cd1fd0a4f28419497f9722a3daafe3b4186f6b6457e0908390a36000805473ffffffffffffffffffffffffffffffffffffffff19169055565b600b5481565b6004546001600160a01b031681565b60608160ff16600114156110df576040518060400160405280602081526020017f546f6b656e2073656e646572732062616c616e636520697320746f6f206c6f778152509050610f9e565b8160ff166002141561110b57604051806060016040528060338152602001611fb2603391399050610f9e565b604051806080016040528060438152602001611f6f604391399050610f9e565b6012818154811061113857fe5b6000918252602090912060059091020180546001820154600283015460038401546004909401546001600160a01b03938416955091909216929060ff808216916101008104821691620100009091041687565b6000546001600160a01b031690565b601181815481106111a757fe5b6000918252602090912001546001600160a01b0316905081565b600a5462010000900460ff1615611210576040805162461bcd60e51b815260206004820152600e60248201526d4953412068617320656e6465642160901b604482015290519081900360640190fd5b338383600061122084848461188b565b905060ff81161561123082611094565b906112b95760405162461bcd60e51b81526004018080602001828103825283818151815260200191508051906020019080838360005b8381101561127e578181015183820152602001611266565b50505050905090810190601f1680156112ab5780820380516001836020036101000a031916815260200191505b509250505060405180910390fd5b506112c2611ec1565b3381526001600160a01b0397881660208201908152604082019788526060820196875260006080830181815260a0840182815260c08501838152601280546001810182559452945160059093027fbb8a6a4669ba250d26cd7a459eca9d215f8307e33aebe50379bc5a3617ec344481018054948e1673ffffffffffffffffffffffffffffffffffffffff1995861617905593517fbb8a6a4669ba250d26cd7a459eca9d215f8307e33aebe50379bc5a3617ec34458501805491909d16931692909217909a5597517fbb8a6a4669ba250d26cd7a459eca9d215f8307e33aebe50379bc5a3617ec344682015595517fbb8a6a4669ba250d26cd7a459eca9d215f8307e33aebe50379bc5a3617ec344787015596517fbb8a6a4669ba250d26cd7a459eca9d215f8307e33aebe50379bc5a3617ec34489095018054965197511515620100000262ff0000199815156101000261ff001997151560ff19909916989098179690961696909617969096169390931790935550505050565b6002805460408051602060018416156101000260001901909316849004601f810184900484028201840190925281815292918301828280156114bf5780601f10611494576101008083540402835291602001916114bf565b820191906000526020600020905b8154815290600101906020018083116114a257829003601f168201915b505050505081565b6001601282815481106114d657fe5b906000526020600020906005020160040160026101000a81548160ff02191690831515021790555050565b600e5460ff1681565b6001600160a01b0382166000908152600f6020526040812054611533908363ffffffff611d0916565b6001600160a01b0384166000908152600f6020526040808220929092553381522054611565908363ffffffff611dc016565b336000818152600f602090815260409182902093909355805185815290516001600160a01b038716937fddf252ad1be2c89b69c2b068fc378daa952ba7f163c4a11628f55a4df523b3ef928290030190a350600192915050565b600a5462010000900460ff161561160e576040805162461bcd60e51b815260206004820152600e60248201526d4953412068617320656e6465642160901b604482015290519081900360640190fd5b6004546001600160a01b0316331461166d576040805162461bcd60e51b815260206004820152601e60248201527f6f6e6c7920626f72726f7765722063616e2070617920696e746f204953410000604482015290519081900360640190fd5b3447146116c1576040805162461bcd60e51b815260206004820152601660248201527f7472616e73666572206d7573742066756e642049534100000000000000000000604482015290519081900360640190fd5b6116dd6064610a30600654600854611d6390919063ffffffff16565b34101561171b5760405162461bcd60e51b815260040180806020018281038252602a815260200180611f24602a913960400191505060405180910390fd5b600a5460ff61010090910416151560011461177d576040805162461bcd60e51b815260206004820152601560248201527f495341206d757374206861766520737461727465640000000000000000000000604482015290519081900360640190fd5b600654600954349161179c91606491610a30919063ffffffff611d6316565b8111156117a857506009545b600d546117bb903463ffffffff611d0916565b600d5560005b601154811015611872576000611819600154610a30600f6000601187815481106117e757fe5b60009182526020808320909101546001600160a01b03168352820192909252604001902054869063ffffffff611d6316565b90506011828154811061182857fe5b60009182526020822001546040516001600160a01b039091169183156108fc02918491818181858888f19350505050158015611868573d6000803e3d6000fd5b50506001016117c1565b5050565b60055481565b6003546001600160a01b031681565b336000908152600f602052604081205481908311156118a8575060015b600083116118b4575060025b601354604080517f876424490000000000000000000000000000000000000000000000000000000081526001600160a01b038781166004830152915191909216916387642449916024808301926020929190829003018186803b15801561191a57600080fd5b505afa15801561192e573d6000803e3d6000fd5b505050506040513d602081101561194457600080fd5b505161194e575060035b949350505050565b6001600160a01b03918216600090815260106020908152604080832093909416825291909152205490565b600d5481565b600a5462010000900460ff16156119d6576040805162461bcd60e51b815260206004820152600e60248201526d4953412068617320656e6465642160901b604482015290519081900360640190fd5b336001600160a01b038516146119eb57600080fd5b803414611a3f576040805162461bcd60e51b815260206004820152601760248201527f7472616e73666572206d7573742062652066756e646564000000000000000000604482015290519081900360640190fd5b344714611a93576040805162461bcd60e51b815260206004820152601760248201527f7472616e73666572206d7573742062652066756e646564000000000000000000604482015290519081900360640190fd5b6001600160a01b0384166000908152600f6020526040902054611abc908363ffffffff611d0916565b6001600160a01b038086166000908152600f60205260408082209390935590851681522054611af1908363ffffffff611dc016565b6001600160a01b0384166000818152600f602052604080822093909355915190913480156108fc02929091818181858888f19350505050158015611b39573d6000803e3d6000fd5b5050505050565b60065481565b6004546000906001600160a01b0383811691161415611b6757506001610f9e565b506000919050565b60085481565b611b7d611dbc565b6000546001600160a01b03908116911614611bdf576040805162461bcd60e51b815260206004820181905260248201527f4f776e61626c653a2063616c6c6572206973206e6f7420746865206f776e6572604482015290519081900360640190fd5b6001600160a01b038116611c245760405162461bcd60e51b8152600401808060200182810382526026815260200180611efe6026913960400191505060405180910390fd5b600080546040516001600160a01b03808516939216917f8be0079c531659141344cd1fd0a4f28419497f9722a3daafe3b4186f6b6457e091a36000805473ffffffffffffffffffffffffffffffffffffffff19166001600160a01b0392909216919091179055565b600160128281548110611c9b57fe5b60009182526020909120600590910201600401805460ff191691151591909117905550565b6000611d0283836040518060400160405280601a81526020017f536166654d6174683a206469766973696f6e206279207a65726f000000000000815250611e02565b9392505050565b600082820183811015611d02576040805162461bcd60e51b815260206004820152601b60248201527f536166654d6174683a206164646974696f6e206f766572666c6f770000000000604482015290519081900360640190fd5b600082611d7257506000610951565b82820282848281611d7f57fe5b0414611d025760405162461bcd60e51b8152600401808060200182810382526021815260200180611f4e6021913960400191505060405180910390fd5b3390565b6000611d0283836040518060400160405280601e81526020017f536166654d6174683a207375627472616374696f6e206f766572666c6f770000815250611e67565b60008183611e515760405162461bcd60e51b815260206004820181815283516024840152835190928392604490910191908501908083836000831561127e578181015183820152602001611266565b506000838581611e5d57fe5b0495945050505050565b60008184841115611eb95760405162461bcd60e51b815260206004820181815283516024840152835190928392604490910191908501908083836000831561127e578181015183820152602001611266565b505050900390565b6040805160e081018252600080825260208201819052918101829052606081018290526080810182905260a0810182905260c08101919091529056fe4f776e61626c653a206e6577206f776e657220697320746865207a65726f2061646472657373696e636f6d65206d7573742062652067726561746572207468616e206d696e696d756d20696e636f6d65536166654d6174683a206d756c7469706c69636174696f6e206f766572666c6f774164647265737320746f6b656e7320617265207472616e7366657272656420746f206d7573742062652072656769737465726564207769746820526567756c61746f724e756d626572206f6620746f6b656e7320746f207472616e73666572206d7573742062652067726561746572207468616e2030a26469706673582212209bb1842147c4aee43405c24bd8865fec5d32cc2e505e9472d7f1f8bdf3932f2764736f6c634300060100334f776e61626c653a206e6577206f776e657220697320746865207a65726f2061646472657373a264697066735822122057cb947365e846c6f2156a7aca901ed2504b44cd6c26bbb2f21011cc2d0ef57964736f6c63430006010033",
  "source": "pragma solidity >0.4.23 <0.7.0;\n\nimport \"openzeppelin-solidity/contracts/math/SafeMath.sol\";\nimport \"openzeppelin-solidity/contracts/access/Ownable.sol\";\nimport \"openzeppelin-solidity/contracts/token/ERC20/IERC20.sol\";\n\nimport \"./Regulator.sol\";\nimport \"./Proposal.sol\";\nimport \"./ISA.sol\";\n\n/// @notice An ISA factory providing the interface for creation of new ISAs\ncontract ISAFactory is Ownable {\n\n  Regulator private regulator;\n  Proposal[] private proposals;\n  ISA[] private isas;\n\n  constructor(Regulator _regulator) public {\n    regulator = _regulator;\n  }\n\n  /**\n   * @dev Creates new ISA proposal which is given to Regulator for approval\n   *\n   * Returns a boolean value and message indicating whether the operation\n   * succeeded and why.\n   */\n  function newProposal(\n    address _lenderAddress,\n    address _borrowerAddress,\n    uint256 _isaAmount,\n    uint256 _incomePercentage,\n    uint256 _timePeriod,\n    uint256 _minimumIncome,\n    uint256 _paymentCap,\n    string calldata _symbol\n  )\n    external\n  {\n    Proposal proposal = new Proposal(_lenderAddress, _borrowerAddress,\n      _isaAmount, _incomePercentage, _timePeriod, _minimumIncome,\n      _paymentCap, _symbol, regulator);\n\n    proposals.push(proposal);\n  }\n\n  function getRegulatorAddress() external view returns(address) {\n    return regulator.owner();\n  }\n\n  function getUsersProposalNumber() public view returns (uint256) {\n    uint256 j = 0;\n    for (uint256 i = 0 ; i < proposals.length ; i++) {\n      if (proposals[i].lenderAddress() == msg.sender || proposals[i].borrowerAddress() == msg.sender) {\n        j++;\n      }\n    }\n    return j;\n  }\n\n  function getUsersProposals() external view returns (Proposal[] memory coll) {\n    coll = new Proposal[](getUsersProposalNumber());\n\n    uint256 j = 0;\n    for (uint256 i = 0 ; i < proposals.length ; i++) {\n      if (proposals[i].lenderAddress() == msg.sender || proposals[i].borrowerAddress() == msg.sender) {\n          coll[j] = proposals[i];\n          j++;\n      }\n    }\n\n    return coll;\n  }\n\n  function getUsersISANumber() public view returns (uint256) {\n    uint256 j = 0;\n    for (uint256 i = 0 ; i < isas.length ; i++) {\n      if (isas[i].isLender(msg.sender) || isas[i].isBorrower(msg.sender)) {\n        j++;\n      }\n    }\n    return j;\n  }\n\n  function getUsersISAs() external view returns (ISA[] memory coll) {\n    coll = new ISA[](getUsersISANumber());\n\n    uint256 j = 0;\n    for (uint256 i = 0 ; i < isas.length ; i++) {\n      if (isas[i].isLender(msg.sender) || isas[i].isBorrower(msg.sender)) {\n          coll[j] = isas[i];\n          j++;\n      }\n    }\n\n    return coll;\n  }\n\n  function getAllProposalNumber() public view returns (uint256) {\n    return proposals.length;\n  }\n\n  function getAllProposals() external view returns (Proposal[] memory coll)\n  {\n    coll = new Proposal[](proposals.length);\n\n    for (uint256 i = 0 ; i < proposals.length ; i++) {\n        coll[i] = proposals[i];\n    }\n\n    return coll;\n  }\n\n  function getAllISANumber() public view returns (uint256) {\n    return isas.length;\n  }\n\n  function getAllISAs() external view returns (ISA[] memory coll)\n  {\n    coll = new ISA[](isas.length);\n\n    for (uint256 i = 0 ; i < isas.length ; i++) {\n        coll[i] = isas[i];\n    }\n\n    return coll;\n  }\n\n  function getAllAgreedProposalNumber() public view returns (uint256) {\n    uint256 j = 0;\n    for (uint256 i = 0 ; i < proposals.length ; i++) {\n      if (proposals[i].bothAgree()) {\n        j++;\n      }\n    }\n    return j;\n  }\n\n  function getAllAgreedProposals() external view returns (Proposal[] memory coll) {\n    coll = new Proposal[](getAllAgreedProposalNumber());\n\n    uint256 j = 0;\n    for (uint256 i = 0 ; i < proposals.length ; i++) {\n      if (proposals[i].bothAgree()) {\n        coll[j] = proposals[i];\n        j++;\n      }\n    }\n\n    return coll;\n  }\n\n  /**\n   * @dev Creates a new ISA\n   */\n  function newISA(\n    address payable _lenderAddress,\n    address payable _borrowerAddress,\n    uint256 _isaAmount,\n    uint256 _incomePercentage,\n    uint256 _timePeriod,\n    uint256 _minimumIncome,\n    uint256 _paymentCap,\n    string memory _symbol\n  ) public onlyOwner {\n    ISA isa = new ISA(_lenderAddress, _borrowerAddress,\n      _isaAmount, _incomePercentage, _timePeriod, _minimumIncome,\n      _paymentCap, _symbol, regulator);\n\n    isas.push(isa);\n  }\n}\n",
  "sourcePath": "/Users/FinnHarman/Google Drive/Computing Science/Individual Project/Code/ISA/contracts/ISAFactory.sol",
  "compiler": {
    "name": "solc",
    "version": "0.6.1+commit.e6f7d5a4.Emscripten.clang"
  },
  "schemaVersion": "3.2.3",
  "updatedAt": "2020-09-02T13:30:47.109Z",
  "networkType": "ethereum",
  "devdoc": {
    "methods": {
      "newISA(address,address,uint256,uint256,uint256,uint256,uint256,string)": {
        "details": "Creates a new ISA"
      },
      "newProposal(address,address,uint256,uint256,uint256,uint256,uint256,string)": {
        "details": "Creates new ISA proposal which is given to Regulator for approval   * Returns a boolean value and message indicating whether the operation succeeded and why."
      },
      "owner()": {
        "details": "Returns the address of the current owner."
      },
      "renounceOwnership()": {
        "details": "Leaves the contract without owner. It will not be possible to call `onlyOwner` functions anymore. Can only be called by the current owner.     * NOTE: Renouncing ownership will leave the contract without an owner, thereby removing any functionality that is only available to the owner."
      },
      "transferOwnership(address)": {
        "details": "Transfers ownership of the contract to a new account (`newOwner`). Can only be called by the current owner."
      }
    }
  },
  "userdoc": {
    "methods": {},
    "notice": "An ISA factory providing the interface for creation of new ISAs"
  }
}