{
  "contractName": "ISAFactory",
  "abi": [
    {
      "inputs": [
        {
          "internalType": "contract Regulator",
          "name": "_regulator",
          "type": "address"
        }
      ],
      "stateMutability": "nonpayable",
      "type": "constructor"
    },
    {
      "anonymous": false,
      "inputs": [
        {
          "indexed": true,
          "internalType": "address",
          "name": "previousOwner",
          "type": "address"
        },
        {
          "indexed": true,
          "internalType": "address",
          "name": "newOwner",
          "type": "address"
        }
      ],
      "name": "OwnershipTransferred",
      "type": "event"
    },
    {
      "inputs": [],
      "name": "owner",
      "outputs": [
        {
          "internalType": "address",
          "name": "",
          "type": "address"
        }
      ],
      "stateMutability": "view",
      "type": "function",
      "constant": true
    },
    {
      "inputs": [],
      "name": "renounceOwnership",
      "outputs": [],
      "stateMutability": "nonpayable",
      "type": "function"
    },
    {
      "inputs": [
        {
          "internalType": "address",
          "name": "newOwner",
          "type": "address"
        }
      ],
      "name": "transferOwnership",
      "outputs": [],
      "stateMutability": "nonpayable",
      "type": "function"
    },
    {
      "inputs": [
        {
          "internalType": "address",
          "name": "_lenderAddress",
          "type": "address"
        },
        {
          "internalType": "address",
          "name": "_borrowerAddress",
          "type": "address"
        },
        {
          "internalType": "uint256",
          "name": "_isaAmount",
          "type": "uint256"
        },
        {
          "internalType": "uint256",
          "name": "_incomePercentage",
          "type": "uint256"
        },
        {
          "internalType": "uint256",
          "name": "_timePeriod",
          "type": "uint256"
        },
        {
          "internalType": "uint256",
          "name": "_buyoutAmount",
          "type": "uint256"
        },
        {
          "internalType": "uint256",
          "name": "_minimumIncome",
          "type": "uint256"
        },
        {
          "internalType": "uint256",
          "name": "_paymentCap",
          "type": "uint256"
        }
      ],
      "name": "newProposal",
      "outputs": [],
      "stateMutability": "nonpayable",
      "type": "function"
    },
    {
      "inputs": [],
      "name": "getRegulatorAddress",
      "outputs": [
        {
          "internalType": "address",
          "name": "",
          "type": "address"
        }
      ],
      "stateMutability": "view",
      "type": "function",
      "constant": true
    },
    {
      "inputs": [
        {
          "internalType": "contract Proposal",
          "name": "proposal",
          "type": "address"
        }
      ],
      "name": "requestProposal",
      "outputs": [
        {
          "internalType": "bool",
          "name": "",
          "type": "bool"
        },
        {
          "internalType": "string",
          "name": "",
          "type": "string"
        }
      ],
      "stateMutability": "nonpayable",
      "type": "function"
    },
    {
      "inputs": [],
      "name": "getUsersProposalNumber",
      "outputs": [
        {
          "internalType": "uint256",
          "name": "",
          "type": "uint256"
        }
      ],
      "stateMutability": "view",
      "type": "function",
      "constant": true
    },
    {
      "inputs": [],
      "name": "getUsersProposals",
      "outputs": [
        {
          "internalType": "contract Proposal[]",
          "name": "coll",
          "type": "address[]"
        }
      ],
      "stateMutability": "nonpayable",
      "type": "function"
    },
    {
      "inputs": [],
      "name": "getAllProposalNumber",
      "outputs": [
        {
          "internalType": "uint256",
          "name": "",
          "type": "uint256"
        }
      ],
      "stateMutability": "view",
      "type": "function",
      "constant": true
    },
    {
      "inputs": [],
      "name": "getAllProposals",
      "outputs": [
        {
          "internalType": "contract Proposal[]",
          "name": "coll",
          "type": "address[]"
        }
      ],
      "stateMutability": "nonpayable",
      "type": "function"
    },
    {
      "inputs": [],
      "name": "getAllAgreedProposalNumber",
      "outputs": [
        {
          "internalType": "uint256",
          "name": "",
          "type": "uint256"
        }
      ],
      "stateMutability": "view",
      "type": "function",
      "constant": true
    },
    {
      "inputs": [],
      "name": "getAllAgreedProposals",
      "outputs": [
        {
          "internalType": "contract Proposal[]",
          "name": "coll",
          "type": "address[]"
        }
      ],
      "stateMutability": "nonpayable",
      "type": "function"
    },
    {
      "inputs": [],
      "name": "newISA",
      "outputs": [],
      "stateMutability": "nonpayable",
      "type": "function"
    }
  ],
  "bytecode": "0x608060405234801561001057600080fd5b506040516121ae3803806121ae8339818101604052602081101561003357600080fd5b8101908080519060200190929190505050600061005461013960201b60201c565b9050806000806101000a81548173ffffffffffffffffffffffffffffffffffffffff021916908373ffffffffffffffffffffffffffffffffffffffff1602179055508073ffffffffffffffffffffffffffffffffffffffff16600073ffffffffffffffffffffffffffffffffffffffff167f8be0079c531659141344cd1fd0a4f28419497f9722a3daafe3b4186f6b6457e060405160405180910390a35080600160006101000a81548173ffffffffffffffffffffffffffffffffffffffff021916908373ffffffffffffffffffffffffffffffffffffffff16021790555050610141565b600033905090565b61205e806101506000396000f3fe608060405234801561001057600080fd5b50600436106100cf5760003560e01c80638b8aa5781161008c578063a7e13ea811610066578063a7e13ea814610317578063c5f22e90146103df578063cceb68f5146103fd578063f2fde38b1461045c576100cf565b80638b8aa578146102505780638da5cb5b146102af578063a133e891146102f9576100cf565b80630f98486b146100d45780630fc77be9146100de578063162d4bff146101285780631e25ed2514610146578063715018a6146101e7578063890cdc27146101f1575b600080fd5b6100dc6104a0565b005b6100e661056b565b604051808273ffffffffffffffffffffffffffffffffffffffff1673ffffffffffffffffffffffffffffffffffffffff16815260200191505060405180910390f35b610130610615565b6040518082815260200191505060405180910390f35b6101e5600480360361010081101561015d57600080fd5b81019080803573ffffffffffffffffffffffffffffffffffffffff169060200190929190803573ffffffffffffffffffffffffffffffffffffffff169060200190929190803590602001909291908035906020019092919080359060200190929190803590602001909291908035906020019092919080359060200190929190505050610622565b005b6101ef610829565b005b6101f96109b1565b6040518080602001828103825283818151815260200191508051906020019060200280838360005b8381101561023c578082015181840152602081019050610221565b505050509050019250505060405180910390f35b610258610c78565b6040518080602001828103825283818151815260200191508051906020019060200280838360005b8381101561029b578082015181840152602081019050610280565b505050509050019250505060405180910390f35b6102b7610e24565b604051808273ffffffffffffffffffffffffffffffffffffffff1673ffffffffffffffffffffffffffffffffffffffff16815260200191505060405180910390f35b610301610e4d565b6040518082815260200191505060405180910390f35b6103596004803603602081101561032d57600080fd5b81019080803573ffffffffffffffffffffffffffffffffffffffff16906020019092919050505061105d565b604051808315151515815260200180602001828103825283818151815260200191508051906020019080838360005b838110156103a3578082015181840152602081019050610388565b50505050905090810190601f1680156103d05780820380516001836020036101000a031916815260200191505b50935050505060405180910390f35b6103e761120e565b6040518082815260200191505060405180910390f35b610405611303565b6040518080602001828103825283818151815260200191508051906020019060200280838360005b8381101561044857808201518184015260208101905061042d565b505050509050019250505060405180910390f35b61049e6004803603602081101561047257600080fd5b81019080803573ffffffffffffffffffffffffffffffffffffffff1690602001909291905050506113e1565b005b6104a86115ee565b73ffffffffffffffffffffffffffffffffffffffff166000809054906101000a900473ffffffffffffffffffffffffffffffffffffffff1673ffffffffffffffffffffffffffffffffffffffff1614610569576040517f08c379a00000000000000000000000000000000000000000000000000000000081526004018080602001828103825260208152602001807f4f776e61626c653a2063616c6c6572206973206e6f7420746865206f776e657281525060200191505060405180910390fd5b565b6000600160009054906101000a900473ffffffffffffffffffffffffffffffffffffffff1673ffffffffffffffffffffffffffffffffffffffff16638da5cb5b6040518163ffffffff1660e01b815260040160206040518083038186803b1580156105d557600080fd5b505afa1580156105e9573d6000803e3d6000fd5b505050506040513d60208110156105ff57600080fd5b8101908080519060200190929190505050905090565b6000600280549050905090565b600073ffffffffffffffffffffffffffffffffffffffff168873ffffffffffffffffffffffffffffffffffffffff16141561065c57600080fd5b600073ffffffffffffffffffffffffffffffffffffffff168773ffffffffffffffffffffffffffffffffffffffff16141561069657600080fd5b600086116106a357600080fd5b60008510156106b157600080fd5b60648511156106bf57600080fd5b600084116106cc57600080fd5b600083116106d957600080fd5b600082116106e657600080fd5b600081116106f357600080fd5b60008888888888888888604051610709906115f6565b808973ffffffffffffffffffffffffffffffffffffffff1673ffffffffffffffffffffffffffffffffffffffff1681526020018873ffffffffffffffffffffffffffffffffffffffff1673ffffffffffffffffffffffffffffffffffffffff16815260200187815260200186815260200185815260200184815260200183815260200182815260200198505050505050505050604051809103906000f0801580156107b8573d6000803e3d6000fd5b5090506002819080600181540180825580915050600190039060005260206000200160009091909190916101000a81548173ffffffffffffffffffffffffffffffffffffffff021916908373ffffffffffffffffffffffffffffffffffffffff160217905550505050505050505050565b6108316115ee565b73ffffffffffffffffffffffffffffffffffffffff166000809054906101000a900473ffffffffffffffffffffffffffffffffffffffff1673ffffffffffffffffffffffffffffffffffffffff16146108f2576040517f08c379a00000000000000000000000000000000000000000000000000000000081526004018080602001828103825260208152602001807f4f776e61626c653a2063616c6c6572206973206e6f7420746865206f776e657281525060200191505060405180910390fd5b600073ffffffffffffffffffffffffffffffffffffffff166000809054906101000a900473ffffffffffffffffffffffffffffffffffffffff1673ffffffffffffffffffffffffffffffffffffffff167f8be0079c531659141344cd1fd0a4f28419497f9722a3daafe3b4186f6b6457e060405160405180910390a360008060006101000a81548173ffffffffffffffffffffffffffffffffffffffff021916908373ffffffffffffffffffffffffffffffffffffffff160217905550565b60606109bb610e4d565b6040519080825280602002602001820160405280156109e95781602001602082028038833980820191505090505b509050600080905060008090505b600280549050811015610c70573373ffffffffffffffffffffffffffffffffffffffff1660028281548110610a2857fe5b9060005260206000200160009054906101000a900473ffffffffffffffffffffffffffffffffffffffff1673ffffffffffffffffffffffffffffffffffffffff166369d812556040518163ffffffff1660e01b815260040160206040518083038186803b158015610a9857600080fd5b505afa158015610aac573d6000803e3d6000fd5b505050506040513d6020811015610ac257600080fd5b810190808051906020019092919050505073ffffffffffffffffffffffffffffffffffffffff161480610bd757503373ffffffffffffffffffffffffffffffffffffffff1660028281548110610b1457fe5b9060005260206000200160009054906101000a900473ffffffffffffffffffffffffffffffffffffffff1673ffffffffffffffffffffffffffffffffffffffff16637ba61ea56040518163ffffffff1660e01b815260040160206040518083038186803b158015610b8457600080fd5b505afa158015610b98573d6000803e3d6000fd5b505050506040513d6020811015610bae57600080fd5b810190808051906020019092919050505073ffffffffffffffffffffffffffffffffffffffff16145b15610c635760028181548110610be957fe5b9060005260206000200160009054906101000a900473ffffffffffffffffffffffffffffffffffffffff16838381518110610c2057fe5b602002602001019073ffffffffffffffffffffffffffffffffffffffff16908173ffffffffffffffffffffffffffffffffffffffff168152505081806001019250505b80806001019150506109f7565b508191505090565b6060610c8261120e565b604051908082528060200260200182016040528015610cb05781602001602082028038833980820191505090505b509050600080905060008090505b600280549050811015610e1c5760028181548110610cd857fe5b9060005260206000200160009054906101000a900473ffffffffffffffffffffffffffffffffffffffff1673ffffffffffffffffffffffffffffffffffffffff16638a133dc86040518163ffffffff1660e01b815260040160206040518083038186803b158015610d4857600080fd5b505afa158015610d5c573d6000803e3d6000fd5b505050506040513d6020811015610d7257600080fd5b810190808051906020019092919050505015610e0f5760028181548110610d9557fe5b9060005260206000200160009054906101000a900473ffffffffffffffffffffffffffffffffffffffff16838381518110610dcc57fe5b602002602001019073ffffffffffffffffffffffffffffffffffffffff16908173ffffffffffffffffffffffffffffffffffffffff168152505081806001019250505b8080600101915050610cbe565b508191505090565b60008060009054906101000a900473ffffffffffffffffffffffffffffffffffffffff16905090565b6000806000905060008090505b600280549050811015611055573373ffffffffffffffffffffffffffffffffffffffff1660028281548110610e8b57fe5b9060005260206000200160009054906101000a900473ffffffffffffffffffffffffffffffffffffffff1673ffffffffffffffffffffffffffffffffffffffff166369d812556040518163ffffffff1660e01b815260040160206040518083038186803b158015610efb57600080fd5b505afa158015610f0f573d6000803e3d6000fd5b505050506040513d6020811015610f2557600080fd5b810190808051906020019092919050505073ffffffffffffffffffffffffffffffffffffffff16148061103a57503373ffffffffffffffffffffffffffffffffffffffff1660028281548110610f7757fe5b9060005260206000200160009054906101000a900473ffffffffffffffffffffffffffffffffffffffff1673ffffffffffffffffffffffffffffffffffffffff16637ba61ea56040518163ffffffff1660e01b815260040160206040518083038186803b158015610fe757600080fd5b505afa158015610ffb573d6000803e3d6000fd5b505050506040513d602081101561101157600080fd5b810190808051906020019092919050505073ffffffffffffffffffffffffffffffffffffffff16145b156110485781806001019250505b8080600101915050610e5a565b508091505090565b60006060600160009054906101000a900473ffffffffffffffffffffffffffffffffffffffff1673ffffffffffffffffffffffffffffffffffffffff166327c78c42846040518263ffffffff1660e01b8152600401808273ffffffffffffffffffffffffffffffffffffffff1673ffffffffffffffffffffffffffffffffffffffff168152602001915050600060405180830381600087803b15801561110257600080fd5b505af1158015611116573d6000803e3d6000fd5b505050506040513d6000823e3d601f19601f82011682018060405250604081101561114057600080fd5b81019080805190602001909291908051604051939291908464010000000082111561116a57600080fd5b8382019150602082018581111561118057600080fd5b825186600182028301116401000000008211171561119d57600080fd5b8083526020830192505050908051906020019080838360005b838110156111d15780820151818401526020810190506111b6565b50505050905090810190601f1680156111fe5780820380516001836020036101000a031916815260200191505b5060405250505091509150915091565b6000806000905060008090505b6002805490508110156112fb576002818154811061123557fe5b9060005260206000200160009054906101000a900473ffffffffffffffffffffffffffffffffffffffff1673ffffffffffffffffffffffffffffffffffffffff16638a133dc86040518163ffffffff1660e01b815260040160206040518083038186803b1580156112a557600080fd5b505afa1580156112b9573d6000803e3d6000fd5b505050506040513d60208110156112cf57600080fd5b8101908080519060200190929190505050156112ee5781806001019250505b808060010191505061121b565b508091505090565b60606002805490506040519080825280602002602001820160405280156113395781602001602082028038833980820191505090505b50905060008090505b6002805490508110156113da576002818154811061135c57fe5b9060005260206000200160009054906101000a900473ffffffffffffffffffffffffffffffffffffffff1682828151811061139357fe5b602002602001019073ffffffffffffffffffffffffffffffffffffffff16908173ffffffffffffffffffffffffffffffffffffffff16815250508080600101915050611342565b5080905090565b6113e96115ee565b73ffffffffffffffffffffffffffffffffffffffff166000809054906101000a900473ffffffffffffffffffffffffffffffffffffffff1673ffffffffffffffffffffffffffffffffffffffff16146114aa576040517f08c379a00000000000000000000000000000000000000000000000000000000081526004018080602001828103825260208152602001807f4f776e61626c653a2063616c6c6572206973206e6f7420746865206f776e657281525060200191505060405180910390fd5b600073ffffffffffffffffffffffffffffffffffffffff168173ffffffffffffffffffffffffffffffffffffffff161415611530576040517f08c379a00000000000000000000000000000000000000000000000000000000081526004018080602001828103825260268152602001806120036026913960400191505060405180910390fd5b8073ffffffffffffffffffffffffffffffffffffffff166000809054906101000a900473ffffffffffffffffffffffffffffffffffffffff1673ffffffffffffffffffffffffffffffffffffffff167f8be0079c531659141344cd1fd0a4f28419497f9722a3daafe3b4186f6b6457e060405160405180910390a3806000806101000a81548173ffffffffffffffffffffffffffffffffffffffff021916908373ffffffffffffffffffffffffffffffffffffffff16021790555050565b600033905090565b6109ff806116048339019056fe608060405234801561001057600080fd5b506040516109ff3803806109ff833981810160405261010081101561003457600080fd5b810190808051906020019092919080519060200190929190805190602001909291908051906020019092919080519060200190929190805190602001909291908051906020019092919080519060200190929190505050876000806101000a81548173ffffffffffffffffffffffffffffffffffffffff021916908373ffffffffffffffffffffffffffffffffffffffff16021790555086600160006101000a81548173ffffffffffffffffffffffffffffffffffffffff021916908373ffffffffffffffffffffffffffffffffffffffff1602179055508560028190555084600381905550836004819055508260058190555081600681905550806007819055506000600860006101000a81548160ff0219169083151502179055506000600860016101000a81548160ff0219169083151502179055506000600860026101000a81548160ff02191690831515021790555050505050505050506108618061019e6000396000f3fe608060405234801561001057600080fd5b50600436106101005760003560e01c80638a133dc811610097578063d13b0e6411610066578063d13b0e64146102ad578063e66a6b22146102cf578063e9497b5f146102f1578063f1b79e531461030f57610100565b80638a133dc8146102415780638fae60a5146102635780639c30ad7e1461026d578063ba1110791461028f57610100565b80633e79d1e1116100d35780633e79d1e1146101855780634dc415de146101a357806369d81255146101ad5780637ba61ea5146101f757610100565b80631829b73f146101055780631b39c35814610123578063320164d514610145578063347775b014610167575b600080fd5b61010d61032d565b6040518082815260200191505060405180910390f35b61012b610333565b604051808215151515815260200191505060405180910390f35b61014d610346565b604051808215151515815260200191505060405180910390f35b61016f610359565b6040518082815260200191505060405180910390f35b61018d61035f565b6040518082815260200191505060405180910390f35b6101ab610365565b005b6101b561042b565b604051808273ffffffffffffffffffffffffffffffffffffffff1673ffffffffffffffffffffffffffffffffffffffff16815260200191505060405180910390f35b6101ff610450565b604051808273ffffffffffffffffffffffffffffffffffffffff1673ffffffffffffffffffffffffffffffffffffffff16815260200191505060405180910390f35b610249610476565b604051808215151515815260200191505060405180910390f35b61026b610489565b005b610275610616565b604051808215151515815260200191505060405180910390f35b61029761070f565b6040518082815260200191505060405180910390f35b6102b5610715565b604051808215151515815260200191505060405180910390f35b6102d7610728565b604051808215151515815260200191505060405180910390f35b6102f961081f565b6040518082815260200191505060405180910390f35b610317610825565b6040518082815260200191505060405180910390f35b60055481565b600860019054906101000a900460ff1681565b600860009054906101000a900460ff1681565b60075481565b60045481565b6000809054906101000a900473ffffffffffffffffffffffffffffffffffffffff1673ffffffffffffffffffffffffffffffffffffffff163373ffffffffffffffffffffffffffffffffffffffff16148061040d5750600160009054906101000a900473ffffffffffffffffffffffffffffffffffffffff1673ffffffffffffffffffffffffffffffffffffffff163373ffffffffffffffffffffffffffffffffffffffff16145b61041657600080fd5b60011515600860039054906101000a90505050565b6000809054906101000a900473ffffffffffffffffffffffffffffffffffffffff1681565b600160009054906101000a900473ffffffffffffffffffffffffffffffffffffffff1681565b600860029054906101000a900460ff1681565b6000809054906101000a900473ffffffffffffffffffffffffffffffffffffffff1673ffffffffffffffffffffffffffffffffffffffff163373ffffffffffffffffffffffffffffffffffffffff1614806105315750600160009054906101000a900473ffffffffffffffffffffffffffffffffffffffff1673ffffffffffffffffffffffffffffffffffffffff163373ffffffffffffffffffffffffffffffffffffffff16145b61053a57600080fd5b6000809054906101000a900473ffffffffffffffffffffffffffffffffffffffff1673ffffffffffffffffffffffffffffffffffffffff163373ffffffffffffffffffffffffffffffffffffffff1614156105af576001600860006101000a81548160ff0219169083151502179055506105cb565b6001600860016101000a81548160ff0219169083151502179055505b600860009054906101000a900460ff1680156105f35750600860019054906101000a900460ff165b15610614576001600860026101000a81548160ff0219169083151502179055505b565b60008060009054906101000a900473ffffffffffffffffffffffffffffffffffffffff1673ffffffffffffffffffffffffffffffffffffffff163373ffffffffffffffffffffffffffffffffffffffff161480156106815750600860009054906101000a900460ff16155b1561068f576001905061070c565b600160009054906101000a900473ffffffffffffffffffffffffffffffffffffffff1673ffffffffffffffffffffffffffffffffffffffff163373ffffffffffffffffffffffffffffffffffffffff161480156106f95750600860019054906101000a900460ff16155b15610707576001905061070c565b600090505b90565b60025481565b600860039054906101000a900460ff1681565b60008060009054906101000a900473ffffffffffffffffffffffffffffffffffffffff1673ffffffffffffffffffffffffffffffffffffffff163373ffffffffffffffffffffffffffffffffffffffff161480156107925750600860009054906101000a900460ff165b156107a0576001905061081c565b600160009054906101000a900473ffffffffffffffffffffffffffffffffffffffff1673ffffffffffffffffffffffffffffffffffffffff163373ffffffffffffffffffffffffffffffffffffffff161480156108095750600860019054906101000a900460ff165b15610817576001905061081c565b600090505b90565b60035481565b6006548156fea2646970667358221220ba0de14b60653effdec5f7d1af0565bd3e18803579d6c3e34369cba60228ede364736f6c634300060100334f776e61626c653a206e6577206f776e657220697320746865207a65726f2061646472657373a26469706673582212209204fb0f553ce0858b452aa07508ecf826b88ce642232c47395303bd4ce1e9a664736f6c63430006010033",
  "source": "pragma solidity >0.4.23 <0.7.0;\n\nimport \"openzeppelin-solidity/contracts/math/SafeMath.sol\";\nimport \"openzeppelin-solidity/contracts/access/Ownable.sol\";\nimport \"openzeppelin-solidity/contracts/token/ERC20/IERC20.sol\";\n\nimport \"./Regulator.sol\";\nimport \"./Proposal.sol\";\n\n/// @notice An ISA factory providing the interface for creation of new ISAs\ncontract ISAFactory is Ownable {\n\n  Regulator private regulator;\n  Proposal[] private proposals;\n\n  constructor(Regulator _regulator) public {\n    regulator = _regulator;\n  }\n\n  /**\n   * @dev Creates new ISA proposal which is given to Regulator for approval\n   *\n   * Returns a boolean value and message indicating whether the operation\n   * succeeded and why.\n   */\n  function newProposal(\n    address _lenderAddress,\n    address _borrowerAddress,\n    uint256 _isaAmount,\n    uint256 _incomePercentage,\n    uint256 _timePeriod,\n    uint256 _buyoutAmount,\n    uint256 _minimumIncome,\n    uint256 _paymentCap\n  )\n    external\n  {\n    require(_lenderAddress != address(0));\n    require(_borrowerAddress != address(0));\n    require(_isaAmount > 0);\n    require(_incomePercentage >= 0);\n    require(_incomePercentage <= 100);\n    require(_timePeriod > 0);\n    require(_buyoutAmount > 0);\n    require(_minimumIncome > 0);\n    require(_paymentCap > 0);\n\n    Proposal proposal = new Proposal(_lenderAddress, _borrowerAddress,\n      _isaAmount, _incomePercentage, _timePeriod, _buyoutAmount, _minimumIncome,\n      _paymentCap);\n\n    proposals.push(proposal);\n  }\n\n  function getRegulatorAddress() view external returns(address) {\n    return regulator.owner();\n  }\n\n  function requestProposal(Proposal proposal) external returns(bool, string memory){\n    return regulator.request(proposal);\n  }\n\n  function getUsersProposalNumber() public view returns (uint256) {\n    uint256 j = 0;\n    for (uint256 i = 0 ; i < proposals.length ; i++) {\n      if (proposals[i].lenderAddress() == msg.sender || proposals[i].borrowerAddress() == msg.sender) {\n        j++;\n      }\n    }\n    return j;\n  }\n\n  function getUsersProposals() external returns (Proposal[] memory coll) {\n    coll = new Proposal[](getUsersProposalNumber());\n\n    uint256 j = 0;\n    for (uint256 i = 0 ; i < proposals.length ; i++) {\n      if (proposals[i].lenderAddress() == msg.sender || proposals[i].borrowerAddress() == msg.sender) {\n          coll[j] = proposals[i];\n          j++;\n      }\n    }\n\n    return coll;\n  }\n\n  function getAllProposalNumber() public view returns (uint256) {\n    return proposals.length;\n  }\n\n  function getAllProposals() external returns (Proposal[] memory coll)\n  {\n    coll = new Proposal[](proposals.length);\n\n    for (uint256 i = 0 ; i < proposals.length ; i++) {\n        coll[i] = proposals[i];\n    }\n\n    return coll;\n  }\n\n  function getAllAgreedProposalNumber() public view returns (uint256) {\n    uint256 j = 0;\n    for (uint256 i = 0 ; i < proposals.length ; i++) {\n      if (proposals[i].bothAgree()) {\n        j++;\n      }\n    }\n    return j;\n  }\n\n  function getAllAgreedProposals() external returns (Proposal[] memory coll) {\n    coll = new Proposal[](getAllAgreedProposalNumber());\n\n    uint256 j = 0;\n    for (uint256 i = 0 ; i < proposals.length ; i++) {\n      if (proposals[i].bothAgree()) {\n        coll[j] = proposals[i];\n        j++;\n      }\n    }\n\n    return coll;\n  }\n\n  /**\n   * @dev Creates a new ISA\n   */\n  function newISA() public onlyOwner {\n\n  }\n}\n",
  "sourcePath": "/Users/FinnHarman/Google Drive/Computing Science/Individual Project/Code/ISA/contracts/ISAFactory.sol",
  "compiler": {
    "name": "solc",
    "version": "0.6.1+commit.e6f7d5a4.Emscripten.clang"
  },
  "schemaVersion": "3.2.0",
  "updatedAt": "2020-08-13T14:43:48.678Z",
  "networkType": "ethereum",
  "devdoc": {
    "methods": {
      "newISA()": {
        "details": "Creates a new ISA"
      },
      "newProposal(address,address,uint256,uint256,uint256,uint256,uint256,uint256)": {
        "details": "Creates new ISA proposal which is given to Regulator for approval   * Returns a boolean value and message indicating whether the operation succeeded and why."
      },
      "owner()": {
        "details": "Returns the address of the current owner."
      },
      "renounceOwnership()": {
        "details": "Leaves the contract without owner. It will not be possible to call `onlyOwner` functions anymore. Can only be called by the current owner.     * NOTE: Renouncing ownership will leave the contract without an owner, thereby removing any functionality that is only available to the owner."
      },
      "transferOwnership(address)": {
        "details": "Transfers ownership of the contract to a new account (`newOwner`). Can only be called by the current owner."
      }
    }
  },
  "userdoc": {
    "methods": {},
    "notice": "An ISA factory providing the interface for creation of new ISAs"
  }
}