{
  "contractName": "LoanCoin",
  "abi": [
    {
      "inputs": [
        {
          "internalType": "string",
          "name": "name",
          "type": "string"
        },
        {
          "internalType": "string",
          "name": "symbol",
          "type": "string"
        }
      ],
      "stateMutability": "nonpayable",
      "type": "constructor"
    },
    {
      "anonymous": false,
      "inputs": [
        {
          "indexed": true,
          "internalType": "address",
          "name": "owner",
          "type": "address"
        },
        {
          "indexed": true,
          "internalType": "address",
          "name": "spender",
          "type": "address"
        },
        {
          "indexed": false,
          "internalType": "uint256",
          "name": "value",
          "type": "uint256"
        }
      ],
      "name": "Approval",
      "type": "event"
    },
    {
      "anonymous": false,
      "inputs": [
        {
          "indexed": false,
          "internalType": "address",
          "name": "_controller",
          "type": "address"
        },
        {
          "indexed": true,
          "internalType": "address",
          "name": "_tokenHolder",
          "type": "address"
        },
        {
          "indexed": false,
          "internalType": "uint256",
          "name": "_value",
          "type": "uint256"
        },
        {
          "indexed": false,
          "internalType": "bytes",
          "name": "_data",
          "type": "bytes"
        },
        {
          "indexed": false,
          "internalType": "bytes",
          "name": "_operatorData",
          "type": "bytes"
        }
      ],
      "name": "ControllerRedemption",
      "type": "event"
    },
    {
      "anonymous": false,
      "inputs": [
        {
          "indexed": false,
          "internalType": "address",
          "name": "_controller",
          "type": "address"
        },
        {
          "indexed": true,
          "internalType": "address",
          "name": "_from",
          "type": "address"
        },
        {
          "indexed": true,
          "internalType": "address",
          "name": "_to",
          "type": "address"
        },
        {
          "indexed": false,
          "internalType": "uint256",
          "name": "_value",
          "type": "uint256"
        },
        {
          "indexed": false,
          "internalType": "bytes",
          "name": "_data",
          "type": "bytes"
        },
        {
          "indexed": false,
          "internalType": "bytes",
          "name": "_operatorData",
          "type": "bytes"
        }
      ],
      "name": "ControllerTransfer",
      "type": "event"
    },
    {
      "anonymous": false,
      "inputs": [
        {
          "indexed": true,
          "internalType": "bytes32",
          "name": "_name",
          "type": "bytes32"
        },
        {
          "indexed": false,
          "internalType": "string",
          "name": "_uri",
          "type": "string"
        },
        {
          "indexed": false,
          "internalType": "bytes32",
          "name": "_documentHash",
          "type": "bytes32"
        }
      ],
      "name": "DocumentRemoved",
      "type": "event"
    },
    {
      "anonymous": false,
      "inputs": [
        {
          "indexed": true,
          "internalType": "bytes32",
          "name": "_name",
          "type": "bytes32"
        },
        {
          "indexed": false,
          "internalType": "string",
          "name": "_uri",
          "type": "string"
        },
        {
          "indexed": false,
          "internalType": "bytes32",
          "name": "_documentHash",
          "type": "bytes32"
        }
      ],
      "name": "DocumentSet",
      "type": "event"
    },
    {
      "anonymous": false,
      "inputs": [
        {
          "indexed": true,
          "internalType": "address",
          "name": "_operator",
          "type": "address"
        },
        {
          "indexed": true,
          "internalType": "address",
          "name": "_to",
          "type": "address"
        },
        {
          "indexed": false,
          "internalType": "uint256",
          "name": "_value",
          "type": "uint256"
        },
        {
          "indexed": false,
          "internalType": "bytes",
          "name": "_data",
          "type": "bytes"
        }
      ],
      "name": "Issued",
      "type": "event"
    },
    {
      "anonymous": false,
      "inputs": [
        {
          "indexed": true,
          "internalType": "address",
          "name": "_operator",
          "type": "address"
        },
        {
          "indexed": true,
          "internalType": "address",
          "name": "_from",
          "type": "address"
        },
        {
          "indexed": false,
          "internalType": "uint256",
          "name": "_value",
          "type": "uint256"
        },
        {
          "indexed": false,
          "internalType": "bytes",
          "name": "_data",
          "type": "bytes"
        }
      ],
      "name": "Redeemed",
      "type": "event"
    },
    {
      "anonymous": false,
      "inputs": [
        {
          "indexed": true,
          "internalType": "address",
          "name": "from",
          "type": "address"
        },
        {
          "indexed": true,
          "internalType": "address",
          "name": "to",
          "type": "address"
        },
        {
          "indexed": false,
          "internalType": "uint256",
          "name": "value",
          "type": "uint256"
        }
      ],
      "name": "Transfer",
      "type": "event"
    },
    {
      "inputs": [],
      "name": "controller",
      "outputs": [
        {
          "internalType": "address",
          "name": "",
          "type": "address"
        }
      ],
      "stateMutability": "view",
      "type": "function"
    },
    {
      "inputs": [],
      "name": "decimals",
      "outputs": [
        {
          "internalType": "uint8",
          "name": "",
          "type": "uint8"
        }
      ],
      "stateMutability": "pure",
      "type": "function"
    },
    {
      "inputs": [],
      "name": "totalSupply",
      "outputs": [
        {
          "internalType": "uint256",
          "name": "",
          "type": "uint256"
        }
      ],
      "stateMutability": "view",
      "type": "function"
    },
    {
      "inputs": [
        {
          "internalType": "address",
          "name": "owner",
          "type": "address"
        }
      ],
      "name": "balanceOf",
      "outputs": [
        {
          "internalType": "uint256",
          "name": "",
          "type": "uint256"
        }
      ],
      "stateMutability": "view",
      "type": "function"
    },
    {
      "inputs": [
        {
          "internalType": "address",
          "name": "to",
          "type": "address"
        },
        {
          "internalType": "uint256",
          "name": "value",
          "type": "uint256"
        }
      ],
      "name": "transfer",
      "outputs": [
        {
          "internalType": "bool",
          "name": "",
          "type": "bool"
        }
      ],
      "stateMutability": "nonpayable",
      "type": "function"
    },
    {
      "inputs": [
        {
          "internalType": "address",
          "name": "owner",
          "type": "address"
        },
        {
          "internalType": "address",
          "name": "spender",
          "type": "address"
        }
      ],
      "name": "allowance",
      "outputs": [
        {
          "internalType": "uint256",
          "name": "",
          "type": "uint256"
        }
      ],
      "stateMutability": "view",
      "type": "function"
    },
    {
      "inputs": [
        {
          "internalType": "address",
          "name": "spender",
          "type": "address"
        },
        {
          "internalType": "uint256",
          "name": "value",
          "type": "uint256"
        }
      ],
      "name": "approve",
      "outputs": [
        {
          "internalType": "bool",
          "name": "",
          "type": "bool"
        }
      ],
      "stateMutability": "nonpayable",
      "type": "function"
    },
    {
      "inputs": [
        {
          "internalType": "address",
          "name": "from",
          "type": "address"
        },
        {
          "internalType": "address",
          "name": "to",
          "type": "address"
        },
        {
          "internalType": "uint256",
          "name": "value",
          "type": "uint256"
        }
      ],
      "name": "transferFrom",
      "outputs": [
        {
          "internalType": "bool",
          "name": "",
          "type": "bool"
        }
      ],
      "stateMutability": "nonpayable",
      "type": "function"
    },
    {
      "inputs": [
        {
          "internalType": "address",
          "name": "to",
          "type": "address"
        },
        {
          "internalType": "uint256",
          "name": "value",
          "type": "uint256"
        },
        {
          "internalType": "bytes",
          "name": "data",
          "type": "bytes"
        }
      ],
      "name": "transferWithData",
      "outputs": [],
      "stateMutability": "nonpayable",
      "type": "function"
    },
    {
      "inputs": [
        {
          "internalType": "address",
          "name": "from",
          "type": "address"
        },
        {
          "internalType": "address",
          "name": "to",
          "type": "address"
        },
        {
          "internalType": "uint256",
          "name": "value",
          "type": "uint256"
        },
        {
          "internalType": "bytes",
          "name": "data",
          "type": "bytes"
        }
      ],
      "name": "transferFromWithData",
      "outputs": [],
      "stateMutability": "nonpayable",
      "type": "function"
    },
    {
      "inputs": [
        {
          "internalType": "uint256",
          "name": "value",
          "type": "uint256"
        },
        {
          "internalType": "bytes",
          "name": "data",
          "type": "bytes"
        }
      ],
      "name": "redeem",
      "outputs": [],
      "stateMutability": "nonpayable",
      "type": "function"
    },
    {
      "inputs": [
        {
          "internalType": "address",
          "name": "from",
          "type": "address"
        },
        {
          "internalType": "uint256",
          "name": "value",
          "type": "uint256"
        },
        {
          "internalType": "bytes",
          "name": "data",
          "type": "bytes"
        }
      ],
      "name": "redeemFrom",
      "outputs": [],
      "stateMutability": "nonpayable",
      "type": "function"
    },
    {
      "inputs": [],
      "name": "isIssuable",
      "outputs": [
        {
          "internalType": "bool",
          "name": "",
          "type": "bool"
        }
      ],
      "stateMutability": "view",
      "type": "function"
    },
    {
      "inputs": [
        {
          "internalType": "address",
          "name": "tokenHolder",
          "type": "address"
        },
        {
          "internalType": "uint256",
          "name": "value",
          "type": "uint256"
        },
        {
          "internalType": "bytes",
          "name": "data",
          "type": "bytes"
        }
      ],
      "name": "issue",
      "outputs": [],
      "stateMutability": "nonpayable",
      "type": "function"
    },
    {
      "inputs": [
        {
          "internalType": "bytes32",
          "name": "name",
          "type": "bytes32"
        },
        {
          "internalType": "string",
          "name": "documentUri",
          "type": "string"
        },
        {
          "internalType": "bytes32",
          "name": "documentHash",
          "type": "bytes32"
        }
      ],
      "name": "setDocument",
      "outputs": [],
      "stateMutability": "nonpayable",
      "type": "function"
    },
    {
      "inputs": [
        {
          "internalType": "bytes32",
          "name": "name",
          "type": "bytes32"
        }
      ],
      "name": "removeDocument",
      "outputs": [],
      "stateMutability": "nonpayable",
      "type": "function"
    },
    {
      "inputs": [
        {
          "internalType": "bytes32",
          "name": "name",
          "type": "bytes32"
        }
      ],
      "name": "getDocument",
      "outputs": [
        {
          "internalType": "string",
          "name": "",
          "type": "string"
        },
        {
          "internalType": "bytes32",
          "name": "",
          "type": "bytes32"
        }
      ],
      "stateMutability": "view",
      "type": "function"
    },
    {
      "inputs": [],
      "name": "isControllable",
      "outputs": [
        {
          "internalType": "bool",
          "name": "",
          "type": "bool"
        }
      ],
      "stateMutability": "view",
      "type": "function"
    },
    {
      "inputs": [
        {
          "internalType": "address",
          "name": "_from",
          "type": "address"
        },
        {
          "internalType": "address",
          "name": "_to",
          "type": "address"
        },
        {
          "internalType": "uint256",
          "name": "_value",
          "type": "uint256"
        },
        {
          "internalType": "bytes",
          "name": "_data",
          "type": "bytes"
        },
        {
          "internalType": "bytes",
          "name": "_operatorData",
          "type": "bytes"
        }
      ],
      "name": "controllerTransfer",
      "outputs": [],
      "stateMutability": "nonpayable",
      "type": "function"
    },
    {
      "inputs": [
        {
          "internalType": "address",
          "name": "_tokenHolder",
          "type": "address"
        },
        {
          "internalType": "uint256",
          "name": "_value",
          "type": "uint256"
        },
        {
          "internalType": "bytes",
          "name": "_data",
          "type": "bytes"
        },
        {
          "internalType": "bytes",
          "name": "_operatorData",
          "type": "bytes"
        }
      ],
      "name": "controllerRedeem",
      "outputs": [],
      "stateMutability": "nonpayable",
      "type": "function"
    }
  ],
  "bytecode": "0x60806040523480156200001157600080fd5b50604051620028a0380380620028a0833981810160405260408110156200003757600080fd5b81019080805160405193929190846401000000008211156200005857600080fd5b838201915060208201858111156200006f57600080fd5b82518660018202830111640100000000821117156200008d57600080fd5b8083526020830192505050908051906020019080838360005b83811015620000c3578082015181840152602081019050620000a6565b50505050905090810190601f168015620000f15780820380516001836020036101000a031916815260200191505b50604052602001805160405193929190846401000000008211156200011557600080fd5b838201915060208201858111156200012c57600080fd5b82518660018202830111640100000000821117156200014a57600080fd5b8083526020830192505050908051906020019080838360005b838110156200018057808201518184015260208101905062000163565b50505050905090810190601f168015620001ae5780820380516001836020036101000a031916815260200191505b506040525050508160009080519060200190620001cd929190620001f7565b508060019080519060200190620001e6929190620001f7565b5060006004819055505050620002a6565b828054600181600116156101000203166002900490600052602060002090601f016020900481019282601f106200023a57805160ff19168380011785556200026b565b828001600101855582156200026b579182015b828111156200026a5782518255916020019190600101906200024d565b5b5090506200027a91906200027e565b5090565b620002a391905b808211156200029f57600081600090555060010162000285565b5090565b90565b6125ea80620002b66000396000f3fe608060405234801561001057600080fd5b506004361061012c5760003560e01c80639675193c116100ad578063dd62ed3e11610071578063dd62ed3e146107ab578063e77c646d14610823578063ee532f31146108a6578063f282527a14610969578063f77c479114610a815761012c565b80639675193c14610523578063a9059cbb146105c6578063b10d6b411461062c578063bb3acde9146106da578063c35018481461077d5761012c565b80632bc6acc3116100f45780632bc6acc31461036b5780632f1cae8514610463578063313ce567146104855780634c783bf5146104a957806370a08231146104cb5761012c565b8063010648ca14610131578063095ea7b3146101be57806318160ddd1461022457806323b872dd146102425780632535f762146102c8575b600080fd5b6101bc6004803603606081101561014757600080fd5b81019080803590602001909291908035906020019064010000000081111561016e57600080fd5b82018360208201111561018057600080fd5b803590602001918460018302840111640100000000831117156101a257600080fd5b909192939192939080359060200190929190505050610acb565b005b61020a600480360360408110156101d457600080fd5b81019080803573ffffffffffffffffffffffffffffffffffffffff16906020019092919080359060200190929190505050610bd3565b604051808215151515815260200191505060405180910390f35b61022c610d67565b6040518082815260200191505060405180910390f35b6102ae6004803603606081101561025857600080fd5b81019080803573ffffffffffffffffffffffffffffffffffffffff169060200190929190803573ffffffffffffffffffffffffffffffffffffffff16906020019092919080359060200190929190505050610d71565b604051808215151515815260200191505060405180910390f35b610369600480360360608110156102de57600080fd5b81019080803573ffffffffffffffffffffffffffffffffffffffff169060200190929190803590602001909291908035906020019064010000000081111561032557600080fd5b82018360208201111561033757600080fd5b8035906020019184600183028401116401000000008311171561035957600080fd5b9091929391929390505050610d9a565b005b6104616004803603608081101561038157600080fd5b81019080803573ffffffffffffffffffffffffffffffffffffffff16906020019092919080359060200190929190803590602001906401000000008111156103c857600080fd5b8201836020820111156103da57600080fd5b803590602001918460018302840111640100000000831117156103fc57600080fd5b90919293919293908035906020019064010000000081111561041d57600080fd5b82018360208201111561042f57600080fd5b8035906020019184600183028401116401000000008311171561045157600080fd5b9091929391929390505050610df1565b005b61046b610f33565b604051808215151515815260200191505060405180910390f35b61048d610f4a565b604051808260ff1660ff16815260200191505060405180910390f35b6104b1610f53565b604051808215151515815260200191505060405180910390f35b61050d600480360360208110156104e157600080fd5b81019080803573ffffffffffffffffffffffffffffffffffffffff169060200190929190505050610f62565b6040518082815260200191505060405180910390f35b6105c46004803603606081101561053957600080fd5b81019080803573ffffffffffffffffffffffffffffffffffffffff169060200190929190803590602001909291908035906020019064010000000081111561058057600080fd5b82018360208201111561059257600080fd5b803590602001918460018302840111640100000000831117156105b457600080fd5b9091929391929390505050610fab565b005b610612600480360360408110156105dc57600080fd5b81019080803573ffffffffffffffffffffffffffffffffffffffff16906020019092919080359060200190929190505050611001565b604051808215151515815260200191505060405180910390f35b6106586004803603602081101561064257600080fd5b8101908080359060200190929190505050611029565b6040518080602001838152602001828103825284818151815260200191508051906020019080838360005b8381101561069e578082015181840152602081019050610683565b50505050905090810190601f1680156106cb5780820380516001836020036101000a031916815260200191505b50935050505060405180910390f35b61077b600480360360608110156106f057600080fd5b81019080803573ffffffffffffffffffffffffffffffffffffffff169060200190929190803590602001909291908035906020019064010000000081111561073757600080fd5b82018360208201111561074957600080fd5b8035906020019184600183028401116401000000008311171561076b57600080fd5b909192939192939050505061119f565b005b6107a96004803603602081101561079357600080fd5b81019080803590602001909291905050506111f5565b005b61080d600480360360408110156107c157600080fd5b81019080803573ffffffffffffffffffffffffffffffffffffffff169060200190929190803573ffffffffffffffffffffffffffffffffffffffff1690602001909291905050506113b4565b6040518082815260200191505060405180910390f35b6108a46004803603604081101561083957600080fd5b81019080803590602001909291908035906020019064010000000081111561086057600080fd5b82018360208201111561087257600080fd5b8035906020019184600183028401116401000000008311171561089457600080fd5b909192939192939050505061143b565b005b610967600480360360808110156108bc57600080fd5b81019080803573ffffffffffffffffffffffffffffffffffffffff169060200190929190803573ffffffffffffffffffffffffffffffffffffffff169060200190929190803590602001909291908035906020019064010000000081111561092357600080fd5b82018360208201111561093557600080fd5b8035906020019184600183028401116401000000008311171561095757600080fd5b9091929391929390505050611490565b005b610a7f600480360360a081101561097f57600080fd5b81019080803573ffffffffffffffffffffffffffffffffffffffff169060200190929190803573ffffffffffffffffffffffffffffffffffffffff16906020019092919080359060200190929190803590602001906401000000008111156109e657600080fd5b8201836020820111156109f857600080fd5b80359060200191846001830284011164010000000083111715610a1a57600080fd5b909192939192939080359060200190640100000000811115610a3b57600080fd5b820183602082011115610a4d57600080fd5b80359060200191846001830284011164010000000083111715610a6f57600080fd5b90919293919293905050506114e8565b005b610a89611643565b604051808273ffffffffffffffffffffffffffffffffffffffff1673ffffffffffffffffffffffffffffffffffffffff16815260200191505060405180910390f35b604051806040016040528082815260200184848080601f016020809104026020016040519081016040528093929190818152602001838380828437600081840152601f19601f8201169050808301925050505050505081525060066000868152602001908152602001600020600082015181600001556020820151816001019080519060200190610b5d9291906124c7565b50905050837fd285b14970499a2155db2949305ec1af7f42777f807104c2447a7d2872c7f13584848460405180806020018381526020018281038252858582818152602001925080828437600081840152601f19601f82011690508083019250505094505050505060405180910390a250505050565b60008073ffffffffffffffffffffffffffffffffffffffff168373ffffffffffffffffffffffffffffffffffffffff161415610c77576040517f08c379a00000000000000000000000000000000000000000000000000000000081526004018080602001828103825260028152602001807f353600000000000000000000000000000000000000000000000000000000000081525060200191505060405180910390fd5b81600360003373ffffffffffffffffffffffffffffffffffffffff1673ffffffffffffffffffffffffffffffffffffffff16815260200190815260200160002060008573ffffffffffffffffffffffffffffffffffffffff1673ffffffffffffffffffffffffffffffffffffffff168152602001908152602001600020819055508273ffffffffffffffffffffffffffffffffffffffff163373ffffffffffffffffffffffffffffffffffffffff167f8c5be1e5ebec7d5bd14f71427d1e84f3dd0314c0f7b2291e5b200ac8c7c3b925846040518082815260200191505060405180910390a36001905092915050565b6000600454905090565b6000610d8f3385858560405180602001604052806000815250611669565b600190509392505050565b610deb3333868686868080601f016020809104026020016040519081016040528093929190818152602001838380828437600081840152601f19601f82011690508083019250505050505050611669565b50505050565b610e4133878787878080601f016020809104026020016040519081016040528093929190818152602001838380828437600081840152601f19601f82011690508083019250505050505050611b8c565b8573ffffffffffffffffffffffffffffffffffffffff167f876b7cb47aa150b3a5516188b19ed308752ad4d0ae9a702543353b78163f7589338787878787604051808773ffffffffffffffffffffffffffffffffffffffff1673ffffffffffffffffffffffffffffffffffffffff16815260200186815260200180602001806020018381038352878782818152602001925080828437600081840152601f19601f8201169050808301925050508381038252858582818152602001925080828437600081840152601f19601f8201169050808301925050509850505050505050505060405180910390a2505050505050565b6000600560009054906101000a900460ff16905090565b60006012905090565b6000610f5d6120a1565b905090565b6000600260008373ffffffffffffffffffffffffffffffffffffffff1673ffffffffffffffffffffffffffffffffffffffff168152602001908152602001600020549050919050565b610ffb33858585858080601f016020809104026020016040519081016040528093929190818152602001838380828437600081840152601f19601f82011690508083019250505050505050611b8c565b50505050565b600061101f3333858560405180602001604052806000815250611669565b6001905092915050565b60606000806006600085815260200190815260200160002060010180546001816001161561010002031660029004905014156110cd576040517f08c379a000000000000000000000000000000000000000000000000000000000815260040180806020018281038252600c8152602001807f696e76616c6964206e616d65000000000000000000000000000000000000000081525060200191505060405180910390fd5b600660008481526020019081526020016000206001016006600085815260200190815260200160002060000154818054600181600116156101000203166002900480601f01602080910402602001604051908101604052809291908181526020018280546001816001161561010002031660029004801561118f5780601f106111645761010080835404028352916020019161118f565b820191906000526020600020905b81548152906001019060200180831161117257829003601f168201915b5050505050915091509150915091565b6111ef33858585858080601f016020809104026020016040519081016040528093929190818152602001838380828437600081840152601f19601f8201169050808301925050505050505061210a565b50505050565b6000600660008381526020019081526020016000206001018054600181600116156101000203166002900490501415611296576040517f08c379a000000000000000000000000000000000000000000000000000000000815260040180806020018281038252600c8152602001807f696e76616c6964206e616d65000000000000000000000000000000000000000081525060200191505060405180910390fd5b600660008281526020019081526020016000206000808201600090556001820160006112c29190612547565b5050807f3d9bba27d3e360d8c80645beed7e991454a8271bf6f269a24f7782be0f0d065460066000848152602001908152602001600020600101600660008581526020019081526020016000206000015460405180806020018381526020018281038252848181546001816001161561010002031660029004815260200191508054600181600116156101000203166002900480156113a25780601f10611377576101008083540402835291602001916113a2565b820191906000526020600020905b81548152906001019060200180831161138557829003601f168201915b5050935050505060405180910390a250565b6000600360008473ffffffffffffffffffffffffffffffffffffffff1673ffffffffffffffffffffffffffffffffffffffff16815260200190815260200160002060008373ffffffffffffffffffffffffffffffffffffffff1673ffffffffffffffffffffffffffffffffffffffff16815260200190815260200160002054905092915050565b61148b33338585858080601f016020809104026020016040519081016040528093929190818152602001838380828437600081840152601f19601f82011690508083019250505050505050611b8c565b505050565b6114e13386868686868080601f016020809104026020016040519081016040528093929190818152602001838380828437600081840152601f19601f82011690508083019250505050505050611669565b5050505050565b6115393388888888888080601f016020809104026020016040519081016040528093929190818152602001838380828437600081840152601f19601f82011690508083019250505050505050611669565b8573ffffffffffffffffffffffffffffffffffffffff168773ffffffffffffffffffffffffffffffffffffffff167f6bf62b4b9c7b768275122bf70d429efc398a056d669b1efdf6c3976346246d7d338888888888604051808773ffffffffffffffffffffffffffffffffffffffff1673ffffffffffffffffffffffffffffffffffffffff16815260200186815260200180602001806020018381038352878782818152602001925080828437600081840152601f19601f8201169050808301925050508381038252858582818152602001925080828437600081840152601f19601f8201169050808301925050509850505050505050505060405180910390a350505050505050565b600760009054906101000a900473ffffffffffffffffffffffffffffffffffffffff1681565b600073ffffffffffffffffffffffffffffffffffffffff168373ffffffffffffffffffffffffffffffffffffffff16141561170c576040517f08c379a00000000000000000000000000000000000000000000000000000000081526004018080602001828103825260028152602001807f353700000000000000000000000000000000000000000000000000000000000081525060200191505060405180910390fd5b8373ffffffffffffffffffffffffffffffffffffffff168573ffffffffffffffffffffffffffffffffffffffff161461194157600360008573ffffffffffffffffffffffffffffffffffffffff1673ffffffffffffffffffffffffffffffffffffffff16815260200190815260200160002060008673ffffffffffffffffffffffffffffffffffffffff1673ffffffffffffffffffffffffffffffffffffffff16815260200190815260200160002054821115611831576040517f08c379a00000000000000000000000000000000000000000000000000000000081526004018080602001828103825260028152602001807f353300000000000000000000000000000000000000000000000000000000000081525060200191505060405180910390fd5b6118c082600360008773ffffffffffffffffffffffffffffffffffffffff1673ffffffffffffffffffffffffffffffffffffffff16815260200190815260200160002060008873ffffffffffffffffffffffffffffffffffffffff1673ffffffffffffffffffffffffffffffffffffffff1681526020019081526020016000205461233590919063ffffffff16565b600360008673ffffffffffffffffffffffffffffffffffffffff1673ffffffffffffffffffffffffffffffffffffffff16815260200190815260200160002060008773ffffffffffffffffffffffffffffffffffffffff1673ffffffffffffffffffffffffffffffffffffffff168152602001908152602001600020819055505b600260008573ffffffffffffffffffffffffffffffffffffffff1673ffffffffffffffffffffffffffffffffffffffff168152602001908152602001600020548211156119f6576040517f08c379a00000000000000000000000000000000000000000000000000000000081526004018080602001828103825260028152602001807f353200000000000000000000000000000000000000000000000000000000000081525060200191505060405180910390fd5b611a4882600260008773ffffffffffffffffffffffffffffffffffffffff1673ffffffffffffffffffffffffffffffffffffffff1681526020019081526020016000205461233590919063ffffffff16565b600260008673ffffffffffffffffffffffffffffffffffffffff1673ffffffffffffffffffffffffffffffffffffffff16815260200190815260200160002081905550611add82600260008673ffffffffffffffffffffffffffffffffffffffff1673ffffffffffffffffffffffffffffffffffffffff1681526020019081526020016000205461237f90919063ffffffff16565b600260008573ffffffffffffffffffffffffffffffffffffffff1673ffffffffffffffffffffffffffffffffffffffff168152602001908152602001600020819055508273ffffffffffffffffffffffffffffffffffffffff168473ffffffffffffffffffffffffffffffffffffffff167fddf252ad1be2c89b69c2b068fc378daa952ba7f163c4a11628f55a4df523b3ef846040518082815260200191505060405180910390a35050505050565b600073ffffffffffffffffffffffffffffffffffffffff168373ffffffffffffffffffffffffffffffffffffffff161415611c2f576040517f08c379a00000000000000000000000000000000000000000000000000000000081526004018080602001828103825260028152602001807f353600000000000000000000000000000000000000000000000000000000000081525060200191505060405180910390fd5b8273ffffffffffffffffffffffffffffffffffffffff168473ffffffffffffffffffffffffffffffffffffffff1614611e6457600360008473ffffffffffffffffffffffffffffffffffffffff1673ffffffffffffffffffffffffffffffffffffffff16815260200190815260200160002060008573ffffffffffffffffffffffffffffffffffffffff1673ffffffffffffffffffffffffffffffffffffffff16815260200190815260200160002054821115611d54576040517f08c379a00000000000000000000000000000000000000000000000000000000081526004018080602001828103825260028152602001807f353300000000000000000000000000000000000000000000000000000000000081525060200191505060405180910390fd5b611de382600360008673ffffffffffffffffffffffffffffffffffffffff1673ffffffffffffffffffffffffffffffffffffffff16815260200190815260200160002060008773ffffffffffffffffffffffffffffffffffffffff1673ffffffffffffffffffffffffffffffffffffffff1681526020019081526020016000205461233590919063ffffffff16565b600360008573ffffffffffffffffffffffffffffffffffffffff1673ffffffffffffffffffffffffffffffffffffffff16815260200190815260200160002060008673ffffffffffffffffffffffffffffffffffffffff1673ffffffffffffffffffffffffffffffffffffffff168152602001908152602001600020819055505b600260008473ffffffffffffffffffffffffffffffffffffffff1673ffffffffffffffffffffffffffffffffffffffff16815260200190815260200160002054821115611f19576040517f08c379a00000000000000000000000000000000000000000000000000000000081526004018080602001828103825260028152602001807f353200000000000000000000000000000000000000000000000000000000000081525060200191505060405180910390fd5b611f2e8260045461233590919063ffffffff16565b600481905550611f8682600260008673ffffffffffffffffffffffffffffffffffffffff1673ffffffffffffffffffffffffffffffffffffffff1681526020019081526020016000205461233590919063ffffffff16565b600260008573ffffffffffffffffffffffffffffffffffffffff1673ffffffffffffffffffffffffffffffffffffffff168152602001908152602001600020819055508273ffffffffffffffffffffffffffffffffffffffff168473ffffffffffffffffffffffffffffffffffffffff167fb7d0d6b60740753e9f16692a2f479472a1385aec2420fa43225b02f2ffa1afe784846040518083815260200180602001828103825283818151815260200191508051906020019080838360005b83811015612060578082015181840152602081019050612045565b50505050905090810190601f16801561208d5780820380516001836020036101000a031916815260200191505b50935050505060405180910390a350505050565b60008073ffffffffffffffffffffffffffffffffffffffff16600760009054906101000a900473ffffffffffffffffffffffffffffffffffffffff1673ffffffffffffffffffffffffffffffffffffffff1614156121025760009050612107565b600190505b90565b600073ffffffffffffffffffffffffffffffffffffffff168373ffffffffffffffffffffffffffffffffffffffff1614156121ad576040517f08c379a00000000000000000000000000000000000000000000000000000000081526004018080602001828103825260028152602001807f353700000000000000000000000000000000000000000000000000000000000081525060200191505060405180910390fd5b6121c28260045461237f90919063ffffffff16565b60048190555061221a82600260008673ffffffffffffffffffffffffffffffffffffffff1673ffffffffffffffffffffffffffffffffffffffff1681526020019081526020016000205461237f90919063ffffffff16565b600260008573ffffffffffffffffffffffffffffffffffffffff1673ffffffffffffffffffffffffffffffffffffffff168152602001908152602001600020819055508273ffffffffffffffffffffffffffffffffffffffff168473ffffffffffffffffffffffffffffffffffffffff167f0e9905d62635f049c2f4e11678ebf9dc3d1f8c4a653e290759b772e47ba00d0084846040518083815260200180602001828103825283818151815260200191508051906020019080838360005b838110156122f45780820151818401526020810190506122d9565b50505050905090810190601f1680156123215780820380516001836020036101000a031916815260200191505b50935050505060405180910390a350505050565b600061237783836040518060400160405280601e81526020017f536166654d6174683a207375627472616374696f6e206f766572666c6f770000815250612407565b905092915050565b6000808284019050838110156123fd576040517f08c379a000000000000000000000000000000000000000000000000000000000815260040180806020018281038252601b8152602001807f536166654d6174683a206164646974696f6e206f766572666c6f77000000000081525060200191505060405180910390fd5b8091505092915050565b60008383111582906124b4576040517f08c379a00000000000000000000000000000000000000000000000000000000081526004018080602001828103825283818151815260200191508051906020019080838360005b8381101561247957808201518184015260208101905061245e565b50505050905090810190601f1680156124a65780820380516001836020036101000a031916815260200191505b509250505060405180910390fd5b5060008385039050809150509392505050565b828054600181600116156101000203166002900490600052602060002090601f016020900481019282601f1061250857805160ff1916838001178555612536565b82800160010185558215612536579182015b8281111561253557825182559160200191906001019061251a565b5b509050612543919061258f565b5090565b50805460018160011615610100020316600290046000825580601f1061256d575061258c565b601f01602090049060005260206000209081019061258b919061258f565b5b50565b6125b191905b808211156125ad576000816000905550600101612595565b5090565b9056fea2646970667358221220bed6538701e181c10661e4227c4c97978df59de94cd867e66a40ec0462c13a6e64736f6c63430006000033",
  "source": "pragma solidity >0.4.23 <0.7.0;\n\nimport \"@openzeppelin/contracts/math/SafeMath.sol\";\nimport \"@openzeppelin/contracts/token/ERC20/IERC20.sol\";\nimport \"./helper/IERC1594.sol\";\nimport \"./helper/IERC1643.sol\";\nimport \"./helper/IERC1644.sol\";\n\n/**\n * @title Implementation of ERC1400 (Subset of ERC1400 https://github.com/ethereum/EIPs/issues/1411)\n */\ncontract LoanCoin is IERC20, IERC1594, IERC1643, IERC1644 {\n  using SafeMath for uint256;\n\n  constructor(string memory name, string memory symbol) public {\n    _name = name;\n    _symbol = symbol;\n    _totalSupply = 0;\n  }\n\n  /************************************************************************************************/\n  /****************************** ERC20 INTERFACE ****************************/\n  /************************************************************************************************/\n\n  // Optional\n  string internal _name;\n  string internal _symbol;\n\n  /**\n  * @dev Get the number of decimals of the token.\n  * @return The number of decimals of the token. For retrocompatibility, decimals are forced to 18 in ERC1400.\n  */\n  function decimals() external pure returns(uint8) {\n    return uint8(18);\n  }\n\n  // Compulsory\n\n  mapping (address => uint256) internal _balances;\n\n  mapping (address => mapping (address => uint256)) internal _allowed;\n\n  uint256 internal _totalSupply;\n\n  /**\n   * @dev Total number of tokens in existence\n   */\n  function totalSupply() external view override returns (uint256) {\n      return _totalSupply;\n  }\n\n  /**\n   * @dev Gets the balance of the specified address.\n   * @param owner The address to query the balance of.\n   * @return An uint256 representing the amount owned by the passed address.\n   */\n  function balanceOf(address owner) external view override returns (uint256) {\n      return _balances[owner];\n  }\n\n  /**\n   * @dev Transfer token for a specified address\n   * @param to The address to transfer to.\n   * @param value The amount to be transferred.\n   * @return A boolean that indicates if the operation was successful.\n   */\n  function transfer(address to, uint256 value) external override returns (bool) {\n      _transfer(msg.sender, msg.sender, to, value, \"\");\n      return true;\n  }\n\n  /**\n   * @dev Function to check the amount of tokens that an owner allowed to a spender.\n   * @param owner address The address which owns the funds.\n   * @param spender address The address which will spend the funds.\n   * @return A uint256 specifying the amount of tokens still available for the spender.\n   */\n  function allowance(address owner, address spender) external view override returns (uint256) {\n      return _allowed[owner][spender];\n  }\n\n  /**\n   * @dev Approve the passed address to spend the specified amount of tokens on behalf of 'msg.sender'.\n   * @param spender The address which will spend the funds.\n   * @param value The amount of tokens to be spent.\n   * @return A boolean that indicates if the operation was successful.\n   */\n  function approve(address spender, uint256 value) external override returns (bool) {\n    require(spender != address(0), \"56\"); // 0x56\tinvalid sender\n    _allowed[msg.sender][spender] = value;\n    emit Approval(msg.sender, spender, value);\n    return true;\n  }\n\n  /**\n  * @dev Transfer tokens from one address to another\n  * @param from address The address which you want to send tokens from\n  * @param to address The address which you want to transfer to\n  * @param value uint256 the amount of tokens to be transferred\n  */\n  function transferFrom(address from, address to, uint256 value) external override returns (bool) {\n      _transfer(msg.sender, from, to, value, \"\");\n      return true;\n  }\n\n  function _transfer(address operator, address from, address to, uint256 value, bytes memory data) internal {\n      require(to != address(0), \"57\"); // 0x57 invalid receiver\n      // If operator == from or operator == controller, check if _balances[from] is >= value\n      // If operator != from, check if _allowed[from][operator] is >= value\n      if (operator != from) {\n        require(value <= _allowed[from][operator], \"53\"); // 0x53\tinsufficient allowance\n        _allowed[from][operator] = _allowed[from][operator].sub(value);\n      }\n      require(value <= _balances[from], \"52\"); // 0x52 insufficient balance\n\n      _balances[from] = _balances[from].sub(value);\n      _balances[to] = _balances[to].add(value);\n\n      emit Transfer(from, to, value);\n  }\n\n  /************************************************************************************************/\n  /****************************** ERC1594 INTERFACE ****************************/\n  /************************************************************************************************/\n\n  /****************************************** Transfers *******************************************/\n\n  /**\n   * @dev Transfer the amount of tokens from the address 'msg.sender' to the address 'to'.\n   * @param to Token recipient.\n   * @param value Number of tokens to transfer.\n   * @param data Information attached to the transfer, by the token holder.\n   */\n  function transferWithData(address to, uint256 value, bytes calldata data) external override {\n    _transfer(msg.sender, msg.sender, to, value, data);\n  }\n\n  /**\n   * @dev Transfer the amount of tokens on behalf of the address 'from' to the address 'to'.\n   * @param from Token holder (or 'address(0)' to set from to 'msg.sender').\n   * @param to Token recipient.\n   * @param value Number of tokens to transfer.\n   * @param data Information attached to the transfer, and intended for the token holder ('from').\n   */\n  function transferFromWithData(address from, address to, uint256 value, bytes calldata data) external override {\n    _transfer(msg.sender, from, to, value, data);\n  }\n  /************************************************************************************************/\n\n  /*************************************** Token Redemption ***************************************/\n  /**.\n   * @dev Redeem the amount of tokens from the address 'msg.sender'.\n   * @param value Number of tokens to redeem.\n   * @param data Information attached to the redemption, by the token holder.\n   */\n  function redeem(uint256 value, bytes calldata data) external override {\n    _redeem(msg.sender, msg.sender, value, data);\n  }\n\n  /**\n   * @dev Redeem the amount of tokens on behalf of the address from.\n   * @param from Token holder whose tokens will be redeemed (or address(0) to set from to msg.sender).\n   * @param value Number of tokens to redeem.\n   * @param data Information attached to the redemption.\n   */\n  function redeemFrom(address from, uint256 value, bytes calldata data) external override {\n    _redeem(msg.sender, from, value, data);\n  }\n\n  function _redeem(address operator, address from, uint256 value, bytes memory data) internal {\n    require(from != address(0), \"56\"); // 0x56 invalid sender\n    if (operator != from) {\n      require(value <= _allowed[from][operator], \"53\"); // 0x53\tinsufficient allowance\n      _allowed[from][operator] = _allowed[from][operator].sub(value);\n    }\n    require(value <= _balances[from], \"52\"); // 0x52 insufficient balance\n\n    _totalSupply = _totalSupply.sub(value);\n    _balances[from] = _balances[from].sub(value);\n\n    emit Redeemed(operator, from, value, data);\n  }\n\n  /**************************************** Token Issuance ****************************************/\n  // Indicate whether the token can still be issued by the issuer or not anymore.\n  bool internal _isIssuable;\n\n  /**\n   * @dev Know if new tokens can be issued in the future.\n   * If a token returns FALSE for `isIssuable()` then it MUST never allow additional tokens to be issued.\n   * @return bool 'true' if tokens can still be issued by the issuer, 'false' if they can't anymore.\n   */\n  function isIssuable() external view override returns (bool) {\n    return _isIssuable;\n  }\n  /**\n   * @dev Issue tokens from default partition.\n   * @param tokenHolder Address for which we want to issue tokens.\n   * @param value Number of tokens issued.\n   * @param data Information attached to the issuance, by the issuer.\n   */\n  function issue(address tokenHolder, uint256 value, bytes calldata data) external override {\n    _issue(msg.sender, tokenHolder, value, data);\n  }\n\n  function _issue(address operator, address to, uint256 value, bytes memory data) internal {\n    require(to != address(0), \"57\"); // 0x57 invalid receiver\n\n    // Insert logic about who can issue...?\n\n    _totalSupply = _totalSupply.add(value);\n    _balances[to] = _balances[to].add(value);\n\n    emit Issued(operator, to, value, data);\n  }\n  /************************************************************************************************/\n\n  /************************************************************************************************/\n  /****************************** ERC1643 INTERFACE ****************************/\n  /************************************************************************************************/\n\n  /************************************* Document Management **************************************/\n  struct Document {\n    bytes32 docHash; // Hash of the document\n    string docUri; // URI of the document that exist off-chain\n  }\n\n  // mapping to store the documents details in the document\n  mapping(bytes32 => Document) internal _documents;\n\n  /**\n   * @notice Used to attach a new document to the contract, or update the URI or hash of an existing attached document\n   * @dev Can only be executed by the owner of the contract.\n   * @param name Name of the document. It should be unique always\n   * @param documentUri Off-chain uri of the document from where it is accessible to investors/advisors to read.\n   * @param documentHash hash (of the contents) of the document.\n   */\n  function setDocument(bytes32 name, string calldata documentUri, bytes32 documentHash) external override {\n    _documents[name] = Document(documentHash, documentUri);\n    emit DocumentSet(name, documentUri, documentHash);\n  }\n\n  /**\n   * @notice Used to remove an existing document from the contract by giving the name of the document.\n   * @dev Can only be executed by the owner of the contract.\n   * @param name Name of the document. It should be unique always\n   */\n  function removeDocument(bytes32 name) external override {\n    require(bytes(_documents[name].docUri).length != 0, \"invalid name\");\n    delete _documents[name];\n    emit DocumentRemoved(name, _documents[name].docUri, _documents[name].docHash);\n  }\n\n  /**\n   * @notice Used to return the details of a document with a known name (`bytes32`).\n   * @param name Name of the document\n   * @return string The URI associated with the document.\n   * @return bytes32 The hash (of the contents) of the document.\n   */\n  function getDocument(bytes32 name) external view override returns (string memory, bytes32) {\n    require(bytes(_documents[name].docUri).length != 0, \"invalid name\");\n    return (\n      _documents[name].docUri,\n      _documents[name].docHash\n    );\n  }\n\n  /************************************************************************************************/\n\n  /************************************************************************************************/\n  /****************************** ERC1644 INTERFACE ****************************/\n  /************************************************************************************************/\n\n  /************************************* Controller Operation **************************************/\n\n  // Address of the controller which is a delegated entity\n  // set by the issuer/owner of the token\n  address public controller;\n\n  // Modifier to check whether the msg.sender is authorised or not\n  modifier onlyController() {\n      require(msg.sender == controller, \"Not Authorised\");\n      _;\n  }\n\n  /**\n   * @notice In order to provide transparency over whether `controllerTransfer` / `controllerRedeem` are useable\n   * or not `isControllable` function will be used.\n   * @dev If `isControllable` returns `false` then it always return `false` and\n   * `controllerTransfer` / `controllerRedeem` will always revert.\n   * @return bool `true` when controller address is non-zero otherwise return `false`.\n   */\n  function isControllable() external view override returns (bool) {\n      return _isControllable();\n  }\n\n  /**\n   * @notice Internal function to know whether the controller functionality\n   * allowed or not.\n   * @return bool `true` when controller address is non-zero otherwise return `false`.\n   */\n  function _isControllable() internal view returns (bool) {\n      if (controller == address(0))\n          return false;\n      else\n          return true;\n  }\n\n  /**\n   * @notice This function allows an authorised address to transfer tokens between any two token holders.\n   * The transfer must still respect the balances of the token holders (so the transfer must be for at most\n   * `balanceOf(_from)` tokens) and potentially also need to respect other transfer restrictions.\n   * @dev This function can only be executed by the `controller` address.\n   * @param _from Address The address which you want to send tokens from\n   * @param _to Address The address which you want to transfer to\n   * @param _value uint256 the amount of tokens to be transferred\n   * @param _data data to validate the transfer. (It is not used in this reference implementation\n   * because use of `_data` parameter is implementation specific).\n   * @param _operatorData data attached to the transfer by controller to emit in event. (It is more like a reason string\n   * for calling this function (aka force transfer) which provides the transparency on-chain).\n   */\n  function controllerTransfer(address _from, address _to, uint256 _value, bytes calldata _data, bytes calldata _operatorData) external override {\n      _transfer(msg.sender, _from, _to, _value, _data);\n      emit ControllerTransfer(msg.sender, _from, _to, _value, _data, _operatorData);\n  }\n\n  /**\n   * @notice This function allows an authorised address to redeem tokens for any token holder.\n   * The redemption must still respect the balances of the token holder (so the redemption must be for at most\n   * `balanceOf(_tokenHolder)` tokens) and potentially also need to respect other transfer restrictions.\n   * @dev This function can only be executed by the `controller` address.\n   * @param _tokenHolder The account whose tokens will be redeemed.\n   * @param _value uint256 the amount of tokens need to be redeemed.\n   * @param _data data to validate the transfer. (It is not used in this reference implementation\n   * because use of `_data` parameter is implementation specific).\n   * @param _operatorData data attached to the transfer by controller to emit in event. (It is more like a reason string\n   * for calling this function (aka force transfer) which provides the transparency on-chain).\n   */\n  function controllerRedeem(address _tokenHolder, uint256 _value, bytes calldata _data, bytes calldata _operatorData) external override {\n      _redeem(msg.sender, _tokenHolder, _value, _data);\n      emit ControllerRedemption(msg.sender, _tokenHolder, _value, _data, _operatorData);\n  }\n\n\n}\n",
  "sourcePath": "/Users/FinnHarman/Google Drive/Computing Science/Individual Project/Code/LoanCoin/contracts/LoanCoin.sol",
  "compiler": {
    "name": "solc",
    "version": "0.6.0+commit.26b70077.Emscripten.clang"
  },
  "schemaVersion": "3.2.0",
  "updatedAt": "2020-07-08T16:26:01.320Z",
  "devdoc": {
    "methods": {
      "allowance(address,address)": {
        "details": "Function to check the amount of tokens that an owner allowed to a spender.",
        "params": {
          "owner": "address The address which owns the funds.",
          "spender": "address The address which will spend the funds."
        },
        "returns": {
          "_0": "A uint256 specifying the amount of tokens still available for the spender."
        }
      },
      "approve(address,uint256)": {
        "details": "Approve the passed address to spend the specified amount of tokens on behalf of 'msg.sender'.",
        "params": {
          "spender": "The address which will spend the funds.",
          "value": "The amount of tokens to be spent."
        },
        "returns": {
          "_0": "A boolean that indicates if the operation was successful."
        }
      },
      "balanceOf(address)": {
        "details": "Gets the balance of the specified address.",
        "params": {
          "owner": "The address to query the balance of."
        },
        "returns": {
          "_0": "An uint256 representing the amount owned by the passed address."
        }
      },
      "controllerRedeem(address,uint256,bytes,bytes)": {
        "details": "This function can only be executed by the `controller` address.",
        "params": {
          "_data": "data to validate the transfer. (It is not used in this reference implementation because use of `_data` parameter is implementation specific).",
          "_operatorData": "data attached to the transfer by controller to emit in event. (It is more like a reason string for calling this function (aka force transfer) which provides the transparency on-chain).",
          "_tokenHolder": "The account whose tokens will be redeemed.",
          "_value": "uint256 the amount of tokens need to be redeemed."
        }
      },
      "controllerTransfer(address,address,uint256,bytes,bytes)": {
        "details": "This function can only be executed by the `controller` address.",
        "params": {
          "_data": "data to validate the transfer. (It is not used in this reference implementation because use of `_data` parameter is implementation specific).",
          "_from": "Address The address which you want to send tokens from",
          "_operatorData": "data attached to the transfer by controller to emit in event. (It is more like a reason string for calling this function (aka force transfer) which provides the transparency on-chain).",
          "_to": "Address The address which you want to transfer to",
          "_value": "uint256 the amount of tokens to be transferred"
        }
      },
      "decimals()": {
        "details": "Get the number of decimals of the token.",
        "returns": {
          "_0": "The number of decimals of the token. For retrocompatibility, decimals are forced to 18 in ERC1400."
        }
      },
      "getDocument(bytes32)": {
        "params": {
          "name": "Name of the document"
        },
        "returns": {
          "_0": "string The URI associated with the document.",
          "_1": "bytes32 The hash (of the contents) of the document."
        }
      },
      "isControllable()": {
        "details": "If `isControllable` returns `false` then it always return `false` and `controllerTransfer` / `controllerRedeem` will always revert.",
        "returns": {
          "_0": "bool `true` when controller address is non-zero otherwise return `false`."
        }
      },
      "isIssuable()": {
        "details": "Know if new tokens can be issued in the future. If a token returns FALSE for `isIssuable()` then it MUST never allow additional tokens to be issued.",
        "returns": {
          "_0": "bool 'true' if tokens can still be issued by the issuer, 'false' if they can't anymore."
        }
      },
      "issue(address,uint256,bytes)": {
        "details": "Issue tokens from default partition.",
        "params": {
          "data": "Information attached to the issuance, by the issuer.",
          "tokenHolder": "Address for which we want to issue tokens.",
          "value": "Number of tokens issued."
        }
      },
      "redeem(uint256,bytes)": {
        "details": "Redeem the amount of tokens from the address 'msg.sender'.",
        "params": {
          "data": "Information attached to the redemption, by the token holder.",
          "value": "Number of tokens to redeem."
        }
      },
      "redeemFrom(address,uint256,bytes)": {
        "details": "Redeem the amount of tokens on behalf of the address from.",
        "params": {
          "data": "Information attached to the redemption.",
          "from": "Token holder whose tokens will be redeemed (or address(0) to set from to msg.sender).",
          "value": "Number of tokens to redeem."
        }
      },
      "removeDocument(bytes32)": {
        "details": "Can only be executed by the owner of the contract.",
        "params": {
          "name": "Name of the document. It should be unique always"
        }
      },
      "setDocument(bytes32,string,bytes32)": {
        "details": "Can only be executed by the owner of the contract.",
        "params": {
          "documentHash": "hash (of the contents) of the document.",
          "documentUri": "Off-chain uri of the document from where it is accessible to investors/advisors to read.",
          "name": "Name of the document. It should be unique always"
        }
      },
      "totalSupply()": {
        "details": "Total number of tokens in existence"
      },
      "transfer(address,uint256)": {
        "details": "Transfer token for a specified address",
        "params": {
          "to": "The address to transfer to.",
          "value": "The amount to be transferred."
        },
        "returns": {
          "_0": "A boolean that indicates if the operation was successful."
        }
      },
      "transferFrom(address,address,uint256)": {
        "details": "Transfer tokens from one address to another",
        "params": {
          "from": "address The address which you want to send tokens from",
          "to": "address The address which you want to transfer to",
          "value": "uint256 the amount of tokens to be transferred"
        }
      },
      "transferFromWithData(address,address,uint256,bytes)": {
        "details": "Transfer the amount of tokens on behalf of the address 'from' to the address 'to'.",
        "params": {
          "data": "Information attached to the transfer, and intended for the token holder ('from').",
          "from": "Token holder (or 'address(0)' to set from to 'msg.sender').",
          "to": "Token recipient.",
          "value": "Number of tokens to transfer."
        }
      },
      "transferWithData(address,uint256,bytes)": {
        "details": "Transfer the amount of tokens from the address 'msg.sender' to the address 'to'.",
        "params": {
          "data": "Information attached to the transfer, by the token holder.",
          "to": "Token recipient.",
          "value": "Number of tokens to transfer."
        }
      }
    },
    "title": "Implementation of ERC1400 (Subset of ERC1400 https://github.com/ethereum/EIPs/issues/1411)"
  },
  "userdoc": {
    "methods": {
      "controllerRedeem(address,uint256,bytes,bytes)": {
        "notice": "This function allows an authorised address to redeem tokens for any token holder. The redemption must still respect the balances of the token holder (so the redemption must be for at most `balanceOf(_tokenHolder)` tokens) and potentially also need to respect other transfer restrictions."
      },
      "controllerTransfer(address,address,uint256,bytes,bytes)": {
        "notice": "This function allows an authorised address to transfer tokens between any two token holders. The transfer must still respect the balances of the token holders (so the transfer must be for at most `balanceOf(_from)` tokens) and potentially also need to respect other transfer restrictions."
      },
      "getDocument(bytes32)": {
        "notice": "Used to return the details of a document with a known name (`bytes32`)."
      },
      "isControllable()": {
        "notice": "In order to provide transparency over whether `controllerTransfer` / `controllerRedeem` are useable or not `isControllable` function will be used."
      },
      "redeem(uint256,bytes)": {
        "notice": "."
      },
      "removeDocument(bytes32)": {
        "notice": "Used to remove an existing document from the contract by giving the name of the document."
      },
      "setDocument(bytes32,string,bytes32)": {
        "notice": "Used to attach a new document to the contract, or update the URI or hash of an existing attached document"
      }
    }
  }
}