{
  "contractName": "Proposal",
  "abi": [
    {
      "inputs": [
        {
          "internalType": "address",
          "name": "_lenderAddress",
          "type": "address"
        },
        {
          "internalType": "address",
          "name": "_borrowerAddress",
          "type": "address"
        },
        {
          "internalType": "uint256",
          "name": "_isaAmount",
          "type": "uint256"
        },
        {
          "internalType": "uint256",
          "name": "_incomePercentage",
          "type": "uint256"
        },
        {
          "internalType": "uint256",
          "name": "_timePeriod",
          "type": "uint256"
        },
        {
          "internalType": "uint256",
          "name": "_buyoutAmount",
          "type": "uint256"
        },
        {
          "internalType": "uint256",
          "name": "_minimumIncome",
          "type": "uint256"
        },
        {
          "internalType": "uint256",
          "name": "_paymentCap",
          "type": "uint256"
        }
      ],
      "stateMutability": "nonpayable",
      "type": "constructor"
    },
    {
      "inputs": [],
      "name": "borrowerAddress",
      "outputs": [
        {
          "internalType": "address",
          "name": "",
          "type": "address"
        }
      ],
      "stateMutability": "view",
      "type": "function"
    },
    {
      "inputs": [],
      "name": "bothAgree",
      "outputs": [
        {
          "internalType": "bool",
          "name": "",
          "type": "bool"
        }
      ],
      "stateMutability": "view",
      "type": "function"
    },
    {
      "inputs": [],
      "name": "buyoutAmount",
      "outputs": [
        {
          "internalType": "uint256",
          "name": "",
          "type": "uint256"
        }
      ],
      "stateMutability": "view",
      "type": "function"
    },
    {
      "inputs": [],
      "name": "incomePercentage",
      "outputs": [
        {
          "internalType": "uint256",
          "name": "",
          "type": "uint256"
        }
      ],
      "stateMutability": "view",
      "type": "function"
    },
    {
      "inputs": [],
      "name": "isaAmount",
      "outputs": [
        {
          "internalType": "uint256",
          "name": "",
          "type": "uint256"
        }
      ],
      "stateMutability": "view",
      "type": "function"
    },
    {
      "inputs": [],
      "name": "lenderAddress",
      "outputs": [
        {
          "internalType": "address",
          "name": "",
          "type": "address"
        }
      ],
      "stateMutability": "view",
      "type": "function"
    },
    {
      "inputs": [],
      "name": "minimumIncome",
      "outputs": [
        {
          "internalType": "uint256",
          "name": "",
          "type": "uint256"
        }
      ],
      "stateMutability": "view",
      "type": "function"
    },
    {
      "inputs": [],
      "name": "paymentCap",
      "outputs": [
        {
          "internalType": "uint256",
          "name": "",
          "type": "uint256"
        }
      ],
      "stateMutability": "view",
      "type": "function"
    },
    {
      "inputs": [],
      "name": "timePeriod",
      "outputs": [
        {
          "internalType": "uint256",
          "name": "",
          "type": "uint256"
        }
      ],
      "stateMutability": "view",
      "type": "function"
    },
    {
      "inputs": [],
      "name": "agree",
      "outputs": [],
      "stateMutability": "nonpayable",
      "type": "function"
    }
  ],
  "bytecode": "0x608060405234801561001057600080fd5b506040516105fa3803806105fa833981810160405261010081101561003457600080fd5b810190808051906020019092919080519060200190929190805190602001909291908051906020019092919080519060200190929190805190602001909291908051906020019092919080519060200190929190505050876000806101000a81548173ffffffffffffffffffffffffffffffffffffffff021916908373ffffffffffffffffffffffffffffffffffffffff16021790555086600160006101000a81548173ffffffffffffffffffffffffffffffffffffffff021916908373ffffffffffffffffffffffffffffffffffffffff1602179055508560028190555084600381905550836004819055508260058190555081600681905550806007819055506000600860006101000a81548160ff0219169083151502179055506000600860016101000a81548160ff0219169083151502179055506000600860026101000a81548160ff021916908315150217905550505050505050505061045c8061019e6000396000f3fe608060405234801561001057600080fd5b506004361061009e5760003560e01c80638a133dc8116100665780638a133dc8146101915780638fae60a5146101b3578063ba111079146101bd578063e9497b5f146101db578063f1b79e53146101f95761009e565b80631829b73f146100a3578063347775b0146100c15780633e79d1e1146100df57806369d81255146100fd5780637ba61ea514610147575b600080fd5b6100ab610217565b6040518082815260200191505060405180910390f35b6100c961021d565b6040518082815260200191505060405180910390f35b6100e7610223565b6040518082815260200191505060405180910390f35b610105610229565b604051808273ffffffffffffffffffffffffffffffffffffffff1673ffffffffffffffffffffffffffffffffffffffff16815260200191505060405180910390f35b61014f61024e565b604051808273ffffffffffffffffffffffffffffffffffffffff1673ffffffffffffffffffffffffffffffffffffffff16815260200191505060405180910390f35b610199610274565b604051808215151515815260200191505060405180910390f35b6101bb610287565b005b6101c5610414565b6040518082815260200191505060405180910390f35b6101e361041a565b6040518082815260200191505060405180910390f35b610201610420565b6040518082815260200191505060405180910390f35b60055481565b60075481565b60045481565b6000809054906101000a900473ffffffffffffffffffffffffffffffffffffffff1681565b600160009054906101000a900473ffffffffffffffffffffffffffffffffffffffff1681565b600860029054906101000a900460ff1681565b6000809054906101000a900473ffffffffffffffffffffffffffffffffffffffff1673ffffffffffffffffffffffffffffffffffffffff163373ffffffffffffffffffffffffffffffffffffffff16148061032f5750600160009054906101000a900473ffffffffffffffffffffffffffffffffffffffff1673ffffffffffffffffffffffffffffffffffffffff163373ffffffffffffffffffffffffffffffffffffffff16145b61033857600080fd5b6000809054906101000a900473ffffffffffffffffffffffffffffffffffffffff1673ffffffffffffffffffffffffffffffffffffffff163373ffffffffffffffffffffffffffffffffffffffff1614156103ad576001600860006101000a81548160ff0219169083151502179055506103c9565b6001600860016101000a81548160ff0219169083151502179055505b600860009054906101000a900460ff1680156103f15750600860019054906101000a900460ff165b15610412576001600860026101000a81548160ff0219169083151502179055505b565b60025481565b60035481565b6006548156fea264697066735822122006e6af869093934b77ac8521f7349b0da7e09ec97085799649f67d89eb77120864736f6c63430006010033",
  "source": "pragma solidity >0.4.23 <0.7.0;\n\nimport \"openzeppelin-solidity/contracts/math/SafeMath.sol\";\nimport \"openzeppelin-solidity/contracts/access/Ownable.sol\";\n\ncontract Proposal {\n\n  address public lenderAddress;\n  address public borrowerAddress;\n  uint256 public isaAmount;\n  uint256 public incomePercentage;\n  uint256 public timePeriod;\n  uint256 public buyoutAmount;\n  uint256 public minimumIncome;\n  uint256 public paymentCap;\n\n  bool private lenderAgree;\n  bool private borrowerAgree;\n  bool public bothAgree;\n\n  constructor(\n    address _lenderAddress,\n    address _borrowerAddress,\n    uint256 _isaAmount,\n    uint256 _incomePercentage,\n    uint256 _timePeriod,\n    uint256 _buyoutAmount,\n    uint256 _minimumIncome,\n    uint256 _paymentCap\n  )\n    public\n  {\n    lenderAddress = _lenderAddress;\n    borrowerAddress = _borrowerAddress;\n    isaAmount = _isaAmount;\n    incomePercentage = _incomePercentage;\n    timePeriod = _timePeriod;\n    buyoutAmount = _buyoutAmount;\n    minimumIncome = _minimumIncome;\n    paymentCap = _paymentCap;\n\n    lenderAgree = false;\n    borrowerAgree = false;\n    bothAgree = false;\n  }\n\n  function agree() external {\n    require(msg.sender == lenderAddress || msg.sender == borrowerAddress);\n    if (msg.sender == lenderAddress) {\n      lenderAgree = true;\n    } else {\n      borrowerAgree = true;\n    }\n\n    if (lenderAgree && borrowerAgree) {\n      bothAgree = true;\n    }\n  }\n}\n",
  "sourcePath": "/Users/FinnHarman/Google Drive/Computing Science/Individual Project/Code/ISA/contracts/Proposal.sol",
  "compiler": {
    "name": "solc",
    "version": "0.6.1+commit.e6f7d5a4.Emscripten.clang"
  },
  "schemaVersion": "3.2.0",
  "updatedAt": "2020-07-31T15:23:48.962Z",
  "devdoc": {
    "methods": {}
  },
  "userdoc": {
    "methods": {}
  }
}