{
  "contractName": "Proposal",
  "abi": [
    {
      "inputs": [
        {
          "internalType": "uint256",
          "name": "_amount",
          "type": "uint256"
        },
        {
          "internalType": "uint256",
          "name": "_percentage",
          "type": "uint256"
        },
        {
          "internalType": "uint256",
          "name": "_time",
          "type": "uint256"
        },
        {
          "internalType": "address",
          "name": "_from",
          "type": "address"
        },
        {
          "internalType": "address",
          "name": "_to",
          "type": "address"
        }
      ],
      "stateMutability": "nonpayable",
      "type": "constructor"
    },
    {
      "inputs": [],
      "name": "amount",
      "outputs": [
        {
          "internalType": "uint256",
          "name": "",
          "type": "uint256"
        }
      ],
      "stateMutability": "view",
      "type": "function"
    },
    {
      "inputs": [],
      "name": "bothAgree",
      "outputs": [
        {
          "internalType": "bool",
          "name": "",
          "type": "bool"
        }
      ],
      "stateMutability": "view",
      "type": "function"
    },
    {
      "inputs": [],
      "name": "from",
      "outputs": [
        {
          "internalType": "address",
          "name": "",
          "type": "address"
        }
      ],
      "stateMutability": "view",
      "type": "function"
    },
    {
      "inputs": [],
      "name": "percentage",
      "outputs": [
        {
          "internalType": "uint256",
          "name": "",
          "type": "uint256"
        }
      ],
      "stateMutability": "view",
      "type": "function"
    },
    {
      "inputs": [],
      "name": "requestReason",
      "outputs": [
        {
          "internalType": "string",
          "name": "",
          "type": "string"
        }
      ],
      "stateMutability": "view",
      "type": "function"
    },
    {
      "inputs": [],
      "name": "requestStatus",
      "outputs": [
        {
          "internalType": "bool",
          "name": "",
          "type": "bool"
        }
      ],
      "stateMutability": "view",
      "type": "function"
    },
    {
      "inputs": [],
      "name": "requested",
      "outputs": [
        {
          "internalType": "bool",
          "name": "",
          "type": "bool"
        }
      ],
      "stateMutability": "view",
      "type": "function"
    },
    {
      "inputs": [],
      "name": "time",
      "outputs": [
        {
          "internalType": "uint256",
          "name": "",
          "type": "uint256"
        }
      ],
      "stateMutability": "view",
      "type": "function"
    },
    {
      "inputs": [],
      "name": "to",
      "outputs": [
        {
          "internalType": "address",
          "name": "",
          "type": "address"
        }
      ],
      "stateMutability": "view",
      "type": "function"
    },
    {
      "inputs": [],
      "name": "agree",
      "outputs": [],
      "stateMutability": "nonpayable",
      "type": "function"
    },
    {
      "inputs": [],
      "name": "disagree",
      "outputs": [],
      "stateMutability": "nonpayable",
      "type": "function"
    },
    {
      "inputs": [],
      "name": "request",
      "outputs": [],
      "stateMutability": "nonpayable",
      "type": "function"
    },
    {
      "inputs": [
        {
          "internalType": "bool",
          "name": "status",
          "type": "bool"
        }
      ],
      "name": "setRequestStatus",
      "outputs": [],
      "stateMutability": "nonpayable",
      "type": "function"
    },
    {
      "inputs": [
        {
          "internalType": "string",
          "name": "reason",
          "type": "string"
        }
      ],
      "name": "setRequestReason",
      "outputs": [],
      "stateMutability": "nonpayable",
      "type": "function"
    }
  ],
  "bytecode": "0x608060405234801561001057600080fd5b50604051610a60380380610a60833981810160405260a081101561003357600080fd5b81019080805190602001909291908051906020019092919080519060200190929190805190602001909291908051906020019092919050505084600081905550836001819055508260028190555081600360006101000a81548173ffffffffffffffffffffffffffffffffffffffff021916908373ffffffffffffffffffffffffffffffffffffffff16021790555080600460006101000a81548173ffffffffffffffffffffffffffffffffffffffff021916908373ffffffffffffffffffffffffffffffffffffffff1602179055506000600460146101000a81548160ff0219169083151502179055506000600460156101000a81548160ff0219169083151502179055506000600460166101000a81548160ff0219169083151502179055506000600460176101000a81548160ff02191690831515021790555050505050506108dd806101836000396000f3fe608060405234801561001057600080fd5b50600436106100ea5760003560e01c8063741d2cdd1161008c578063aa8c217c11610066578063aa8c217c146102e5578063c36dfdb314610303578063c78ad77f14610325578063d5ce338914610343576100ea565b8063741d2cdd146102365780638a133dc8146102b95780638fae60a5146102db576100ea565b806328dc64d2116100c857806328dc64d214610187578063338cdca1146102005780633fae96511461020a5780636d3d0a8f1461022c576100ea565b80630ad633d1146100ef578063131519811461011f57806316ada54714610169575b600080fd5b61011d6004803603602081101561010557600080fd5b8101908080351515906020019092919050505061038d565b005b6101276103aa565b604051808273ffffffffffffffffffffffffffffffffffffffff1673ffffffffffffffffffffffffffffffffffffffff16815260200191505060405180910390f35b6101716103d0565b6040518082815260200191505060405180910390f35b6101fe6004803603602081101561019d57600080fd5b81019080803590602001906401000000008111156101ba57600080fd5b8201836020820111156101cc57600080fd5b803590602001918460018302840111640100000000831117156101ee57600080fd5b90919293919293905050506103d6565b005b6102086103ec565b005b610212610409565b604051808215151515815260200191505060405180910390f35b61023461041c565b005b61023e61057d565b6040518080602001828103825283818151815260200191508051906020019080838360005b8381101561027e578082015181840152602081019050610263565b50505050905090810190601f1680156102ab5780820380516001836020036101000a031916815260200191505b509250505060405180910390f35b6102c161061b565b604051808215151515815260200191505060405180910390f35b6102e361062e565b005b6102ed6107bd565b6040518082815260200191505060405180910390f35b61030b6107c3565b604051808215151515815260200191505060405180910390f35b61032d6107d6565b6040518082815260200191505060405180910390f35b61034b6107dc565b604051808273ffffffffffffffffffffffffffffffffffffffff1673ffffffffffffffffffffffffffffffffffffffff16815260200191505060405180910390f35b80600460186101000a81548160ff02191690831515021790555050565b600460009054906101000a900473ffffffffffffffffffffffffffffffffffffffff1681565b60025481565b8181600591906103e7929190610802565b505050565b6001600460176101000a81548160ff021916908315150217905550565b600460179054906101000a900460ff1681565b600360009054906101000a900473ffffffffffffffffffffffffffffffffffffffff1673ffffffffffffffffffffffffffffffffffffffff163373ffffffffffffffffffffffffffffffffffffffff1614806104c55750600460009054906101000a900473ffffffffffffffffffffffffffffffffffffffff1673ffffffffffffffffffffffffffffffffffffffff163373ffffffffffffffffffffffffffffffffffffffff16145b6104ce57600080fd5b600360009054906101000a900473ffffffffffffffffffffffffffffffffffffffff1673ffffffffffffffffffffffffffffffffffffffff163373ffffffffffffffffffffffffffffffffffffffff161415610544576000600460146101000a81548160ff021916908315150217905550610560565b6000600460156101000a81548160ff0219169083151502179055505b6000600460166101000a81548160ff021916908315150217905550565b60058054600181600116156101000203166002900480601f0160208091040260200160405190810160405280929190818152602001828054600181600116156101000203166002900480156106135780601f106105e857610100808354040283529160200191610613565b820191906000526020600020905b8154815290600101906020018083116105f657829003601f168201915b505050505081565b600460169054906101000a900460ff1681565b600360009054906101000a900473ffffffffffffffffffffffffffffffffffffffff1673ffffffffffffffffffffffffffffffffffffffff163373ffffffffffffffffffffffffffffffffffffffff1614806106d75750600460009054906101000a900473ffffffffffffffffffffffffffffffffffffffff1673ffffffffffffffffffffffffffffffffffffffff163373ffffffffffffffffffffffffffffffffffffffff16145b6106e057600080fd5b600360009054906101000a900473ffffffffffffffffffffffffffffffffffffffff1673ffffffffffffffffffffffffffffffffffffffff163373ffffffffffffffffffffffffffffffffffffffff161415610756576001600460146101000a81548160ff021916908315150217905550610772565b6001600460156101000a81548160ff0219169083151502179055505b600460149054906101000a900460ff16801561079a5750600460159054906101000a900460ff165b156107bb576001600460166101000a81548160ff0219169083151502179055505b565b60005481565b600460189054906101000a900460ff1681565b60015481565b600360009054906101000a900473ffffffffffffffffffffffffffffffffffffffff1681565b828054600181600116156101000203166002900490600052602060002090601f016020900481019282601f1061084357803560ff1916838001178555610871565b82800160010185558215610871579182015b82811115610870578235825591602001919060010190610855565b5b50905061087e9190610882565b5090565b6108a491905b808211156108a0576000816000905550600101610888565b5090565b9056fea2646970667358221220c5f713f5e0ca958222e64ce0b17253cc5c26c43261f4cc4a446fef10cbf76c9564736f6c63430006010033",
  "source": "pragma solidity >0.4.23 <0.7.0;\n\nimport \"openzeppelin-solidity/contracts/math/SafeMath.sol\";\nimport \"openzeppelin-solidity/contracts/access/Ownable.sol\";\n\ncontract Proposal {\n\n  uint256 public amount;\n  uint256 public percentage;\n  uint256 public time;\n  address public from;\n  address public to;\n\n  bool private fromAgree;\n  bool private toAgree;\n  bool public bothAgree;\n\n  bool public requested;\n  bool public requestStatus;\n  string public requestReason;\n\n  constructor(\n    uint256 _amount,\n    uint256 _percentage,\n    uint256 _time,\n    address _from,\n    address _to\n  )\n    public\n  {\n    amount = _amount;\n    percentage = _percentage;\n    time = _time;\n    from = _from;\n    to = _to;\n\n    fromAgree = false;\n    toAgree = false;\n    bothAgree = false;\n\n    requested = false;\n  }\n\n  function agree() external {\n    require(msg.sender == from || msg.sender == to);\n    if (msg.sender == from) {\n      fromAgree = true;\n    } else {\n      toAgree = true;\n    }\n\n    if (fromAgree && toAgree) {\n      bothAgree = true;\n    }\n  }\n\n  function disagree() external {\n    require(msg.sender == from || msg.sender == to);\n    if (msg.sender == from) {\n      fromAgree = false;\n    } else {\n      toAgree = false;\n    }\n    bothAgree = false;\n  }\n\n  function request() external {\n    requested = true;\n  }\n\n  function setRequestStatus(bool status) external {\n    requestStatus = status;\n  }\n\n  function setRequestReason(string calldata reason) external {\n    requestReason = reason;\n  }\n}\n",
  "sourcePath": "/Users/FinnHarman/Google Drive/Computing Science/Individual Project/Code/ISA/contracts/Proposal.sol",
  "compiler": {
    "name": "solc",
    "version": "0.6.1+commit.e6f7d5a4.Emscripten.clang"
  },
  "schemaVersion": "3.2.0",
  "updatedAt": "2020-07-16T13:54:01.209Z",
  "devdoc": {
    "methods": {}
  },
  "userdoc": {
    "methods": {}
  }
}