{
  "contractName": "Proposal",
  "abi": [
    {
      "inputs": [
        {
          "internalType": "address",
          "name": "_lenderAddress",
          "type": "address"
        },
        {
          "internalType": "address",
          "name": "_borrowerAddress",
          "type": "address"
        },
        {
          "internalType": "uint256",
          "name": "_isaAmount",
          "type": "uint256"
        },
        {
          "internalType": "uint256",
          "name": "_incomePercentage",
          "type": "uint256"
        },
        {
          "internalType": "uint256",
          "name": "_timePeriod",
          "type": "uint256"
        },
        {
          "internalType": "uint256",
          "name": "_buyoutAmount",
          "type": "uint256"
        },
        {
          "internalType": "uint256",
          "name": "_minimumIncome",
          "type": "uint256"
        },
        {
          "internalType": "uint256",
          "name": "_paymentCap",
          "type": "uint256"
        }
      ],
      "stateMutability": "nonpayable",
      "type": "constructor"
    },
    {
      "inputs": [],
      "name": "borrowerAddress",
      "outputs": [
        {
          "internalType": "address",
          "name": "",
          "type": "address"
        }
      ],
      "stateMutability": "view",
      "type": "function"
    },
    {
      "inputs": [],
      "name": "borrowerAgree",
      "outputs": [
        {
          "internalType": "bool",
          "name": "",
          "type": "bool"
        }
      ],
      "stateMutability": "view",
      "type": "function"
    },
    {
      "inputs": [],
      "name": "bothAgree",
      "outputs": [
        {
          "internalType": "bool",
          "name": "",
          "type": "bool"
        }
      ],
      "stateMutability": "view",
      "type": "function"
    },
    {
      "inputs": [],
      "name": "buyoutAmount",
      "outputs": [
        {
          "internalType": "uint256",
          "name": "",
          "type": "uint256"
        }
      ],
      "stateMutability": "view",
      "type": "function"
    },
    {
      "inputs": [],
      "name": "incomePercentage",
      "outputs": [
        {
          "internalType": "uint256",
          "name": "",
          "type": "uint256"
        }
      ],
      "stateMutability": "view",
      "type": "function"
    },
    {
      "inputs": [],
      "name": "isaAmount",
      "outputs": [
        {
          "internalType": "uint256",
          "name": "",
          "type": "uint256"
        }
      ],
      "stateMutability": "view",
      "type": "function"
    },
    {
      "inputs": [],
      "name": "lenderAddress",
      "outputs": [
        {
          "internalType": "address",
          "name": "",
          "type": "address"
        }
      ],
      "stateMutability": "view",
      "type": "function"
    },
    {
      "inputs": [],
      "name": "lenderAgree",
      "outputs": [
        {
          "internalType": "bool",
          "name": "",
          "type": "bool"
        }
      ],
      "stateMutability": "view",
      "type": "function"
    },
    {
      "inputs": [],
      "name": "minimumIncome",
      "outputs": [
        {
          "internalType": "uint256",
          "name": "",
          "type": "uint256"
        }
      ],
      "stateMutability": "view",
      "type": "function"
    },
    {
      "inputs": [],
      "name": "paymentCap",
      "outputs": [
        {
          "internalType": "uint256",
          "name": "",
          "type": "uint256"
        }
      ],
      "stateMutability": "view",
      "type": "function"
    },
    {
      "inputs": [],
      "name": "rejected",
      "outputs": [
        {
          "internalType": "bool",
          "name": "",
          "type": "bool"
        }
      ],
      "stateMutability": "view",
      "type": "function"
    },
    {
      "inputs": [],
      "name": "timePeriod",
      "outputs": [
        {
          "internalType": "uint256",
          "name": "",
          "type": "uint256"
        }
      ],
      "stateMutability": "view",
      "type": "function"
    },
    {
      "inputs": [],
      "name": "agree",
      "outputs": [],
      "stateMutability": "nonpayable",
      "type": "function"
    },
    {
      "inputs": [],
      "name": "reject",
      "outputs": [],
      "stateMutability": "nonpayable",
      "type": "function"
    },
    {
      "inputs": [],
      "name": "isPending",
      "outputs": [
        {
          "internalType": "bool",
          "name": "",
          "type": "bool"
        }
      ],
      "stateMutability": "view",
      "type": "function"
    },
    {
      "inputs": [],
      "name": "isSigned",
      "outputs": [
        {
          "internalType": "bool",
          "name": "",
          "type": "bool"
        }
      ],
      "stateMutability": "view",
      "type": "function"
    }
  ],
  "bytecode": "0x608060405234801561001057600080fd5b506040516109ff3803806109ff833981810160405261010081101561003457600080fd5b810190808051906020019092919080519060200190929190805190602001909291908051906020019092919080519060200190929190805190602001909291908051906020019092919080519060200190929190505050876000806101000a81548173ffffffffffffffffffffffffffffffffffffffff021916908373ffffffffffffffffffffffffffffffffffffffff16021790555086600160006101000a81548173ffffffffffffffffffffffffffffffffffffffff021916908373ffffffffffffffffffffffffffffffffffffffff1602179055508560028190555084600381905550836004819055508260058190555081600681905550806007819055506000600860006101000a81548160ff0219169083151502179055506000600860016101000a81548160ff0219169083151502179055506000600860026101000a81548160ff02191690831515021790555050505050505050506108618061019e6000396000f3fe608060405234801561001057600080fd5b50600436106101005760003560e01c80638a133dc811610097578063d13b0e6411610066578063d13b0e64146102ad578063e66a6b22146102cf578063e9497b5f146102f1578063f1b79e531461030f57610100565b80638a133dc8146102415780638fae60a5146102635780639c30ad7e1461026d578063ba1110791461028f57610100565b80633e79d1e1116100d35780633e79d1e1146101855780634dc415de146101a357806369d81255146101ad5780637ba61ea5146101f757610100565b80631829b73f146101055780631b39c35814610123578063320164d514610145578063347775b014610167575b600080fd5b61010d61032d565b6040518082815260200191505060405180910390f35b61012b610333565b604051808215151515815260200191505060405180910390f35b61014d610346565b604051808215151515815260200191505060405180910390f35b61016f610359565b6040518082815260200191505060405180910390f35b61018d61035f565b6040518082815260200191505060405180910390f35b6101ab610365565b005b6101b561042b565b604051808273ffffffffffffffffffffffffffffffffffffffff1673ffffffffffffffffffffffffffffffffffffffff16815260200191505060405180910390f35b6101ff610450565b604051808273ffffffffffffffffffffffffffffffffffffffff1673ffffffffffffffffffffffffffffffffffffffff16815260200191505060405180910390f35b610249610476565b604051808215151515815260200191505060405180910390f35b61026b610489565b005b610275610616565b604051808215151515815260200191505060405180910390f35b61029761070f565b6040518082815260200191505060405180910390f35b6102b5610715565b604051808215151515815260200191505060405180910390f35b6102d7610728565b604051808215151515815260200191505060405180910390f35b6102f961081f565b6040518082815260200191505060405180910390f35b610317610825565b6040518082815260200191505060405180910390f35b60055481565b600860019054906101000a900460ff1681565b600860009054906101000a900460ff1681565b60075481565b60045481565b6000809054906101000a900473ffffffffffffffffffffffffffffffffffffffff1673ffffffffffffffffffffffffffffffffffffffff163373ffffffffffffffffffffffffffffffffffffffff16148061040d5750600160009054906101000a900473ffffffffffffffffffffffffffffffffffffffff1673ffffffffffffffffffffffffffffffffffffffff163373ffffffffffffffffffffffffffffffffffffffff16145b61041657600080fd5b60011515600860039054906101000a90505050565b6000809054906101000a900473ffffffffffffffffffffffffffffffffffffffff1681565b600160009054906101000a900473ffffffffffffffffffffffffffffffffffffffff1681565b600860029054906101000a900460ff1681565b6000809054906101000a900473ffffffffffffffffffffffffffffffffffffffff1673ffffffffffffffffffffffffffffffffffffffff163373ffffffffffffffffffffffffffffffffffffffff1614806105315750600160009054906101000a900473ffffffffffffffffffffffffffffffffffffffff1673ffffffffffffffffffffffffffffffffffffffff163373ffffffffffffffffffffffffffffffffffffffff16145b61053a57600080fd5b6000809054906101000a900473ffffffffffffffffffffffffffffffffffffffff1673ffffffffffffffffffffffffffffffffffffffff163373ffffffffffffffffffffffffffffffffffffffff1614156105af576001600860006101000a81548160ff0219169083151502179055506105cb565b6001600860016101000a81548160ff0219169083151502179055505b600860009054906101000a900460ff1680156105f35750600860019054906101000a900460ff165b15610614576001600860026101000a81548160ff0219169083151502179055505b565b60008060009054906101000a900473ffffffffffffffffffffffffffffffffffffffff1673ffffffffffffffffffffffffffffffffffffffff163373ffffffffffffffffffffffffffffffffffffffff161480156106815750600860009054906101000a900460ff16155b1561068f576001905061070c565b600160009054906101000a900473ffffffffffffffffffffffffffffffffffffffff1673ffffffffffffffffffffffffffffffffffffffff163373ffffffffffffffffffffffffffffffffffffffff161480156106f95750600860019054906101000a900460ff16155b15610707576001905061070c565b600090505b90565b60025481565b600860039054906101000a900460ff1681565b60008060009054906101000a900473ffffffffffffffffffffffffffffffffffffffff1673ffffffffffffffffffffffffffffffffffffffff163373ffffffffffffffffffffffffffffffffffffffff161480156107925750600860009054906101000a900460ff165b156107a0576001905061081c565b600160009054906101000a900473ffffffffffffffffffffffffffffffffffffffff1673ffffffffffffffffffffffffffffffffffffffff163373ffffffffffffffffffffffffffffffffffffffff161480156108095750600860019054906101000a900460ff165b15610817576001905061081c565b600090505b90565b60035481565b6006548156fea2646970667358221220ba0de14b60653effdec5f7d1af0565bd3e18803579d6c3e34369cba60228ede364736f6c63430006010033",
  "source": "pragma solidity >0.4.23 <0.7.0;\n\nimport \"openzeppelin-solidity/contracts/math/SafeMath.sol\";\nimport \"openzeppelin-solidity/contracts/access/Ownable.sol\";\n\ncontract Proposal {\n\n  address public lenderAddress;\n  address public borrowerAddress;\n  uint256 public isaAmount;\n  uint256 public incomePercentage;\n  uint256 public timePeriod;\n  uint256 public buyoutAmount;\n  uint256 public minimumIncome;\n  uint256 public paymentCap;\n\n  bool public lenderAgree;\n  bool public borrowerAgree;\n  bool public bothAgree;\n  bool public rejected;\n\n  constructor(\n    address _lenderAddress,\n    address _borrowerAddress,\n    uint256 _isaAmount,\n    uint256 _incomePercentage,\n    uint256 _timePeriod,\n    uint256 _buyoutAmount,\n    uint256 _minimumIncome,\n    uint256 _paymentCap\n  )\n    public\n  {\n    lenderAddress = _lenderAddress;\n    borrowerAddress = _borrowerAddress;\n    isaAmount = _isaAmount;\n    incomePercentage = _incomePercentage;\n    timePeriod = _timePeriod;\n    buyoutAmount = _buyoutAmount;\n    minimumIncome = _minimumIncome;\n    paymentCap = _paymentCap;\n\n    lenderAgree = false;\n    borrowerAgree = false;\n    bothAgree = false;\n  }\n\n  function agree() external {\n    require(msg.sender == lenderAddress || msg.sender == borrowerAddress);\n    if (msg.sender == lenderAddress) {\n      lenderAgree = true;\n    } else {\n      borrowerAgree = true;\n    }\n\n    if (lenderAgree && borrowerAgree) {\n      bothAgree = true;\n    }\n  }\n\n  function reject() external {\n    require(msg.sender == lenderAddress || msg.sender == borrowerAddress);\n    rejected == true;\n  }\n\n  function isPending() external view returns (bool) {\n    if (msg.sender == lenderAddress && !lenderAgree) {\n      return true;\n    }\n    if (msg.sender == borrowerAddress && !borrowerAgree) {\n      return true;\n    }\n    return false;\n  }\n\n  function isSigned() external view returns (bool) {\n    if (msg.sender == lenderAddress && lenderAgree) {\n      return true;\n    }\n    if (msg.sender == borrowerAddress && borrowerAgree) {\n      return true;\n    }\n    return false;\n  }\n}\n",
  "sourcePath": "/Users/FinnHarman/Google Drive/Computing Science/Individual Project/Code/ISA/contracts/Proposal.sol",
  "compiler": {
    "name": "solc",
    "version": "0.6.1+commit.e6f7d5a4.Emscripten.clang"
  },
  "schemaVersion": "3.2.0",
  "updatedAt": "2020-08-06T22:34:06.306Z",
  "devdoc": {
    "methods": {}
  },
  "userdoc": {
    "methods": {}
  }
}