{
  "contractName": "Proposal",
  "abi": [
    {
      "inputs": [
        {
          "internalType": "address",
          "name": "_lenderAddress",
          "type": "address"
        },
        {
          "internalType": "address",
          "name": "_borrowerAddress",
          "type": "address"
        },
        {
          "internalType": "uint256",
          "name": "_isaAmount",
          "type": "uint256"
        },
        {
          "internalType": "uint256",
          "name": "_incomePercentage",
          "type": "uint256"
        },
        {
          "internalType": "uint256",
          "name": "_timePeriod",
          "type": "uint256"
        },
        {
          "internalType": "uint256",
          "name": "_minimumIncome",
          "type": "uint256"
        },
        {
          "internalType": "uint256",
          "name": "_paymentCap",
          "type": "uint256"
        },
        {
          "internalType": "string",
          "name": "_symbol",
          "type": "string"
        },
        {
          "internalType": "contract Regulator",
          "name": "_regulator",
          "type": "address"
        }
      ],
      "stateMutability": "nonpayable",
      "type": "constructor"
    },
    {
      "inputs": [],
      "name": "borrowerAddress",
      "outputs": [
        {
          "internalType": "address",
          "name": "",
          "type": "address"
        }
      ],
      "stateMutability": "view",
      "type": "function"
    },
    {
      "inputs": [],
      "name": "borrowerAgree",
      "outputs": [
        {
          "internalType": "bool",
          "name": "",
          "type": "bool"
        }
      ],
      "stateMutability": "view",
      "type": "function"
    },
    {
      "inputs": [],
      "name": "bothAgree",
      "outputs": [
        {
          "internalType": "bool",
          "name": "",
          "type": "bool"
        }
      ],
      "stateMutability": "view",
      "type": "function"
    },
    {
      "inputs": [],
      "name": "expired",
      "outputs": [
        {
          "internalType": "bool",
          "name": "",
          "type": "bool"
        }
      ],
      "stateMutability": "view",
      "type": "function"
    },
    {
      "inputs": [],
      "name": "incomePercentage",
      "outputs": [
        {
          "internalType": "uint256",
          "name": "",
          "type": "uint256"
        }
      ],
      "stateMutability": "view",
      "type": "function"
    },
    {
      "inputs": [],
      "name": "isaAmount",
      "outputs": [
        {
          "internalType": "uint256",
          "name": "",
          "type": "uint256"
        }
      ],
      "stateMutability": "view",
      "type": "function"
    },
    {
      "inputs": [],
      "name": "lenderAddress",
      "outputs": [
        {
          "internalType": "address",
          "name": "",
          "type": "address"
        }
      ],
      "stateMutability": "view",
      "type": "function"
    },
    {
      "inputs": [],
      "name": "lenderAgree",
      "outputs": [
        {
          "internalType": "bool",
          "name": "",
          "type": "bool"
        }
      ],
      "stateMutability": "view",
      "type": "function"
    },
    {
      "inputs": [],
      "name": "minimumIncome",
      "outputs": [
        {
          "internalType": "uint256",
          "name": "",
          "type": "uint256"
        }
      ],
      "stateMutability": "view",
      "type": "function"
    },
    {
      "inputs": [],
      "name": "paymentCap",
      "outputs": [
        {
          "internalType": "uint256",
          "name": "",
          "type": "uint256"
        }
      ],
      "stateMutability": "view",
      "type": "function"
    },
    {
      "inputs": [],
      "name": "rejected",
      "outputs": [
        {
          "internalType": "bool",
          "name": "",
          "type": "bool"
        }
      ],
      "stateMutability": "view",
      "type": "function"
    },
    {
      "inputs": [],
      "name": "symbol",
      "outputs": [
        {
          "internalType": "string",
          "name": "",
          "type": "string"
        }
      ],
      "stateMutability": "view",
      "type": "function"
    },
    {
      "inputs": [],
      "name": "timePeriod",
      "outputs": [
        {
          "internalType": "uint256",
          "name": "",
          "type": "uint256"
        }
      ],
      "stateMutability": "view",
      "type": "function"
    },
    {
      "inputs": [],
      "name": "agree",
      "outputs": [],
      "stateMutability": "nonpayable",
      "type": "function"
    },
    {
      "inputs": [],
      "name": "reject",
      "outputs": [],
      "stateMutability": "nonpayable",
      "type": "function"
    },
    {
      "inputs": [],
      "name": "isPending",
      "outputs": [
        {
          "internalType": "bool",
          "name": "",
          "type": "bool"
        }
      ],
      "stateMutability": "view",
      "type": "function"
    },
    {
      "inputs": [],
      "name": "isSigned",
      "outputs": [
        {
          "internalType": "bool",
          "name": "",
          "type": "bool"
        }
      ],
      "stateMutability": "view",
      "type": "function"
    },
    {
      "inputs": [],
      "name": "expire",
      "outputs": [],
      "stateMutability": "nonpayable",
      "type": "function"
    }
  ],
  "bytecode": "0x608060405234801561001057600080fd5b50604051610c80380380610c80833981810160405261012081101561003457600080fd5b815160208301516040808501516060860151608087015160a088015160c089015160e08a0180519651989a97999598949793969295919493918201928464010000000082111561008357600080fd5b90830190602082018581111561009857600080fd5b82516401000000008111828201881017156100b257600080fd5b82525081516020918201929091019080838360005b838110156100df5781810151838201526020016100c7565b50505050905090810190601f16801561010c5780820380516001836020036101000a031916815260200191505b506040526020015191505086610169576040805162461bcd60e51b815260206004820152601360248201527f495341206d75737420686176652076616c756500000000000000000000000000604482015290519081900360640190fd5b600086116101a85760405162461bcd60e51b815260040180806020018281038252602a815260200180610c2b602a913960400191505060405180910390fd5b603286106101e75760405162461bcd60e51b815260040180806020018281038252602a815260200180610c2b602a913960400191505060405180910390fd5b6000851161023c576040805162461bcd60e51b815260206004820152601c60248201527f54696d6520706572696f64206d75737420626520706f73697469766500000000604482015290519081900360640190fd5b673a4965bf58a400008410156102835760405162461bcd60e51b815260040180806020018281038252602b815260200180610c55602b913960400191505060405180910390fd5b600083116102d8576040805162461bcd60e51b815260206004820152601c60248201527f5061796d656e7420636170206d75737420626520706f73697469766500000000604482015290519081900360640190fd5b8383116103165760405162461bcd60e51b815260040180806020018281038252602f815260200180610bfc602f913960400191505060405180910390fd5b806001600160a01b031663876424498a6040518263ffffffff1660e01b815260040180826001600160a01b03166001600160a01b0316815260200191505060206040518083038186803b15801561036c57600080fd5b505afa158015610380573d6000803e3d6000fd5b505050506040513d602081101561039657600080fd5b50516103e9576040805162461bcd60e51b815260206004820152601960248201527f6c656e646572206d757374206265207265676973746572656400000000000000604482015290519081900360640190fd5b806001600160a01b03166387642449896040518263ffffffff1660e01b815260040180826001600160a01b03166001600160a01b0316815260200191505060206040518083038186803b15801561043f57600080fd5b505afa158015610453573d6000803e3d6000fd5b505050506040513d602081101561046957600080fd5b50516104bc576040805162461bcd60e51b815260206004820152601b60248201527f626f72726f776572206d75737420626520726567697374657265640000000000604482015290519081900360640190fd5b600180546001600160a01b03808c166001600160a01b03199283161790925560028054928b1692909116919091179055600387905560048690556005859055600684905560078390558151610518906008906020850190610553565b50600080546001600160a01b0319166001600160a01b039290921691909117905550506009805462ffffff19169055506105ee945050505050565b828054600181600116156101000203166002900490600052602060002090601f016020900481019282601f1061059457805160ff19168380011785556105c1565b828001600101855582156105c1579182015b828111156105c15782518255916020019190600101906105a6565b506105cd9291506105d1565b5090565b6105eb91905b808211156105cd57600081556001016105d7565b90565b6105ff806105fd6000396000f3fe608060405234801561001057600080fd5b50600436106101365760003560e01c80638a133dc8116100b2578063ba11107911610081578063e66a6b2211610066578063e66a6b221461026c578063e9497b5f14610274578063f1b79e531461027c57610136565b8063ba1110791461025c578063d13b0e641461026457610136565b80638a133dc8146101c75780638fae60a5146101cf57806395d89b41146101d75780639c30ad7e1461025457610136565b80634c2067c71161010957806369d81255116100ee57806369d812551461019357806379599f96146101b75780637ba61ea5146101bf57610136565b80634c2067c7146101815780634dc415de1461018957610136565b80631b39c3581461013b578063320164d514610157578063347775b01461015f5780633e79d1e114610179575b600080fd5b610143610284565b604080519115158252519081900360200190f35b610143610292565b61016761029b565b60408051918252519081900360200190f35b6101676102a1565b6101436102a7565b6101916102b8565b005b61019b6102f9565b604080516001600160a01b039092168252519081900360200190f35b610191610308565b61019b6103ac565b6101436103bb565b6101916103ca565b6101df61045d565b6040805160208082528351818301528351919283929083019185019080838360005b83811015610219578181015183820152602001610201565b50505050905090810190601f1680156102465780820380516001836020036101000a031916815260200191505b509250505060405180910390f35b6101436104eb565b61016761054e565b610143610554565b610143610564565b6101676105bd565b6101676105c3565b600954610100900460ff1681565b60095460ff1681565b60075481565b60055481565b600954640100000000900460ff1681565b6001546001600160a01b03163314806102db57506002546001600160a01b031633145b6102e457600080fd5b6009805463ff00000019166301000000179055565b6001546001600160a01b031681565b6000809054906101000a90046001600160a01b03166001600160a01b0316638da5cb5b6040518163ffffffff1660e01b815260040160206040518083038186803b15801561035557600080fd5b505afa158015610369573d6000803e3d6000fd5b505050506040513d602081101561037f57600080fd5b50516001600160a01b0316331461039557600080fd5b6009805464ff000000001916640100000000179055565b6002546001600160a01b031681565b60095462010000900460ff1681565b6001546001600160a01b03163314806103ed57506002546001600160a01b031633145b6103f657600080fd5b6001546001600160a01b031633141561041b576009805460ff1916600117905561042b565b6009805461ff0019166101001790555b60095460ff1680156104445750600954610100900460ff165b1561045b576009805462ff00001916620100001790555b565b6008805460408051602060026001851615610100026000190190941693909304601f810184900484028201840190925281815292918301828280156104e35780601f106104b8576101008083540402835291602001916104e3565b820191906000526020600020905b8154815290600101906020018083116104c657829003601f168201915b505050505081565b6001546000906001600160a01b03163314801561050b575060095460ff16155b156105185750600161054b565b6002546001600160a01b03163314801561053a5750600954610100900460ff16155b156105475750600161054b565b5060005b90565b60035481565b6009546301000000900460ff1681565b6001546000906001600160a01b031633148015610583575060095460ff165b156105905750600161054b565b6002546001600160a01b03163314801561053a5750600954610100900460ff16156105475750600161054b565b60045481565b6006548156fea26469706673582212200e7da44b2c6ba4a92d43818e357c62731c18efb2ad399efd2e01b5443789cf8064736f6c634300060100335061796d656e7420636170206d7573742062652067726561746572207468616e206d696e696d756d20696e636f6d65496e636f6d652070657263656e74616765206d757374206265206265747765656e203020616e642035304d696e696d756d20696e636f6d65206d7573742062652067726561746572207468616e20342e3220657468",
  "source": "pragma solidity >0.4.23 <0.7.0;\n\nimport \"openzeppelin-solidity/contracts/math/SafeMath.sol\";\nimport \"openzeppelin-solidity/contracts/access/Ownable.sol\";\nimport \"./Regulator.sol\";\n\ncontract Proposal {\n\n  Regulator private regulator;\n\n  address public lenderAddress;\n  address public borrowerAddress;\n  uint256 public isaAmount;\n  uint256 public incomePercentage;\n  uint256 public timePeriod;\n  uint256 public minimumIncome;\n  uint256 public paymentCap;\n  string public symbol;\n\n  bool public lenderAgree;\n  bool public borrowerAgree;\n  bool public bothAgree;\n  bool public rejected;\n  bool public expired;\n\n  constructor(\n    address _lenderAddress,\n    address _borrowerAddress,\n    uint256 _isaAmount,\n    uint256 _incomePercentage,\n    uint256 _timePeriod,\n    uint256 _minimumIncome,\n    uint256 _paymentCap,\n    string memory _symbol,\n    Regulator _regulator\n  )\n    public\n  {\n    require(_isaAmount > 0, \"ISA must have value\");\n    require(_incomePercentage > 0, \"Income percentage must be between 0 and 50\");\n    require(_incomePercentage < 50, \"Income percentage must be between 0 and 50\");\n    require(_timePeriod > 0, \"Time period must be positive\");\n    require(_minimumIncome >= 4.2 ether, \"Minimum income must be greater than 4.2 eth\");\n    require(_paymentCap > 0, \"Payment cap must be positive\");\n    require(_paymentCap > _minimumIncome, \"Payment cap must be greater than minimum income\");\n    require(_regulator.getConfirmedAddress(_lenderAddress), \"lender must be registered\");\n    require(_regulator.getConfirmedAddress(_borrowerAddress), \"borrower must be registered\");\n\n    lenderAddress = _lenderAddress;\n    borrowerAddress = _borrowerAddress;\n    isaAmount = _isaAmount;\n    incomePercentage = _incomePercentage;\n    timePeriod = _timePeriod;\n    minimumIncome = _minimumIncome;\n    paymentCap = _paymentCap;\n    symbol = _symbol;\n    regulator = _regulator;\n\n    lenderAgree = false;\n    borrowerAgree = false;\n    bothAgree = false;\n  }\n\n  function agree() external {\n    require(msg.sender == lenderAddress || msg.sender == borrowerAddress);\n    if (msg.sender == lenderAddress) {\n      lenderAgree = true;\n    } else {\n      borrowerAgree = true;\n    }\n\n    if (lenderAgree && borrowerAgree) {\n      bothAgree = true;\n    }\n  }\n\n  function reject() external {\n    require(msg.sender == lenderAddress || msg.sender == borrowerAddress);\n    rejected = true;\n  }\n\n  function isPending() external view returns (bool) {\n    if (msg.sender == lenderAddress && !lenderAgree) {\n      return true;\n    }\n    if (msg.sender == borrowerAddress && !borrowerAgree) {\n      return true;\n    }\n    return false;\n  }\n\n  function isSigned() external view returns (bool) {\n    if (msg.sender == lenderAddress && lenderAgree) {\n      return true;\n    }\n    if (msg.sender == borrowerAddress && borrowerAgree) {\n      return true;\n    }\n    return false;\n  }\n\n  function expire() external {\n    require(msg.sender == regulator.owner());\n    expired = true;\n  }\n}\n",
  "sourcePath": "/Users/FinnHarman/Google Drive/Computing Science/Individual Project/Code/ISA/contracts/Proposal.sol",
  "compiler": {
    "name": "solc",
    "version": "0.6.1+commit.e6f7d5a4.Emscripten.clang"
  },
  "schemaVersion": "3.2.3",
  "updatedAt": "2020-09-02T13:30:39.720Z",
  "devdoc": {
    "methods": {}
  },
  "userdoc": {
    "methods": {}
  }
}