{
  "contractName": "Regulator",
  "abi": [
    {
      "inputs": [
        {
          "internalType": "contract Verifier",
          "name": "_verifier",
          "type": "address"
        }
      ],
      "stateMutability": "nonpayable",
      "type": "constructor"
    },
    {
      "anonymous": false,
      "inputs": [
        {
          "indexed": true,
          "internalType": "address",
          "name": "previousOwner",
          "type": "address"
        },
        {
          "indexed": true,
          "internalType": "address",
          "name": "newOwner",
          "type": "address"
        }
      ],
      "name": "OwnershipTransferred",
      "type": "event"
    },
    {
      "anonymous": false,
      "inputs": [
        {
          "indexed": false,
          "internalType": "contract Proposal",
          "name": "proposal",
          "type": "address"
        }
      ],
      "name": "requestProposal",
      "type": "event"
    },
    {
      "inputs": [],
      "name": "owner",
      "outputs": [
        {
          "internalType": "address",
          "name": "",
          "type": "address"
        }
      ],
      "stateMutability": "view",
      "type": "function",
      "constant": true
    },
    {
      "inputs": [],
      "name": "renounceOwnership",
      "outputs": [],
      "stateMutability": "nonpayable",
      "type": "function"
    },
    {
      "inputs": [
        {
          "internalType": "address",
          "name": "newOwner",
          "type": "address"
        }
      ],
      "name": "transferOwnership",
      "outputs": [],
      "stateMutability": "nonpayable",
      "type": "function"
    },
    {
      "inputs": [
        {
          "internalType": "bytes32",
          "name": "hash",
          "type": "bytes32"
        }
      ],
      "name": "addIdentity",
      "outputs": [],
      "stateMutability": "nonpayable",
      "type": "function"
    },
    {
      "inputs": [
        {
          "internalType": "bool",
          "name": "success",
          "type": "bool"
        }
      ],
      "name": "register",
      "outputs": [
        {
          "internalType": "bool",
          "name": "",
          "type": "bool"
        }
      ],
      "stateMutability": "nonpayable",
      "type": "function"
    },
    {
      "inputs": [
        {
          "internalType": "contract Proposal",
          "name": "proposal",
          "type": "address"
        }
      ],
      "name": "request",
      "outputs": [
        {
          "internalType": "bool",
          "name": "",
          "type": "bool"
        },
        {
          "internalType": "string",
          "name": "",
          "type": "string"
        }
      ],
      "stateMutability": "nonpayable",
      "type": "function"
    }
  ],
  "bytecode": "0x608060405234801561001057600080fd5b50604051610b04380380610b048339818101604052602081101561003357600080fd5b8101908080519060200190929190505050600061005461013960201b60201c565b9050806000806101000a81548173ffffffffffffffffffffffffffffffffffffffff021916908373ffffffffffffffffffffffffffffffffffffffff1602179055508073ffffffffffffffffffffffffffffffffffffffff16600073ffffffffffffffffffffffffffffffffffffffff167f8be0079c531659141344cd1fd0a4f28419497f9722a3daafe3b4186f6b6457e060405160405180910390a35080600160006101000a81548173ffffffffffffffffffffffffffffffffffffffff021916908373ffffffffffffffffffffffffffffffffffffffff16021790555050610141565b600033905090565b6109b4806101506000396000f3fe608060405234801561001057600080fd5b50600436106100625760003560e01c8063261005f91461006757806327c78c4214610095578063715018a61461015d5780638da5cb5b14610167578063be123145146101b1578063f2fde38b146101f9575b600080fd5b6100936004803603602081101561007d57600080fd5b810190808035906020019092919050505061023d565b005b6100d7600480360360208110156100ab57600080fd5b81019080803573ffffffffffffffffffffffffffffffffffffffff169060200190929190505050610360565b604051808315151515815260200180602001828103825283818151815260200191508051906020019080838360005b83811015610121578082015181840152602081019050610106565b50505050905090810190601f16801561014e5780820380516001836020036101000a031916815260200191505b50935050505060405180910390f35b6101656104b2565b005b61016f61063a565b604051808273ffffffffffffffffffffffffffffffffffffffff1673ffffffffffffffffffffffffffffffffffffffff16815260200191505060405180910390f35b6101df600480360360208110156101c757600080fd5b81019080803515159060200190929190505050610663565b604051808215151515815260200191505060405180910390f35b61023b6004803603602081101561020f57600080fd5b81019080803573ffffffffffffffffffffffffffffffffffffffff169060200190929190505050610720565b005b61024561092d565b73ffffffffffffffffffffffffffffffffffffffff166000809054906101000a900473ffffffffffffffffffffffffffffffffffffffff1673ffffffffffffffffffffffffffffffffffffffff1614610306576040517f08c379a00000000000000000000000000000000000000000000000000000000081526004018080602001828103825260208152602001807f4f776e61626c653a2063616c6c6572206973206e6f7420746865206f776e657281525060200191505060405180910390fd5b6002600082815260200190815260200160002060009054906101000a900460ff161561033157600080fd5b60016002600083815260200190815260200160002060006101000a81548160ff02191690831515021790555050565b600060608273ffffffffffffffffffffffffffffffffffffffff16638a133dc86040518163ffffffff1660e01b815260040160206040518083038186803b1580156103aa57600080fd5b505afa1580156103be573d6000803e3d6000fd5b505050506040513d60208110156103d457600080fd5b810190808051906020019092919050505061040d57600060405180606001604052806023815260200161093660239139915091506104ad565b7fa7e13ea85cfb2c6bce92c3ebe721bbaed610c45fae5f0c16dc6b17fccc00256d83604051808273ffffffffffffffffffffffffffffffffffffffff1673ffffffffffffffffffffffffffffffffffffffff16815260200191505060405180910390a160016040518060400160405280601381526020017f50726f706f73616c207375636365737366756c00000000000000000000000000815250915091505b915091565b6104ba61092d565b73ffffffffffffffffffffffffffffffffffffffff166000809054906101000a900473ffffffffffffffffffffffffffffffffffffffff1673ffffffffffffffffffffffffffffffffffffffff161461057b576040517f08c379a00000000000000000000000000000000000000000000000000000000081526004018080602001828103825260208152602001807f4f776e61626c653a2063616c6c6572206973206e6f7420746865206f776e657281525060200191505060405180910390fd5b600073ffffffffffffffffffffffffffffffffffffffff166000809054906101000a900473ffffffffffffffffffffffffffffffffffffffff1673ffffffffffffffffffffffffffffffffffffffff167f8be0079c531659141344cd1fd0a4f28419497f9722a3daafe3b4186f6b6457e060405160405180910390a360008060006101000a81548173ffffffffffffffffffffffffffffffffffffffff021916908373ffffffffffffffffffffffffffffffffffffffff160217905550565b60008060009054906101000a900473ffffffffffffffffffffffffffffffffffffffff16905090565b6000600160009054906101000a900473ffffffffffffffffffffffffffffffffffffffff1673ffffffffffffffffffffffffffffffffffffffff16636dcb52f7836040518263ffffffff1660e01b81526004018082151515158152602001915050602060405180830381600087803b1580156106de57600080fd5b505af11580156106f2573d6000803e3d6000fd5b505050506040513d602081101561070857600080fd5b81019080805190602001909291905050509050919050565b61072861092d565b73ffffffffffffffffffffffffffffffffffffffff166000809054906101000a900473ffffffffffffffffffffffffffffffffffffffff1673ffffffffffffffffffffffffffffffffffffffff16146107e9576040517f08c379a00000000000000000000000000000000000000000000000000000000081526004018080602001828103825260208152602001807f4f776e61626c653a2063616c6c6572206973206e6f7420746865206f776e657281525060200191505060405180910390fd5b600073ffffffffffffffffffffffffffffffffffffffff168173ffffffffffffffffffffffffffffffffffffffff16141561086f576040517f08c379a00000000000000000000000000000000000000000000000000000000081526004018080602001828103825260268152602001806109596026913960400191505060405180910390fd5b8073ffffffffffffffffffffffffffffffffffffffff166000809054906101000a900473ffffffffffffffffffffffffffffffffffffffff1673ffffffffffffffffffffffffffffffffffffffff167f8be0079c531659141344cd1fd0a4f28419497f9722a3daafe3b4186f6b6457e060405160405180910390a3806000806101000a81548173ffffffffffffffffffffffffffffffffffffffff021916908373ffffffffffffffffffffffffffffffffffffffff16021790555050565b60003390509056fe426f74682070617274696573206d75737420616772656520746f2070726f706f73616c4f776e61626c653a206e6577206f776e657220697320746865207a65726f2061646472657373a2646970667358221220734533e187ca84f76a075076c295271d9bd93a8fe20f8a16883aefe815b4f8f464736f6c63430006010033",
  "source": "pragma solidity >0.4.23 <0.7.0;\n\nimport \"openzeppelin-solidity/contracts/access/Ownable.sol\";\n\nimport \"./Proposal.sol\";\nimport \"./Verifier.sol\";\n\n/// @notice A service which regulates the creation and transfer of Income Sharing Agreements\ncontract Regulator is Ownable {\n\n  Verifier private verifier;\n  mapping(bytes32 => bool) validIdentites;\n\n  event requestProposal(Proposal proposal);\n\n  constructor(Verifier _verifier) public {\n    verifier = _verifier;\n  }\n\n  /*\n  * @dev allows the owner of the contract to add an eligible consumer detail hash\n  */\n  function addIdentity(bytes32 hash) public onlyOwner {\n    require(!validIdentites[hash]);\n    validIdentites[hash] = true;\n  }\n\n\n  /**\n   * @dev Requests linking of address to real world identity via zero knowledge\n   * proof.\n   *\n   * Returns a boolean value indicating whether the operation succeeded.\n   */\n  function register(\n    bool success\n  ) public returns(bool)\n  {\n    // Calls zero knowledge proof to verify identity\n    return verifier.verifyTx(success);\n  }\n\n  /**\n   * @dev Requests creation of new ISA. Proposal is compared to whitelist and\n   * legal contract emails are sent if valid\n   *\n   * Returns a boolean value and message indicating whether the operation\n   * succeeded and why.\n   */\n  function request(Proposal proposal) public returns(bool, string memory) {\n    if (!proposal.bothAgree()) {\n      return (false, \"Both parties must agree to proposal\");\n    } else {\n      // Access off-chain database and check validity of ISA proposal\n      emit requestProposal(proposal);\n      return (true, \"Proposal successful\");\n    }\n  }\n}\n",
  "sourcePath": "/Users/FinnHarman/Google Drive/Computing Science/Individual Project/Code/ISA/contracts/Regulator.sol",
  "compiler": {
    "name": "solc",
    "version": "0.6.1+commit.e6f7d5a4.Emscripten.clang"
  },
  "schemaVersion": "3.2.0",
  "updatedAt": "2020-07-27T20:34:37.000Z",
  "networkType": "ethereum",
  "devdoc": {
    "methods": {
      "owner()": {
        "details": "Returns the address of the current owner."
      },
      "register(bool)": {
        "details": "Requests linking of address to real world identity via zero knowledge proof.   * Returns a boolean value indicating whether the operation succeeded."
      },
      "renounceOwnership()": {
        "details": "Leaves the contract without owner. It will not be possible to call `onlyOwner` functions anymore. Can only be called by the current owner.     * NOTE: Renouncing ownership will leave the contract without an owner, thereby removing any functionality that is only available to the owner."
      },
      "request(address)": {
        "details": "Requests creation of new ISA. Proposal is compared to whitelist and legal contract emails are sent if valid   * Returns a boolean value and message indicating whether the operation succeeded and why."
      },
      "transferOwnership(address)": {
        "details": "Transfers ownership of the contract to a new account (`newOwner`). Can only be called by the current owner."
      }
    }
  },
  "userdoc": {
    "methods": {},
    "notice": "A service which regulates the creation and transfer of Income Sharing Agreements"
  }
}