{
  "contractName": "Regulator",
  "abi": [
    {
      "inputs": [
        {
          "internalType": "contract Verifier",
          "name": "_verifier",
          "type": "address"
        }
      ],
      "stateMutability": "nonpayable",
      "type": "constructor"
    },
    {
      "anonymous": false,
      "inputs": [
        {
          "indexed": true,
          "internalType": "address",
          "name": "previousOwner",
          "type": "address"
        },
        {
          "indexed": true,
          "internalType": "address",
          "name": "newOwner",
          "type": "address"
        }
      ],
      "name": "OwnershipTransferred",
      "type": "event"
    },
    {
      "inputs": [],
      "name": "owner",
      "outputs": [
        {
          "internalType": "address",
          "name": "",
          "type": "address"
        }
      ],
      "stateMutability": "view",
      "type": "function",
      "constant": true
    },
    {
      "inputs": [],
      "name": "renounceOwnership",
      "outputs": [],
      "stateMutability": "nonpayable",
      "type": "function"
    },
    {
      "inputs": [
        {
          "internalType": "address",
          "name": "newOwner",
          "type": "address"
        }
      ],
      "name": "transferOwnership",
      "outputs": [],
      "stateMutability": "nonpayable",
      "type": "function"
    },
    {
      "inputs": [
        {
          "internalType": "bytes32",
          "name": "hash",
          "type": "bytes32"
        }
      ],
      "name": "addValidIdentity",
      "outputs": [],
      "stateMutability": "nonpayable",
      "type": "function"
    },
    {
      "inputs": [
        {
          "internalType": "bytes32",
          "name": "hash",
          "type": "bytes32"
        },
        {
          "internalType": "address",
          "name": "user",
          "type": "address"
        }
      ],
      "name": "confirmRegister",
      "outputs": [],
      "stateMutability": "nonpayable",
      "type": "function"
    },
    {
      "inputs": [
        {
          "internalType": "address",
          "name": "person",
          "type": "address"
        }
      ],
      "name": "getConfirmedAddress",
      "outputs": [
        {
          "internalType": "bool",
          "name": "",
          "type": "bool"
        }
      ],
      "stateMutability": "view",
      "type": "function",
      "constant": true
    },
    {
      "inputs": [
        {
          "internalType": "bool",
          "name": "success",
          "type": "bool"
        }
      ],
      "name": "register",
      "outputs": [
        {
          "internalType": "bool",
          "name": "",
          "type": "bool"
        }
      ],
      "stateMutability": "nonpayable",
      "type": "function"
    }
  ],
  "bytecode": "0x608060405234801561001057600080fd5b506040516106e53803806106e58339818101604052602081101561003357600080fd5b505160006100486001600160e01b036100b716565b600080546001600160a01b0319166001600160a01b0383169081178255604051929350917f8be0079c531659141344cd1fd0a4f28419497f9722a3daafe3b4186f6b6457e0908290a350600180546001600160a01b0319166001600160a01b03929092169190911790556100bb565b3390565b61061b806100ca6000396000f3fe608060405234801561001057600080fd5b506004361061007d5760003560e01c80638da5cb5b1161005b5780638da5cb5b146100e3578063be12314514610107578063ec44e8eb14610126578063f2fde38b146101525761007d565b806325ce2f4014610082578063715018a6146100a157806387642449146100a9575b600080fd5b61009f6004803603602081101561009857600080fd5b5035610178565b005b61009f610219565b6100cf600480360360208110156100bf57600080fd5b50356001600160a01b03166102da565b604080519115158252519081900360200190f35b6100eb61030c565b604080516001600160a01b039092168252519081900360200190f35b6100cf6004803603602081101561011d57600080fd5b5035151561031b565b61009f6004803603604081101561013c57600080fd5b50803590602001356001600160a01b03166103dc565b61009f6004803603602081101561016857600080fd5b50356001600160a01b03166104a4565b6101806105bb565b6000546001600160a01b039081169116146101e2576040805162461bcd60e51b815260206004820181905260248201527f4f776e61626c653a2063616c6c6572206973206e6f7420746865206f776e6572604482015290519081900360640190fd5b60008181526002602052604090205460ff16156101fe57600080fd5b6000908152600260205260409020805460ff19166001179055565b6102216105bb565b6000546001600160a01b03908116911614610283576040805162461bcd60e51b815260206004820181905260248201527f4f776e61626c653a2063616c6c6572206973206e6f7420746865206f776e6572604482015290519081900360640190fd5b600080546040516001600160a01b03909116907f8be0079c531659141344cd1fd0a4f28419497f9722a3daafe3b4186f6b6457e0908390a36000805473ffffffffffffffffffffffffffffffffffffffff19169055565b6001600160a01b03811660009081526003602052604081205460ff161561030357506001610307565b5060005b919050565b6000546001600160a01b031690565b600154604080517f6dcb52f70000000000000000000000000000000000000000000000000000000081528315156004820152905160009283926001600160a01b0390911691636dcb52f79160248082019260209290919082900301818787803b15801561038757600080fd5b505af115801561039b573d6000803e3d6000fd5b505050506040513d60208110156103b157600080fd5b5051905080156103d657336000908152600360205260409020805460ff191660011790555b92915050565b6103e46105bb565b6000546001600160a01b03908116911614610446576040805162461bcd60e51b815260206004820181905260248201527f4f776e61626c653a2063616c6c6572206973206e6f7420746865206f776e6572604482015290519081900360640190fd5b60008281526004602052604090205460ff161561046257600080fd5b6000918252600460209081526040808420805460ff1990811660019081179092556001600160a01b039094168552600390925290922080549091169091179055565b6104ac6105bb565b6000546001600160a01b0390811691161461050e576040805162461bcd60e51b815260206004820181905260248201527f4f776e61626c653a2063616c6c6572206973206e6f7420746865206f776e6572604482015290519081900360640190fd5b6001600160a01b0381166105535760405162461bcd60e51b81526004018080602001828103825260268152602001806105c06026913960400191505060405180910390fd5b600080546040516001600160a01b03808516939216917f8be0079c531659141344cd1fd0a4f28419497f9722a3daafe3b4186f6b6457e091a36000805473ffffffffffffffffffffffffffffffffffffffff19166001600160a01b0392909216919091179055565b339056fe4f776e61626c653a206e6577206f776e657220697320746865207a65726f2061646472657373a264697066735822122099e2848e807a06b7fcfcc37ff3d220b276a0c65107bec3adfe0e985124bec55e64736f6c63430006010033",
  "source": "pragma solidity >0.4.23 <0.7.0;\n\nimport \"openzeppelin-solidity/contracts/access/Ownable.sol\";\n\nimport \"./Proposal.sol\";\nimport \"./Verifier.sol\";\n\n/// @notice A service which regulates the creation and transfer of Income Sharing Agreements\ncontract Regulator is Ownable {\n\n  Verifier private verifier;\n  mapping(bytes32 => bool) validIdentites;\n  mapping(address => bool) confirmedAddresses;\n  mapping(bytes32 => bool) confirmedIdentities;\n\n  constructor(Verifier _verifier) public {\n    verifier = _verifier;\n  }\n\n  /*\n  * @dev allows the owner of the contract to add an eligible consumer detail hash\n  */\n  function addValidIdentity(bytes32 hash) public onlyOwner {\n    require(!validIdentites[hash]);\n    validIdentites[hash] = true;\n  }\n\n  function confirmRegister(bytes32 hash, address user) public onlyOwner {\n    require(!confirmedIdentities[hash]);\n    confirmedIdentities[hash] = true;\n    confirmedAddresses[user] = true;\n  }\n\n  function getConfirmedAddress(address person) public view returns(bool) {\n    if (confirmedAddresses[person]) {\n      return true;\n    }\n    return false;\n  }\n\n\n  /**\n   * @dev Requests linking of address to real world identity via zero knowledge\n   * proof.\n   *\n   * Returns a boolean value indicating whether the operation succeeded.\n   */\n  function register(\n    bool success\n  ) external returns(bool)\n  {\n    //require(validIdentites[hash])\n    //require(!confirmedIdentities[hash])\n    //require(!confirmedAddresses[hash])\n\n    // Calls zero knowledge proof to verify identity\n    bool result = verifier.verifyTx(success);\n    if (result) {\n      confirmedAddresses[msg.sender] = true;\n      //confirmedIdentities[hash] = true;\n    }\n    return result;\n  }\n\n}\n",
  "sourcePath": "/Users/FinnHarman/Google Drive/Computing Science/Individual Project/Code/ISA/contracts/Regulator.sol",
  "compiler": {
    "name": "solc",
    "version": "0.6.1+commit.e6f7d5a4.Emscripten.clang"
  },
  "schemaVersion": "3.2.3",
  "updatedAt": "2020-09-02T13:30:47.103Z",
  "networkType": "ethereum",
  "devdoc": {
    "methods": {
      "owner()": {
        "details": "Returns the address of the current owner."
      },
      "register(bool)": {
        "details": "Requests linking of address to real world identity via zero knowledge proof.   * Returns a boolean value indicating whether the operation succeeded."
      },
      "renounceOwnership()": {
        "details": "Leaves the contract without owner. It will not be possible to call `onlyOwner` functions anymore. Can only be called by the current owner.     * NOTE: Renouncing ownership will leave the contract without an owner, thereby removing any functionality that is only available to the owner."
      },
      "transferOwnership(address)": {
        "details": "Transfers ownership of the contract to a new account (`newOwner`). Can only be called by the current owner."
      }
    }
  },
  "userdoc": {
    "methods": {},
    "notice": "A service which regulates the creation and transfer of Income Sharing Agreements"
  }
}