{
  "contractName": "Verifier",
  "abi": [
    {
      "anonymous": false,
      "inputs": [
        {
          "indexed": false,
          "internalType": "string",
          "name": "s",
          "type": "string"
        }
      ],
      "name": "Verified",
      "type": "event"
    },
    {
      "inputs": [
        {
          "internalType": "bool",
          "name": "success",
          "type": "bool"
        }
      ],
      "name": "verifyTx",
      "outputs": [
        {
          "internalType": "bool",
          "name": "r",
          "type": "bool"
        }
      ],
      "stateMutability": "nonpayable",
      "type": "function"
    }
  ],
  "bytecode": "0x608060405234801561001057600080fd5b50610117806100206000396000f3fe6080604052348015600f57600080fd5b506004361060285760003560e01c80636dcb52f714602d575b600080fd5b604960048036036020811015604157600080fd5b50351515605d565b604080519115158252519081900360200190f35b6000811560b6577f3f3cfdb26fb5f9f1786ab4f1a1f9cd4c0b5e726cbdfc26e495261731aad44e396040518080602001828103825260228152602001806100c06022913960400191505060405180910390a150600160ba565b5060005b91905056fe5472616e73616374696f6e207375636365737366756c6c792076657269666965642ea2646970667358221220bb4a75ddb8931149e69431266e576a8c314b3db041988627cd38cb7a4025e77f64736f6c63430006010033",
  "source": "// This file is LGPL3 Licensed\npragma solidity ^0.6.1;\n\ncontract Verifier {\n    event Verified(string s);\n\n    function verifyTx(bool success) public returns (bool r) {\n        if (success) {\n            emit Verified(\"Transaction successfully verified.\");\n            return true;\n        } else {\n            return false;\n        }\n    }\n}\n",
  "sourcePath": "/Users/FinnHarman/Google Drive/Computing Science/Individual Project/Code/ISA/contracts/Verifier.sol",
  "compiler": {
    "name": "solc",
    "version": "0.6.1+commit.e6f7d5a4.Emscripten.clang"
  },
  "schemaVersion": "3.2.3",
  "updatedAt": "2020-09-02T13:30:47.095Z",
  "networkType": "ethereum",
  "devdoc": {
    "methods": {}
  },
  "userdoc": {
    "methods": {}
  }
}