{
  "contractName": "Verifier",
  "abi": [
    {
      "anonymous": false,
      "inputs": [
        {
          "indexed": false,
          "internalType": "string",
          "name": "s",
          "type": "string"
        }
      ],
      "name": "Verified",
      "type": "event"
    },
    {
      "inputs": [
        {
          "internalType": "bool",
          "name": "success",
          "type": "bool"
        }
      ],
      "name": "verifyTx",
      "outputs": [
        {
          "internalType": "bool",
          "name": "r",
          "type": "bool"
        }
      ],
      "stateMutability": "nonpayable",
      "type": "function"
    }
  ],
  "bytecode": "0x608060405234801561001057600080fd5b5061012e806100206000396000f3fe6080604052348015600f57600080fd5b506004361060285760003560e01c80636dcb52f714602d575b600080fd5b605860048036036020811015604157600080fd5b810190808035151590602001909291905050506072565b604051808215151515815260200191505060405180910390f35b6000811560cc577f3f3cfdb26fb5f9f1786ab4f1a1f9cd4c0b5e726cbdfc26e495261731aad44e396040518080602001828103825260228152602001806100d76022913960400191505060405180910390a16001905060d1565b600090505b91905056fe5472616e73616374696f6e207375636365737366756c6c792076657269666965642ea2646970667358221220b3def9ba5d73d60029fc067c16c374ab1d8c83867b90d35ac99b5e7fd69ca51464736f6c63430006010033",
  "source": "// This file is LGPL3 Licensed\npragma solidity ^0.6.1;\n\ncontract Verifier {\n    event Verified(string s);\n\n    function verifyTx(bool success) public returns (bool r) {\n        if (success) {\n            emit Verified(\"Transaction successfully verified.\");\n            return true;\n        } else {\n            return false;\n        }\n    }\n}\n",
  "sourcePath": "/Users/FinnHarman/Google Drive/Computing Science/Individual Project/Code/ISA/contracts/Verifier.sol",
  "compiler": {
    "name": "solc",
    "version": "0.6.1+commit.e6f7d5a4.Emscripten.clang"
  },
  "schemaVersion": "3.2.0",
  "updatedAt": "2020-08-01T15:16:43.785Z",
  "networkType": "ethereum",
  "devdoc": {
    "methods": {}
  },
  "userdoc": {
    "methods": {}
  }
}